Component: ARM Compiler 5.06 update 6 (build 750) Tool: armlink [4d35ed]

==============================================================================

Section Cross References

    main.o(i.advertising_init) refers to memseta.o(.text) for __aeabi_memclr4
    main.o(i.advertising_init) refers to ble_advdata.o(i.ble_advdata_set) for ble_advdata_set
    main.o(i.advertising_init) refers to app_error.o(i.app_error_handler) for app_error_handler
    main.o(i.advertising_init) refers to main.o(.constdata) for .constdata
    main.o(i.advertising_init) refers to main.o(.data) for .data
    main.o(i.advertising_init) refers to main.o(.bss) for .bss
    main.o(i.assert_nrf_callback) refers to app_error.o(i.app_error_handler) for app_error_handler
    main.o(i.main) refers to app_timer.o(i.app_timer_init) for app_timer_init
    main.o(i.main) refers to app_error.o(i.app_error_handler) for app_error_handler
    main.o(i.main) refers to bsp.o(i.bsp_init) for bsp_init
    main.o(i.main) refers to softdevice_handler.o(i.softdevice_handler_init) for softdevice_handler_init
    main.o(i.main) refers to main.o(i.advertising_init) for advertising_init
    main.o(i.main) refers to bsp.o(i.bsp_indication_set) for bsp_indication_set
    main.o(i.main) refers to main.o(.bss) for .bss
    bsp.o(i.bsp_button_event_handler) refers to app_timer.o(i.app_timer_start) for app_timer_start
    bsp.o(i.bsp_button_event_handler) refers to app_timer.o(i.app_timer_stop) for app_timer_stop
    bsp.o(i.bsp_button_event_handler) refers to bsp.o(.constdata) for .constdata
    bsp.o(i.bsp_button_event_handler) refers to bsp.o(.data) for .data
==============================================================================

Removing Unused input sections from the image.

    Removing main.o(.rev16_text), (4 bytes).
    Removing main.o(.revsh_text), (4 bytes).
    Removing main.o(i.assert_nrf_callback), (20 bytes).
    Removing bsp.o(.rev16_text), (4 bytes).
    Removing bsp.o(.revsh_text), (4 bytes).
    Removing bsp.o(i.bsp_button_is_pressed), (44 bytes).
    Removing bsp.o(i.bsp_buttons_disable), (8 bytes).
    Removing bsp.o(i.bsp_buttons_enable), (8 bytes).
    Removing bsp.o(i.bsp_buttons_state_get), (60 bytes).
    Removing bsp.o(i.bsp_indication_text_set), (8 bytes).
    Removing bsp.o(i.bsp_wakeup_buttons_set), (60 bytes).
    Removing ble_conn_params.o(i.ble_conn_params_change_conn_params), (80 bytes).
    Removing ble_conn_params.o(i.ble_conn_params_init), (84 bytes).
    Removing ble_conn_params.o(i.ble_conn_params_on_ble_evt), (144 bytes).
    Removing ble_conn_params.o(i.ble_conn_params_stop), (16 bytes).
    Removing ble_conn_params.o(i.conn_params_negotiation), (104 bytes).
    Removing ble_conn_params.o(i.is_conn_params_ok), (28 bytes).
    Removing ble_conn_params.o(i.update_timeout_handler), (100 bytes).
==============================================================================

Image Symbol Table

    Local Symbols

    Symbol Name                              Value     Ov Type        Size  Object(Section)

    ../clib/microlib/division.c              0x00000000   Number         0  uidiv.o ABSOLUTE
    ../clib/microlib/init/entry.s            0x00000000   Number         0  entry11b.o ABSOLUTE
    ../clib/microlib/init/entry.s            0x00000000   Number         0  entry11a.o ABSOLUTE
    ../clib/microlib/init/entry.s            0x00000000   Number         0  entry10b.o ABSOLUTE
    ../clib/microlib/init/entry.s            0x00000000   Number         0  entry8a.o ABSOLUTE
    ../clib/microlib/init/entry.s            0x00000000   Number         0  entry10a.o ABSOLUTE
    ../clib/microlib/init/entry.s            0x00000000   Number         0  entry9b.o ABSOLUTE
    ../clib/microlib/init/entry.s            0x00000000   Number         0  entry9a.o ABSOLUTE
    ../clib/microlib/init/entry.s            0x00000000   Number         0  entry2.o ABSOLUTE
    ../clib/microlib/init/entry.s            0x00000000   Number         0  entry5.o ABSOLUTE
    ../clib/microlib/init/entry.s            0x00000000   Number         0  entry7a.o ABSOLUTE
    ../clib/microlib/init/entry.s            0x00000000   Number         0  entry7b.o ABSOLUTE
    ../clib/microlib/init/entry.s            0x00000000   Number         0  entry8b.o ABSOLUTE
    ../clib/microlib/init/entry.s            0x00000000   Number         0  entry.o ABSOLUTE
    ../clib/microlib/string/memcpy.c         0x00000000   Number         0  memcpya.o ABSOLUTE
    ../clib/microlib/string/memcpy.c         0x00000000   Number         0  memcpyb.o ABSOLUTE
    ../clib/microlib/string/memset.c         0x00000000   Number         0  memseta.o ABSOLUTE
    ../clib/microlib/string/strlen.c         0x00000000   Number         0  strlen.o ABSOLUTE
    ..\..\..\..\..\..\components\ble\common\ble_advdata.c 0x00000000   Number         0  ble_advdata.o ABSOLUTE
    ..\..\..\..\..\..\components\ble\common\ble_conn_params.c 0x00000000   Number         0  ble_conn_params.o ABSOLUTE
    ..\..\..\..\..\..\components\ble\common\ble_srv_common.c 0x00000000   Number         0  ble_srv_common.o ABSOLUTE
    ..\..\..\..\..\..\components\drivers_nrf\common\nrf_drv_common.c 0x00000000   Number         0  nrf_drv_common.o ABSOLUTE
    ..\..\..\..\..\..\components\drivers_nrf\delay\nrf_delay.c 0x00000000   Number         0  nrf_delay.o ABSOLUTE
    ..\..\..\..\..\..\components\drivers_nrf\gpiote\nrf_drv_gpiote.c 0x00000000   Number         0  nrf_drv_gpiote.o ABSOLUTE
    ..\..\..\..\..\..\components\drivers_nrf\uart\nrf_drv_uart.c 0x00000000   Number         0  nrf_drv_uart.o ABSOLUTE
    ..\..\..\..\..\..\components\libraries\button\app_button.c 0x00000000   Number         0  app_button.o ABSOLUTE
    ..\..\..\..\..\..\components\libraries\fifo\app_fifo.c 0x00000000   Number         0  app_fifo.o ABSOLUTE
    ..\..\..\..\..\..\components\libraries\timer\app_timer.c 0x00000000   Number         0  app_timer.o ABSOLUTE
    ..\..\..\..\..\..\components\libraries\uart\app_uart_fifo.c 0x00000000   Number         0  app_uart_fifo.o ABSOLUTE
    ..\..\..\..\..\..\components\libraries\util\app_error.c 0x00000000   Number         0  app_error.o ABSOLUTE
    ..\..\..\..\..\..\components\libraries\util\nrf_assert.c 0x00000000   Number         0  nrf_assert.o ABSOLUTE
    ..\..\..\..\..\..\components\softdevice\common\softdevice_handler\softdevice_handler.c 0x00000000   Number         0  softdevice_handler.o ABSOLUTE
    ..\..\..\..\..\bsp\bsp.c                 0x00000000   Number         0  bsp.o ABSOLUTE
    ..\..\..\main.c                          0x00000000   Number         0  main.o ABSOLUTE
    ..\\..\\..\\..\\..\\..\\components\\drivers_nrf\\common\\nrf_drv_common.c 0x00000000   Number         0  nrf_drv_common.o ABSOLUTE
    ..\\..\\..\\..\\..\\..\\components\\drivers_nrf\\delay\\nrf_delay.c 0x00000000   Number         0  nrf_delay.o ABSOLUTE
    ..\\..\\..\\..\\..\\..\\components\\drivers_nrf\\gpiote\\nrf_drv_gpiote.c 0x00000000   Number         0  nrf_drv_gpiote.o ABSOLUTE
    ..\\..\\..\\..\\..\\..\\components\\drivers_nrf\\uart\\nrf_drv_uart.c 0x00000000   Number         0  nrf_drv_uart.o ABSOLUTE
    ..\\..\\..\\..\\..\\..\\components\\libraries\\button\\app_button.c 0x00000000   Number         0  app_button.o ABSOLUTE
    ..\\..\\..\\..\\..\\..\\components\\libraries\\timer\\app_timer.c 0x00000000   Number         0  app_timer.o ABSOLUTE
    ..\\..\\..\\..\\..\\..\\components\\libraries\\uart\\app_uart_fifo.c 0x00000000   Number         0  app_uart_fifo.o ABSOLUTE
    ..\\..\\..\\..\\..\\..\\components\\libraries\\util\\app_error.c 0x00000000   Number         0  app_error.o ABSOLUTE
    ..\\..\\..\\..\\..\\..\\components\\softdevice\\common\\softdevice_handler\\softdevice_handler.c 0x00000000   Number         0  softdevice_handler.o ABSOLUTE
    ..\\..\\..\\..\\..\\bsp\\bsp.c           0x00000000   Number         0  bsp.o ABSOLUTE
    ..\\..\\..\\main.c                       0x00000000   Number         0  main.o ABSOLUTE
    RTE\Device\nRF51822_xxAA\arm_startup_nrf51.s 0x00000000   Number         0  arm_startup_nrf51.o ABSOLUTE
    RTE\Device\nRF51822_xxAA\system_nrf51.c  0x00000000   Number         0  system_nrf51.o ABSOLUTE
    RTE\\Device\\nRF51822_xxAA\\system_nrf51.c 0x00000000   Number         0  system_nrf51.o ABSOLUTE
    dc.s                                     0x00000000   Number         0  dc.o ABSOLUTE
    handlers.s                               0x00000000   Number         0  handlers.o ABSOLUTE
    init.s                                   0x00000000   Number         0  init.o ABSOLUTE
    RESET                                    0x00018000   Section      192  arm_startup_nrf51.o(RESET)
    .ARM.Collect$$$$00000000                 0x000180c0   Section        0  entry.o(.ARM.Collect$$$$00000000)
    .ARM.Collect$$$$00000001                 0x000180c0   Section        4  entry2.o(.ARM.Collect$$$$00000001)
    .ARM.Collect$$$$00000004                 0x000180c4   Section        4  entry5.o(.ARM.Collect$$$$00000004)
    .ARM.Collect$$$$00000008                 0x000180c8   Section        0  entry7b.o(.ARM.Collect$$$$00000008)
    .ARM.Collect$$$$0000000A                 0x000180c8   Section        0  entry8b.o(.ARM.Collect$$$$0000000A)
    .ARM.Collect$$$$0000000B                 0x000180c8   Section        8  entry9a.o(.ARM.Collect$$$$0000000B)
    .ARM.Collect$$$$0000000D                 0x000180d0   Section        0  entry10a.o(.ARM.Collect$$$$0000000D)
    .ARM.Collect$$$$0000000F                 0x000180d0   Section        0  entry11a.o(.ARM.Collect$$$$0000000F)
    .ARM.Collect$$$$00002712                 0x000180d0   Section        4  entry2.o(.ARM.Collect$$$$00002712)
    __lit__00000000                          0x000180d0   Data           4  entry2.o(.ARM.Collect$$$$00002712)
    .emb_text                                0x000180d4   Section       30  app_timer.o(.emb_text)
    .text                                    0x000180f4   Section       56  arm_startup_nrf51.o(.text)
    .text                                    0x0001812c   Section        0  uidiv.o(.text)
    .text                                    0x00018158   Section        0  memcpya.o(.text)
    .text                                    0x0001817c   Section        0  memseta.o(.text)
    .text                                    0x000181a0   Section       36  init.o(.text)
    i.GPIOTE_IRQHandler                      0x000181c4   Section        0  nrf_drv_gpiote.o(i.GPIOTE_IRQHandler)
    i.NVIC_SetPriority                       0x000182cc   Section        0  app_timer.o(i.NVIC_SetPriority)
    NVIC_SetPriority                         0x000182cd   Thumb Code    60  app_timer.o(i.NVIC_SetPriority)
    i.RTC1_IRQHandler                        0x00018310   Section        0  app_timer.o(i.RTC1_IRQHandler)
    i.SWI0_IRQHandler                        0x00018330   Section        0  app_timer.o(i.SWI0_IRQHandler)
    i.SWI2_IRQHandler                        0x00018338   Section        0  softdevice_handler.o(i.SWI2_IRQHandler)
    i.SystemInit                             0x0001835c   Section        0  system_nrf51.o(i.SystemInit)
    i.UART0_IRQHandler                       0x000183fc   Section        0  nrf_drv_uart.o(i.UART0_IRQHandler)
    i.__ARM_common_switch8                   0x00018500   Section        0  bsp.o(i.__ARM_common_switch8)
    i.__scatterload_copy                     0x0001851a   Section       14  handlers.o(i.__scatterload_copy)
    i.__scatterload_null                     0x00018528   Section        2  handlers.o(i.__scatterload_null)
    i.__scatterload_zeroinit                 0x0001852a   Section       14  handlers.o(i.__scatterload_zeroinit)
    i.adv_data_encode                        0x00018538   Section        0  ble_advdata.o(i.adv_data_encode)
    i.advertising_init                       0x00018750   Section        0  main.o(i.advertising_init)
    advertising_init                         0x00018751   Thumb Code   114  main.o(i.advertising_init)
    i.alert_timer_handler                    0x000187d4   Section        0  bsp.o(i.alert_timer_handler)
    alert_timer_handler                      0x000187d5   Thumb Code    20  bsp.o(i.alert_timer_handler)
    i.app_button_enable                      0x000187ec   Section        0  app_button.o(i.app_button_enable)
    i.app_button_init                        0x00018810   Section        0  app_button.o(i.app_button_init)
    i.app_error_handler                      0x00018884   Section        0  app_error.o(i.app_error_handler)
    i.app_timer_create                       0x000188a0   Section        0  app_timer.o(i.app_timer_create)
    i.app_timer_init                         0x000188d0   Section        0  app_timer.o(i.app_timer_init)
    i.app_timer_start                        0x00018960   Section        0  app_timer.o(i.app_timer_start)
    i.app_timer_stop                         0x000189dc   Section        0  app_timer.o(i.app_timer_stop)
    i.ble_advdata_set                        0x00018a30   Section        0  ble_advdata.o(i.ble_advdata_set)
    i.ble_device_addr_encode                 0x00018a98   Section        0  ble_advdata.o(i.ble_device_addr_encode)
    ble_device_addr_encode                   0x00018a99   Thumb Code    94  ble_advdata.o(i.ble_device_addr_encode)
    i.bsp_button_event_handler               0x00018af8   Section        0  bsp.o(i.bsp_button_event_handler)
    bsp_button_event_handler                 0x00018af9   Thumb Code   154  bsp.o(i.bsp_button_event_handler)
    i.bsp_event_to_button_action_assign      0x00018b9c   Section        0  bsp.o(i.bsp_event_to_button_action_assign)
    i.bsp_indication_set                     0x00018be4   Section        0  bsp.o(i.bsp_indication_set)
    i.bsp_init                               0x00018c00   Section        0  bsp.o(i.bsp_init)
    i.bsp_led_indication                     0x00018ca4   Section        0  bsp.o(i.bsp_led_indication)
    bsp_led_indication                       0x00018ca5   Thumb Code   550  bsp.o(i.bsp_led_indication)
    i.button_timer_handler                   0x00018ee0   Section        0  bsp.o(i.button_timer_handler)
    button_timer_handler                     0x00018ee1   Thumb Code    12  bsp.o(i.button_timer_handler)
    i.channel_free                           0x00018eec   Section        0  nrf_drv_gpiote.o(i.channel_free)
    channel_free                             0x00018eed   Thumb Code    22  nrf_drv_gpiote.o(i.channel_free)
    i.channel_port_alloc                     0x00018f08   Section        0  nrf_drv_gpiote.o(i.channel_port_alloc)
    channel_port_alloc                       0x00018f09   Thumb Code    66  nrf_drv_gpiote.o(i.channel_port_alloc)
    i.channel_port_get                       0x00018f50   Section        0  nrf_drv_gpiote.o(i.channel_port_get)
    channel_port_get                         0x00018f51   Thumb Code    10  nrf_drv_gpiote.o(i.channel_port_get)
    i.compare_reg_update                     0x00018f60   Section        0  app_timer.o(i.compare_reg_update)
    compare_reg_update                       0x00018f61   Thumb Code   142  app_timer.o(i.compare_reg_update)
    i.conn_int_encode                        0x00019008   Section        0  ble_advdata.o(i.conn_int_encode)
    conn_int_encode                          0x00019009   Thumb Code   130  ble_advdata.o(i.conn_int_encode)
    i.detection_delay_timeout_handler        0x00019090   Section        0  app_button.o(i.detection_delay_timeout_handler)
    detection_delay_timeout_handler          0x00019091   Thumb Code    90  app_button.o(i.detection_delay_timeout_handler)
    i.elapsed_ticks_acquire                  0x000190f0   Section        0  app_timer.o(i.elapsed_ticks_acquire)
    elapsed_ticks_acquire                    0x000190f1   Thumb Code    58  app_timer.o(i.elapsed_ticks_acquire)
    i.gpiote_event_handler                   0x00019130   Section        0  app_button.o(i.gpiote_event_handler)
    gpiote_event_handler                     0x00019131   Thumb Code    72  app_button.o(i.gpiote_event_handler)
    i.intern_softdevice_events_execute       0x00019180   Section        0  softdevice_handler.o(i.intern_softdevice_events_execute)
    i.is_manual_peripheral_setup_needed      0x00019200   Section        0  system_nrf51.o(i.is_manual_peripheral_setup_needed)
    is_manual_peripheral_setup_needed        0x00019201   Thumb Code    66  system_nrf51.o(i.is_manual_peripheral_setup_needed)
    i.le_role_encode                         0x00019248   Section        0  ble_advdata.o(i.le_role_encode)
    le_role_encode                           0x00019249   Thumb Code    84  ble_advdata.o(i.le_role_encode)
    i.leds_timer_handler                     0x0001929c   Section        0  bsp.o(i.leds_timer_handler)
    leds_timer_handler                       0x0001929d   Thumb Code    18  bsp.o(i.leds_timer_handler)
    i.list_deletions_handler                 0x000192b4   Section        0  app_timer.o(i.list_deletions_handler)
    list_deletions_handler                   0x000192b5   Thumb Code   180  app_timer.o(i.list_deletions_handler)
    i.list_insertions_handler                0x00019370   Section        0  app_timer.o(i.list_insertions_handler)
    list_insertions_handler                  0x00019371   Thumb Code   202  app_timer.o(i.list_insertions_handler)
    i.main                                   0x00019444   Section        0  main.o(i.main)
    i.manuf_specific_data_encode             0x000194f4   Section        0  ble_advdata.o(i.manuf_specific_data_encode)
    manuf_specific_data_encode               0x000194f5   Thumb Code   104  ble_advdata.o(i.manuf_specific_data_encode)
    i.name_encode                            0x0001955c   Section        0  ble_advdata.o(i.name_encode)
    name_encode                              0x0001955d   Thumb Code   158  ble_advdata.o(i.name_encode)
    i.nrf_drv_common_irq_enable              0x000195fc   Section        0  nrf_drv_common.o(i.nrf_drv_common_irq_enable)
    i.nrf_drv_gpiote_in_event_enable         0x0001965c   Section        0  nrf_drv_gpiote.o(i.nrf_drv_gpiote_in_event_enable)
    i.nrf_drv_gpiote_in_init                 0x000196fc   Section        0  nrf_drv_gpiote.o(i.nrf_drv_gpiote_in_init)
    i.nrf_drv_gpiote_in_is_set               0x000197a0   Section        0  nrf_drv_gpiote.o(i.nrf_drv_gpiote_in_is_set)
    i.nrf_drv_gpiote_init                    0x000197b4   Section        0  nrf_drv_gpiote.o(i.nrf_drv_gpiote_init)
    i.nrf_drv_gpiote_is_init                 0x00019808   Section        0  nrf_drv_gpiote.o(i.nrf_drv_gpiote_is_init)
    i.nrf_gpio_cfg                           0x00019818   Section        0  nrf_drv_gpiote.o(i.nrf_gpio_cfg)
    nrf_gpio_cfg                             0x00019819   Thumb Code    32  nrf_drv_gpiote.o(i.nrf_gpio_cfg)
    i.nrf_gpio_cfg_sense_set                 0x0001983c   Section        0  nrf_drv_gpiote.o(i.nrf_gpio_cfg_sense_set)
    nrf_gpio_cfg_sense_set                   0x0001983d   Thumb Code    26  nrf_drv_gpiote.o(i.nrf_gpio_cfg_sense_set)
    i.nrf_gpiote_event_is_set                0x0001985c   Section        0  nrf_drv_gpiote.o(i.nrf_gpiote_event_is_set)
    nrf_gpiote_event_is_set                  0x0001985d   Thumb Code    14  nrf_drv_gpiote.o(i.nrf_gpiote_event_is_set)
    i.nrf_uart_event_check                   0x00019870   Section        0  nrf_drv_uart.o(i.nrf_uart_event_check)
    nrf_uart_event_check                     0x00019871   Thumb Code    10  nrf_drv_uart.o(i.nrf_uart_event_check)
    i.nrf_uart_int_enable_check              0x0001987a   Section        0  nrf_drv_uart.o(i.nrf_uart_int_enable_check)
    nrf_uart_int_enable_check                0x0001987b   Thumb Code    16  nrf_drv_uart.o(i.nrf_uart_int_enable_check)
    i.pin_in_use_by_port                     0x0001988c   Section        0  nrf_drv_gpiote.o(i.pin_in_use_by_port)
    pin_in_use_by_port                       0x0001988d   Thumb Code    20  nrf_drv_gpiote.o(i.pin_in_use_by_port)
    i.pin_in_use_by_te                       0x000198a4   Section        0  nrf_drv_gpiote.o(i.pin_in_use_by_te)
    pin_in_use_by_te                         0x000198a5   Thumb Code    20  nrf_drv_gpiote.o(i.pin_in_use_by_te)
    i.rtc1_stop                              0x000198bc   Section        0  app_timer.o(i.rtc1_stop)
    rtc1_stop                                0x000198bd   Thumb Code    50  app_timer.o(i.rtc1_stop)
    i.rx_byte                                0x00019900   Section        0  nrf_drv_uart.o(i.rx_byte)
    rx_byte                                  0x00019901   Thumb Code    30  nrf_drv_uart.o(i.rx_byte)
    i.rx_done_event                          0x0001992c   Section        0  nrf_drv_uart.o(i.rx_done_event)
    rx_done_event                            0x0001992d   Thumb Code    28  nrf_drv_uart.o(i.rx_done_event)
    i.service_data_encode                    0x0001994c   Section        0  ble_advdata.o(i.service_data_encode)
    service_data_encode                      0x0001994d   Thumb Code   142  ble_advdata.o(i.service_data_encode)
    i.softdevice_assertion_handler           0x000199da   Section        0  softdevice_handler.o(i.softdevice_assertion_handler)
    i.softdevice_handler_init                0x000199e8   Section        0  softdevice_handler.o(i.softdevice_handler_init)
    i.timer_list_handler                     0x00019a18   Section        0  app_timer.o(i.timer_list_handler)
    timer_list_handler                       0x00019a19   Thumb Code   128  app_timer.o(i.timer_list_handler)
    i.timer_list_handler_sched               0x00019a9c   Section        0  app_timer.o(i.timer_list_handler_sched)
    timer_list_handler_sched                 0x00019a9d   Thumb Code    10  app_timer.o(i.timer_list_handler_sched)
    i.timer_list_insert                      0x00019aac   Section        0  app_timer.o(i.timer_list_insert)
    timer_list_insert                        0x00019aad   Thumb Code    60  app_timer.o(i.timer_list_insert)
    i.timer_timeouts_check                   0x00019aec   Section        0  app_timer.o(i.timer_timeouts_check)
    timer_timeouts_check                     0x00019aed   Thumb Code   122  app_timer.o(i.timer_timeouts_check)
    i.tx_byte                                0x00019b70   Section        0  nrf_drv_uart.o(i.tx_byte)
    tx_byte                                  0x00019b71   Thumb Code    30  nrf_drv_uart.o(i.tx_byte)
    i.tx_done_event                          0x00019b9c   Section        0  nrf_drv_uart.o(i.tx_done_event)
    tx_done_event                            0x00019b9d   Thumb Code    26  nrf_drv_uart.o(i.tx_done_event)
    i.uint16_encode                          0x00019bbc   Section        0  ble_advdata.o(i.uint16_encode)
    uint16_encode                            0x00019bbd   Thumb Code    10  ble_advdata.o(i.uint16_encode)
    i.user_id_get                            0x00019bc8   Section        0  app_timer.o(i.user_id_get)
    user_id_get                              0x00019bc9   Thumb Code    74  app_timer.o(i.user_id_get)
    i.user_op_alloc                          0x00019c1c   Section        0  app_timer.o(i.user_op_alloc)
    user_op_alloc                            0x00019c1d   Thumb Code    38  app_timer.o(i.user_op_alloc)
    i.uuid_list_encode                       0x00019c42   Section        0  ble_advdata.o(i.uuid_list_encode)
    uuid_list_encode                         0x00019c43   Thumb Code    48  ble_advdata.o(i.uuid_list_encode)
    i.uuid_list_sized_encode                 0x00019c72   Section        0  ble_advdata.o(i.uuid_list_sized_encode)
    uuid_list_sized_encode                   0x00019c73   Thumb Code   174  ble_advdata.o(i.uuid_list_sized_encode)
    .constdata                               0x00019d20   Section        4  main.o(.constdata)
    .constdata                               0x00019d24   Section       36  bsp.o(.constdata)
    m_leds_timer_id                          0x00019d24   Data           4  bsp.o(.constdata)
    m_alert_timer_id                         0x00019d28   Data           4  bsp.o(.constdata)
    m_button_timer_id                        0x00019d2c   Data           4  bsp.o(.constdata)
    m_buttons_list                           0x00019d30   Data           8  bsp.o(.constdata)
    app_buttons                              0x00019d38   Data          16  bsp.o(.constdata)
    .constdata                               0x00019d48   Section        8  app_button.o(.constdata)
    m_detection_delay_timer_id               0x00019d48   Data           4  app_button.o(.constdata)
    .data                                    0x20002000   Section       20  main.o(.data)
    eddystone_uid_data                       0x20002000   Data          20  main.o(.data)
    .data                                    0x20002014   Section       26  bsp.o(.data)
    m_stable_state                           0x20002014   Data           1  bsp.o(.data)
    current_long_push_pin_no                 0x20002015   Data           1  bsp.o(.data)
    release_event_at_push                    0x20002016   Data           2  bsp.o(.data)
    m_app_ticks_per_100ms                    0x20002018   Data           4  bsp.o(.data)
    m_indication_type                        0x2000201c   Data           4  bsp.o(.data)
    m_alert_mask                             0x20002020   Data           4  bsp.o(.data)
    m_registered_callback                    0x20002024   Data           4  bsp.o(.data)
    m_events_list                            0x20002028   Data           6  bsp.o(.data)
    .data                                    0x20002030   Section       20  app_button.o(.data)
    m_button_count                           0x20002030   Data           1  app_button.o(.data)
    mp_buttons                               0x20002034   Data           4  app_button.o(.data)
    m_detection_delay                        0x20002038   Data           4  app_button.o(.data)
    m_pin_state                              0x2000203c   Data           4  app_button.o(.data)
    m_pin_transition                         0x20002040   Data           4  app_button.o(.data)
    .data                                    0x20002044   Section       32  app_timer.o(.data)
    m_user_array_size                        0x20002044   Data           1  app_timer.o(.data)
    m_ticks_elapsed_q_read_ind               0x20002045   Data           1  app_timer.o(.data)
    m_ticks_elapsed_q_write_ind              0x20002046   Data           1  app_timer.o(.data)
    m_rtc1_running                           0x20002047   Data           1  app_timer.o(.data)
    m_rtc1_reset                             0x20002048   Data           1  app_timer.o(.data)
    mp_users                                 0x2000204c   Data           4  app_timer.o(.data)
    mp_timer_id_head                         0x20002050   Data           4  app_timer.o(.data)
    m_ticks_latest                           0x20002054   Data           4  app_timer.o(.data)
    m_evt_schedule_func                      0x20002058   Data           4  app_timer.o(.data)
    m_ticks_elapsed                          0x2000205c   Data           8  app_timer.o(.data)
    .data                                    0x20002064   Section       20  softdevice_handler.o(.data)
    m_softdevice_enabled                     0x20002064   Data           1  softdevice_handler.o(.data)
    m_ble_evt_buffer_size                    0x20002066   Data           2  softdevice_handler.o(.data)
    m_evt_schedule_func                      0x20002068   Data           4  softdevice_handler.o(.data)
    mp_ble_evt_buffer                        0x2000206c   Data           4  softdevice_handler.o(.data)
    m_ble_evt_handler                        0x20002070   Data           4  softdevice_handler.o(.data)
    m_sys_evt_handler                        0x20002074   Data           4  softdevice_handler.o(.data)
    .data                                    0x20002078   Section        4  system_nrf51.o(.data)
    __tagsym$$used                           0x20002078   Number         0  system_nrf51.o(.data)
    .bss                                     0x2000207c   Section      552  main.o(.bss)
    BLE_EVT_BUFFER                           0x2000207c   Data          72  main.o(.bss)
    APP_TIMER_BUF                            0x200020c4   Data         456  main.o(.bss)
    m_adv_params                             0x2000228c   Data          24  main.o(.bss)
    .bss                                     0x200022a4   Section       32  bsp.o(.bss)
    m_leds_timer_id_data                     0x200022a4   Data          32  bsp.o(.bss)
    .bss                                     0x200022c4   Section       32  bsp.o(.bss)
    m_alert_timer_id_data                    0x200022c4   Data          32  bsp.o(.bss)
    .bss                                     0x200022e4   Section       32  bsp.o(.bss)
    m_button_timer_id_data                   0x200022e4   Data          32  bsp.o(.bss)
    .bss                                     0x20002304   Section       72  nrf_drv_gpiote.o(.bss)
    m_cb                                     0x20002304   Data          72  nrf_drv_gpiote.o(.bss)
    .bss                                     0x2000234c   Section       24  nrf_drv_uart.o(.bss)
    m_cb                                     0x2000234c   Data          24  nrf_drv_uart.o(.bss)
    .bss                                     0x20002364   Section       32  app_button.o(.bss)
    m_detection_delay_timer_id_data          0x20002364   Data          32  app_button.o(.bss)
    STACK                                    0x20002388   Section     2048  arm_startup_nrf51.o(STACK)

    Global Symbols

    Symbol Name                              Value     Ov Type        Size  Object(Section)

    BuildAttributes$$THM_ISAv3M$S$PE$A:L22$X:L11$S22$IEEE1$IW$USESV6$~STKCKD$USESV7$~SHL$OSPACE$EBA8$MICROLIB$REQ8$PRES8$EABIv2 0x00000000   Number         0  anon$$obj.o ABSOLUTE
    __ARM_use_no_argv                        0x00000000   Number         0  main.o ABSOLUTE
    __cpp_initialize__aeabi_                  - Undefined Weak Reference
    __cxa_finalize                            - Undefined Weak Reference
    __decompress                              - Undefined Weak Reference
    _clock_init                               - Undefined Weak Reference
    _microlib_exit                            - Undefined Weak Reference
    __Vectors_Size                           0x000000c0   Number         0  arm_startup_nrf51.o ABSOLUTE
    __Vectors                                0x00018000   Data           4  arm_startup_nrf51.o(RESET)
    __Vectors_End                            0x000180c0   Data           0  arm_startup_nrf51.o(RESET)
    __main                                   0x000180c1   Thumb Code     0  entry.o(.ARM.Collect$$$$00000000)
    _main_stk                                0x000180c1   Thumb Code     0  entry2.o(.ARM.Collect$$$$00000001)
    _main_scatterload                        0x000180c5   Thumb Code     0  entry5.o(.ARM.Collect$$$$00000004)
    __main_after_scatterload                 0x000180c9   Thumb Code     0  entry5.o(.ARM.Collect$$$$00000004)
    _main_clock                              0x000180c9   Thumb Code     0  entry7b.o(.ARM.Collect$$$$00000008)
    _main_cpp_init                           0x000180c9   Thumb Code     0  entry8b.o(.ARM.Collect$$$$0000000A)
    _main_init                               0x000180c9   Thumb Code     0  entry9a.o(.ARM.Collect$$$$0000000B)
    __rt_final_cpp                           0x000180d1   Thumb Code     0  entry10a.o(.ARM.Collect$$$$0000000D)
    __rt_final_exit                          0x000180d1   Thumb Code     0  entry11a.o(.ARM.Collect$$$$0000000F)
    __asm___11_app_timer_c_cd27f9c3__nrf_delay_us 0x000180d5   Thumb Code    30  app_timer.o(.emb_text)
    Reset_Handler                            0x000180f5   Thumb Code    26  arm_startup_nrf51.o(.text)
    NMI_Handler                              0x0001810f   Thumb Code     2  arm_startup_nrf51.o(.text)
    HardFault_Handler                        0x00018111   Thumb Code     2  arm_startup_nrf51.o(.text)
    SVC_Handler                              0x00018113   Thumb Code     2  arm_startup_nrf51.o(.text)
    PendSV_Handler                           0x00018115   Thumb Code     2  arm_startup_nrf51.o(.text)
    SysTick_Handler                          0x00018117   Thumb Code     2  arm_startup_nrf51.o(.text)
    ADC_IRQHandler                           0x00018119   Thumb Code     0  arm_startup_nrf51.o(.text)
    CCM_AAR_IRQHandler                       0x00018119   Thumb Code     0  arm_startup_nrf51.o(.text)
    ECB_IRQHandler                           0x00018119   Thumb Code     0  arm_startup_nrf51.o(.text)
    LPCOMP_IRQHandler                        0x00018119   Thumb Code     0  arm_startup_nrf51.o(.text)
    POWER_CLOCK_IRQHandler                   0x00018119   Thumb Code     0  arm_startup_nrf51.o(.text)
    QDEC_IRQHandler                          0x00018119   Thumb Code     0  arm_startup_nrf51.o(.text)
    RADIO_IRQHandler                         0x00018119   Thumb Code     0  arm_startup_nrf51.o(.text)
    RNG_IRQHandler                           0x00018119   Thumb Code     0  arm_startup_nrf51.o(.text)
    RTC0_IRQHandler                          0x00018119   Thumb Code     0  arm_startup_nrf51.o(.text)
    SPI0_TWI0_IRQHandler                     0x00018119   Thumb Code     0  arm_startup_nrf51.o(.text)
    SPI1_TWI1_IRQHandler                     0x00018119   Thumb Code     0  arm_startup_nrf51.o(.text)
    SWI1_IRQHandler                          0x00018119   Thumb Code     0  arm_startup_nrf51.o(.text)
    SWI3_IRQHandler                          0x00018119   Thumb Code     0  arm_startup_nrf51.o(.text)
    SWI4_IRQHandler                          0x00018119   Thumb Code     0  arm_startup_nrf51.o(.text)
    SWI5_IRQHandler                          0x00018119   Thumb Code     0  arm_startup_nrf51.o(.text)
    TEMP_IRQHandler                          0x00018119   Thumb Code     0  arm_startup_nrf51.o(.text)
    TIMER0_IRQHandler                        0x00018119   Thumb Code     0  arm_startup_nrf51.o(.text)
    TIMER1_IRQHandler                        0x00018119   Thumb Code     0  arm_startup_nrf51.o(.text)
    TIMER2_IRQHandler                        0x00018119   Thumb Code     0  arm_startup_nrf51.o(.text)
    WDT_IRQHandler                           0x00018119   Thumb Code     0  arm_startup_nrf51.o(.text)
    __aeabi_uidiv                            0x0001812d   Thumb Code     0  uidiv.o(.text)
    __aeabi_uidivmod                         0x0001812d   Thumb Code    44  uidiv.o(.text)
    __aeabi_memcpy                           0x00018159   Thumb Code    36  memcpya.o(.text)
    __aeabi_memcpy4                          0x00018159   Thumb Code     0  memcpya.o(.text)
    __aeabi_memcpy8                          0x00018159   Thumb Code     0  memcpya.o(.text)
    __aeabi_memset                           0x0001817d   Thumb Code    14  memseta.o(.text)
    __aeabi_memset4                          0x0001817d   Thumb Code     0  memseta.o(.text)
    __aeabi_memset8                          0x0001817d   Thumb Code     0  memseta.o(.text)
    __aeabi_memclr                           0x0001818b   Thumb Code     4  memseta.o(.text)
    __aeabi_memclr4                          0x0001818b   Thumb Code     0  memseta.o(.text)
    __aeabi_memclr8                          0x0001818b   Thumb Code     0  memseta.o(.text)
    _memset$wrapper                          0x0001818f   Thumb Code    18  memseta.o(.text)
    __scatterload                            0x000181a1   Thumb Code    28  init.o(.text)
    __scatterload_rt2                        0x000181a1   Thumb Code     0  init.o(.text)
    GPIOTE_IRQHandler                        0x000181c5   Thumb Code   234  nrf_drv_gpiote.o(i.GPIOTE_IRQHandler)
    RTC1_IRQHandler                          0x00018311   Thumb Code    28  app_timer.o(i.RTC1_IRQHandler)
    SWI0_IRQHandler                          0x00018331   Thumb Code     8  app_timer.o(i.SWI0_IRQHandler)
    SWI2_IRQHandler                          0x00018339   Thumb Code    32  softdevice_handler.o(i.SWI2_IRQHandler)
    SystemInit                               0x0001835d   Thumb Code   130  system_nrf51.o(i.SystemInit)
    UART0_IRQHandler                         0x000183fd   Thumb Code   244  nrf_drv_uart.o(i.UART0_IRQHandler)
    __ARM_common_switch8                     0x00018501   Thumb Code    26  bsp.o(i.__ARM_common_switch8)
    __scatterload_copy                       0x0001851b   Thumb Code    14  handlers.o(i.__scatterload_copy)
    __scatterload_null                       0x00018529   Thumb Code     2  handlers.o(i.__scatterload_null)
    __scatterload_zeroinit                   0x0001852b   Thumb Code    14  handlers.o(i.__scatterload_zeroinit)
    adv_data_encode                          0x00018539   Thumb Code   534  ble_advdata.o(i.adv_data_encode)
    app_button_enable                        0x000187ed   Thumb Code    32  app_button.o(i.app_button_enable)
    app_button_init                          0x00018811   Thumb Code   100  app_button.o(i.app_button_init)
    app_error_handler                        0x00018885   Thumb Code    18  app_error.o(i.app_error_handler)
    app_timer_create                         0x000188a1   Thumb Code    44  app_timer.o(i.app_timer_create)
    app_timer_init                           0x000188d1   Thumb Code   126  app_timer.o(i.app_timer_init)
    app_timer_start                          0x00018961   Thumb Code   114  app_timer.o(i.app_timer_start)
    app_timer_stop                           0x000189dd   Thumb Code    78  app_timer.o(i.app_timer_stop)
    ble_advdata_set                          0x00018a31   Thumb Code   104  ble_advdata.o(i.ble_advdata_set)
    bsp_event_to_button_action_assign        0x00018b9d   Thumb Code    66  bsp.o(i.bsp_event_to_button_action_assign)
    bsp_indication_set                       0x00018be5   Thumb Code    22  bsp.o(i.bsp_indication_set)
    bsp_init                                 0x00018c01   Thumb Code   140  bsp.o(i.bsp_init)
    intern_softdevice_events_execute         0x00019181   Thumb Code   124  softdevice_handler.o(i.intern_softdevice_events_execute)
    main                                     0x00019445   Thumb Code   158  main.o(i.main)
    nrf_drv_common_irq_enable                0x000195fd   Thumb Code    78  nrf_drv_common.o(i.nrf_drv_common_irq_enable)
    nrf_drv_gpiote_in_event_enable           0x0001965d   Thumb Code   138  nrf_drv_gpiote.o(i.nrf_drv_gpiote_in_event_enable)
    nrf_drv_gpiote_in_init                   0x000196fd   Thumb Code   146  nrf_drv_gpiote.o(i.nrf_drv_gpiote_in_init)
    nrf_drv_gpiote_in_is_set                 0x000197a1   Thumb Code    16  nrf_drv_gpiote.o(i.nrf_drv_gpiote_in_is_set)
    nrf_drv_gpiote_init                      0x000197b5   Thumb Code    76  nrf_drv_gpiote.o(i.nrf_drv_gpiote_init)
    nrf_drv_gpiote_is_init                   0x00019809   Thumb Code    12  nrf_drv_gpiote.o(i.nrf_drv_gpiote_is_init)
    softdevice_assertion_handler             0x000199db   Thumb Code    12  softdevice_handler.o(i.softdevice_assertion_handler)
    softdevice_handler_init                  0x000199e9   Thumb Code    40  softdevice_handler.o(i.softdevice_handler_init)
    Region$$Table$$Base                      0x00019d50   Number         0  anon$$obj.o(Region$$Table)
    Region$$Table$$Limit                     0x00019d70   Number         0  anon$$obj.o(Region$$Table)
    SystemCoreClock                          0x20002078   Data           4  system_nrf51.o(.data)
    __initial_sp                             0x20002b88   Data           0  arm_startup_nrf51.o(STACK)



==============================================================================

Memory Map of the image

  Image Entry point : 0x000180c1

  Load Region LR_IROM1 (Base: 0x00018000, Size: 0x00001dec, Max: 0x00028000, ABSOLUTE)

    Execution Region ER_IROM1 (Exec base: 0x00018000, Load base: 0x00018000, Size: 0x00001d70, Max: 0x00028000, ABSOLUTE)

    Exec Addr    Load Addr    Size         Type   Attr      Idx    E Section Name        Object

    0x00018000   0x00018000   0x000000c0   Data   RO         1285    RESET               arm_startup_nrf51.o
    0x000180c0   0x000180c0   0x00000000   Code   RO         1327  * .ARM.Collect$$$$00000000  mc_p.l(entry.o)
    0x000180c0   0x000180c0   0x00000004   Code   RO         1340    .ARM.Collect$$$$00000001  mc_p.l(entry2.o)
    0x000180c4   0x000180c4   0x00000004   Code   RO         1343    .ARM.Collect$$$$00000004  mc_p.l(entry5.o)
    0x000180c8   0x000180c8   0x00000000   Code   RO         1345    .ARM.Collect$$$$00000008  mc_p.l(entry7b.o)
    0x000180c8   0x000180c8   0x00000000   Code   RO         1347    .ARM.Collect$$$$0000000A  mc_p.l(entry8b.o)
    0x000180c8   0x000180c8   0x00000008   Code   RO         1348    .ARM.Collect$$$$0000000B  mc_p.l(entry9a.o)
    0x000180d0   0x000180d0   0x00000000   Code   RO         1350    .ARM.Collect$$$$0000000D  mc_p.l(entry10a.o)
    0x000180d0   0x000180d0   0x00000000   Code   RO         1352    .ARM.Collect$$$$0000000F  mc_p.l(entry11a.o)
    0x000180d0   0x000180d0   0x00000004   Code   RO         1341    .ARM.Collect$$$$00002712  mc_p.l(entry2.o)
    0x000180d4   0x000180d4   0x0000001e   Code   RO         1069    .emb_text           app_timer.o
    0x000180f2   0x000180f2   0x00000002   PAD
    0x000180f4   0x000180f4   0x00000038   Code   RO         1286    .text               arm_startup_nrf51.o
    0x0001812c   0x0001812c   0x0000002c   Code   RO         1330    .text               mc_p.l(uidiv.o)
    0x00018158   0x00018158   0x00000024   Code   RO         1332    .text               mc_p.l(memcpya.o)
    0x0001817c   0x0001817c   0x00000024   Code   RO         1334    .text               mc_p.l(memseta.o)
    0x000181a0   0x000181a0   0x00000024   Code   RO         1354    .text               mc_p.l(init.o)
    0x000181c4   0x000181c4   0x00000108   Code   RO          596    i.GPIOTE_IRQHandler  nrf_drv_gpiote.o
    0x000182cc   0x000182cc   0x00000044   Code   RO         1070    i.NVIC_SetPriority  app_timer.o
    0x00018310   0x00018310   0x00000020   Code   RO         1071    i.RTC1_IRQHandler   app_timer.o
    0x00018330   0x00018330   0x00000008   Code   RO         1072    i.SWI0_IRQHandler   app_timer.o
    0x00018338   0x00018338   0x00000024   Code   RO         1221    i.SWI2_IRQHandler   softdevice_handler.o
    0x0001835c   0x0001835c   0x000000a0   Code   RO         1293    i.SystemInit        system_nrf51.o
    0x000183fc   0x000183fc   0x00000104   Code   RO          786    i.UART0_IRQHandler  nrf_drv_uart.o
    0x00018500   0x00018500   0x0000001a   Code   RO          265    i.__ARM_common_switch8  bsp.o
    0x0001851a   0x0001851a   0x0000000e   Code   RO         1358    i.__scatterload_copy  mc_p.l(handlers.o)
    0x00018528   0x00018528   0x00000002   Code   RO         1359    i.__scatterload_null  mc_p.l(handlers.o)
    0x0001852a   0x0001852a   0x0000000e   Code   RO         1360    i.__scatterload_zeroinit  mc_p.l(handlers.o)
    0x00018538   0x00018538   0x00000216   Code   RO          281    i.adv_data_encode   ble_advdata.o
    0x0001874e   0x0001874e   0x00000002   PAD
    0x00018750   0x00018750   0x00000084   Code   RO            3    i.advertising_init  main.o
    0x000187d4   0x000187d4   0x00000018   Code   RO          172    i.alert_timer_handler  bsp.o
    0x000187ec   0x000187ec   0x00000024   Code   RO          934    i.app_button_enable  app_button.o
    0x00018810   0x00018810   0x00000074   Code   RO          935    i.app_button_init   app_button.o
    0x00018884   0x00018884   0x0000001c   Code   RO          994    i.app_error_handler  app_error.o
    0x000188a0   0x000188a0   0x00000030   Code   RO         1075    i.app_timer_create  app_timer.o
    0x000188d0   0x000188d0   0x00000090   Code   RO         1076    i.app_timer_init    app_timer.o
    0x00018960   0x00018960   0x0000007c   Code   RO         1077    i.app_timer_start   app_timer.o
    0x000189dc   0x000189dc   0x00000054   Code   RO         1078    i.app_timer_stop    app_timer.o
    0x00018a30   0x00018a30   0x00000068   Code   RO          282    i.ble_advdata_set   ble_advdata.o
    0x00018a98   0x00018a98   0x0000005e   Code   RO          283    i.ble_device_addr_encode  ble_advdata.o
    0x00018af6   0x00018af6   0x00000002   PAD
    0x00018af8   0x00018af8   0x000000a4   Code   RO          173    i.bsp_button_event_handler  bsp.o
    0x00018b9c   0x00018b9c   0x00000048   Code   RO          178    i.bsp_event_to_button_action_assign  bsp.o
    0x00018be4   0x00018be4   0x0000001c   Code   RO          179    i.bsp_indication_set  bsp.o
    0x00018c00   0x00018c00   0x000000a4   Code   RO          181    i.bsp_init          bsp.o
    0x00018ca4   0x00018ca4   0x0000023c   Code   RO          182    i.bsp_led_indication  bsp.o
    0x00018ee0   0x00018ee0   0x0000000c   Code   RO          184    i.button_timer_handler  bsp.o
    0x00018eec   0x00018eec   0x0000001c   Code   RO          597    i.channel_free      nrf_drv_gpiote.o
    0x00018f08   0x00018f08   0x00000048   Code   RO          598    i.channel_port_alloc  nrf_drv_gpiote.o
    0x00018f50   0x00018f50   0x00000010   Code   RO          599    i.channel_port_get  nrf_drv_gpiote.o
    0x00018f60   0x00018f60   0x000000a8   Code   RO         1080    i.compare_reg_update  app_timer.o
    0x00019008   0x00019008   0x00000088   Code   RO          284    i.conn_int_encode   ble_advdata.o
    0x00019090   0x00019090   0x00000060   Code   RO          937    i.detection_delay_timeout_handler  app_button.o
    0x000190f0   0x000190f0   0x00000040   Code   RO         1081    i.elapsed_ticks_acquire  app_timer.o
    0x00019130   0x00019130   0x00000050   Code   RO          938    i.gpiote_event_handler  app_button.o
    0x00019180   0x00019180   0x00000080   Code   RO         1222    i.intern_softdevice_events_execute  softdevice_handler.o
    0x00019200   0x00019200   0x00000048   Code   RO         1294    i.is_manual_peripheral_setup_needed  system_nrf51.o
    0x00019248   0x00019248   0x00000054   Code   RO          285    i.le_role_encode    ble_advdata.o
    0x0001929c   0x0001929c   0x00000018   Code   RO          185    i.leds_timer_handler  bsp.o
    0x000192b4   0x000192b4   0x000000bc   Code   RO         1082    i.list_deletions_handler  app_timer.o
    0x00019370   0x00019370   0x000000d4   Code   RO         1083    i.list_insertions_handler  app_timer.o
    0x00019444   0x00019444   0x000000b0   Code   RO            5    i.main              main.o
    0x000194f4   0x000194f4   0x00000068   Code   RO          286    i.manuf_specific_data_encode  ble_advdata.o
    0x0001955c   0x0001955c   0x0000009e   Code   RO          287    i.name_encode       ble_advdata.o
    0x000195fa   0x000195fa   0x00000002   PAD
    0x000195fc   0x000195fc   0x00000060   Code   RO          570    i.nrf_drv_common_irq_enable  nrf_drv_common.o
    0x0001965c   0x0001965c   0x000000a0   Code   RO          602    i.nrf_drv_gpiote_in_event_enable  nrf_drv_gpiote.o
    0x000196fc   0x000196fc   0x000000a4   Code   RO          603    i.nrf_drv_gpiote_in_init  nrf_drv_gpiote.o
    0x000197a0   0x000197a0   0x00000014   Code   RO          604    i.nrf_drv_gpiote_in_is_set  nrf_drv_gpiote.o
    0x000197b4   0x000197b4   0x00000054   Code   RO          606    i.nrf_drv_gpiote_init  nrf_drv_gpiote.o
    0x00019808   0x00019808   0x00000010   Code   RO          607    i.nrf_drv_gpiote_is_init  nrf_drv_gpiote.o
    0x00019818   0x00019818   0x00000024   Code   RO          619    i.nrf_gpio_cfg      nrf_drv_gpiote.o
    0x0001983c   0x0001983c   0x00000020   Code   RO          621    i.nrf_gpio_cfg_sense_set  nrf_drv_gpiote.o
    0x0001985c   0x0001985c   0x00000014   Code   RO          622    i.nrf_gpiote_event_is_set  nrf_drv_gpiote.o
    0x00019870   0x00019870   0x0000000a   Code   RO          800    i.nrf_uart_event_check  nrf_drv_uart.o
    0x0001987a   0x0001987a   0x00000010   Code   RO          801    i.nrf_uart_int_enable_check  nrf_drv_uart.o
    0x0001988a   0x0001988a   0x00000002   PAD
    0x0001988c   0x0001988c   0x00000018   Code   RO          623    i.pin_in_use_by_port  nrf_drv_gpiote.o
    0x000198a4   0x000198a4   0x00000018   Code   RO          624    i.pin_in_use_by_te  nrf_drv_gpiote.o
    0x000198bc   0x000198bc   0x00000044   Code   RO         1084    i.rtc1_stop         app_timer.o
    0x00019900   0x00019900   0x0000002c   Code   RO          802    i.rx_byte           nrf_drv_uart.o
    0x0001992c   0x0001992c   0x00000020   Code   RO          803    i.rx_done_event     nrf_drv_uart.o
    0x0001994c   0x0001994c   0x0000008e   Code   RO          288    i.service_data_encode  ble_advdata.o
    0x000199da   0x000199da   0x0000000c   Code   RO         1223    i.softdevice_assertion_handler  softdevice_handler.o
    0x000199e6   0x000199e6   0x00000002   PAD
    0x000199e8   0x000199e8   0x00000030   Code   RO         1225    i.softdevice_handler_init  softdevice_handler.o
    0x00019a18   0x00019a18   0x00000084   Code   RO         1085    i.timer_list_handler  app_timer.o
    0x00019a9c   0x00019a9c   0x00000010   Code   RO         1086    i.timer_list_handler_sched  app_timer.o
    0x00019aac   0x00019aac   0x00000040   Code   RO         1087    i.timer_list_insert  app_timer.o
    0x00019aec   0x00019aec   0x00000084   Code   RO         1088    i.timer_timeouts_check  app_timer.o
    0x00019b70   0x00019b70   0x0000002c   Code   RO          805    i.tx_byte           nrf_drv_uart.o
    0x00019b9c   0x00019b9c   0x00000020   Code   RO          806    i.tx_done_event     nrf_drv_uart.o
    0x00019bbc   0x00019bbc   0x0000000a   Code   RO          289    i.uint16_encode     ble_advdata.o
    0x00019bc6   0x00019bc6   0x00000002   PAD
    0x00019bc8   0x00019bc8   0x00000054   Code   RO         1089    i.user_id_get       app_timer.o
    0x00019c1c   0x00019c1c   0x00000026   Code   RO         1090    i.user_op_alloc     app_timer.o
    0x00019c42   0x00019c42   0x00000030   Code   RO          290    i.uuid_list_encode  ble_advdata.o
    0x00019c72   0x00019c72   0x000000ae   Code   RO          291    i.uuid_list_sized_encode  ble_advdata.o
    0x00019d20   0x00019d20   0x00000004   Data   RO            7    .constdata          main.o
    0x00019d24   0x00019d24   0x00000024   Data   RO          189    .constdata          bsp.o
    0x00019d48   0x00019d48   0x00000008   Data   RO          940    .constdata          app_button.o
    0x00019d50   0x00019d50   0x00000020   Data   RO         1356    Region$$Table       anon$$obj.o


    Execution Region RW_IRAM1 (Exec base: 0x20002000, Load base: 0x00019d70, Size: 0x00000b88, Max: 0x00002000, ABSOLUTE)

    Exec Addr    Load Addr    Size         Type   Attr      Idx    E Section Name        Object

    0x20002000   0x00019d70   0x00000014   Data   RW            8    .data               main.o
    0x20002014   0x00019d84   0x0000001a   Data   RW          190    .data               bsp.o
    0x2000202e   0x00019d9e   0x00000002   PAD
    0x20002030   0x00019da0   0x00000014   Data   RW          941    .data               app_button.o
    0x20002044   0x00019db4   0x00000020   Data   RW         1091    .data               app_timer.o
    0x20002064   0x00019dd4   0x00000014   Data   RW         1229    .data               softdevice_handler.o
    0x20002078   0x00019de8   0x00000004   Data   RW         1295    .data               system_nrf51.o
    0x2000207c        -       0x00000228   Zero   RW            6    .bss                main.o
    0x200022a4        -       0x00000020   Zero   RW          186    .bss                bsp.o
    0x200022c4        -       0x00000020   Zero   RW          187    .bss                bsp.o
    0x200022e4        -       0x00000020   Zero   RW          188    .bss                bsp.o
    0x20002304        -       0x00000048   Zero   RW          625    .bss                nrf_drv_gpiote.o
    0x2000234c        -       0x00000018   Zero   RW          807    .bss                nrf_drv_uart.o
    0x20002364        -       0x00000020   Zero   RW          939    .bss                app_button.o
    0x20002384   0x00019dec   0x00000004   PAD
    0x20002388        -       0x00000800   Zero   RW         1283    STACK               arm_startup_nrf51.o


==============================================================================

Image component sizes


      Code (inc. data)   RO Data    RW Data    ZI Data      Debug   Object Name

       328         34          8         20         32       9086   app_button.o
        28         10          0          0          0       7696   app_error.o
      1704        152          0         32          0      31051   app_timer.o
         0          0          0          0          0       1460   app_uart_fifo.o
        56         18        192          0       2048        716   arm_startup_nrf51.o
      1588          6          0          0          0      18988   ble_advdata.o
      1086        104         36         26         96       8720   bsp.o
       308         36          4         20        552      73727   main.o
        96         18          0          0          0       8452   nrf_drv_common.o
       960        128          0          0         72      22096   nrf_drv_gpiote.o
       438         54          0          0         24      12947   nrf_drv_uart.o
       224         16          0         20          0       5194   softdevice_handler.o
       232         36          0          4          0       2367   system_nrf51.o

    ----------------------------------------------------------------------
      7062        612        272        124       2828     202500   Object Totals
         0          0         32          0          0          0   (incl. Generated)
        14          0          0          2          4          0   (incl. Padding)

    ----------------------------------------------------------------------

      Code (inc. data)   RO Data    RW Data    ZI Data      Debug   Library Member Name

         0          0          0          0          0          0   entry.o
         0          0          0          0          0          0   entry10a.o
         0          0          0          0          0          0   entry11a.o
         8          4          0          0          0          0   entry2.o
         4          0          0          0          0          0   entry5.o
         0          0          0          0          0          0   entry7b.o
         0          0          0          0          0          0   entry8b.o
         8          4          0          0          0          0   entry9a.o
        30          0          0          0          0          0   handlers.o
        36          8          0          0          0         68   init.o
        36          0          0          0          0         60   memcpya.o
        36          0          0          0          0        100   memseta.o
        44          0          0          0          0         72   uidiv.o

    ----------------------------------------------------------------------
       202         16          0          0          0        300   Library Totals
         0          0          0          0          0          0   (incl. Padding)

    ----------------------------------------------------------------------

      Code (inc. data)   RO Data    RW Data    ZI Data      Debug   Library Name

       202         16          0          0          0        300   mc_p.l

    ----------------------------------------------------------------------
       202         16          0          0          0        300   Library Totals

    ----------------------------------------------------------------------

==============================================================================


      Code (inc. data)   RO Data    RW Data    ZI Data      Debug   

      7264        628        272        124       2828     199732   Grand Totals
      7264        628        272        124       2828     199732   ELF Image Totals
      7264        628        272        124          0          0   ROM Totals

==============================================================================

    Total RO  Size (Code + RO Data)                 7536 (   7.36kB)
    Total RW  Size (RW Data + ZI Data)              2952 (   2.88kB)
    Total ROM Size (Code + RO Data + RW Data)       7660 (   7.48kB)

==============================================================================

