:020000022000DC
:10600000000001203D6202009562020097620200DA
:10601000996202009B6202009D6202000000000083
:106020000000000000000000000000009F6202006D
:10603000A162020000000000A3620200A56202004B
:1060400069800200AB62020079800200C18C02000C
:10605000B1620200B3620200ED7E0200B76202008C
:10606000A18C0200B18C0200BD620200BF6202007E
:10607000C1620200C3620200C5620200C762020080
:10608000C9620200A5690200CD620200CF6202006F
:10609000D1620200416A020011A80200D762020028
:1060A000D9620200DB620200DD620200DF620200F0
:1060B000E1620200E3620200A7620200A76202003E
:1060C000E5620200E7620200E9620200EB620200A0
:0C60D000ED620200EF620200F1620200CB
:1060DC00364937480A1A02D0072291438D46354972
:1060EC0035480A1A06D00722914381F30988022207
:1060FC0082F3148831483249324A00F045F832486C
:10610C003249334A00F040F832483349334A00F000
:10611C003BF833483349344A00F036F833483449B5
:10612C00344A00F031F834483449354A00F02CF840
:10613C0034483549354A00F027F8354835490022AE
:10614C0000F02DF834483549002200F028F8344886
:10615C003449091A082903DB00220260043001606B
:10616C00314A90471F482049884205D002680430C4
:10617C0003B4904703BCF7E700208646EC460020AA
:10618C0000212A4A9047FEE7884207D0521A05D0D0
:10619C00037801300B700131013AF9D17047884214
:1061AC0002D002700130FAE77047000000000120B5
:1061BC0000E00020000001200000012018DE020099
:1061CC002C2A00205C2D0020F4620200F4620200F4
:1061DC0008C9020018DE02002C2A00202C2A0020FC
:1061EC0090CA020090CA020090CA020090CA020033
:1061FC0090CA020090CA020090CA020090CA020023
:10620C0018DE020048E102005C2D00205C2D00200D
:10621C005C2D002088470020884700208C470020F8
:10622C008C4700208C6700206162020095BA020046
:10623C000F484FF00701884385460E4880470E48AB
:10624C00016841F470010160BFF34F8FBFF36F8F92
:10625C00FFF73EBF09480A490A4A884207D0521A3A
:10626C0005D0037801300B700131013AF9D1704738
:10627C00000001203978020088ED00E044CA0200D9
:10628C00E02900202C2A0020FEE7FEE7FEE7FEE7CF
:10629C00FEE7FEE7FEE7FEE7FEE7FEE7FEE7FEE7CA
:1062AC00FEE7FEE7FEE7FEE7FEE7FEE7FEE7FEE7BA
:1062BC00FEE7FEE7FEE7FEE7FEE7FEE7FEE7FEE7AA
:1062CC00FEE7FEE7FEE7FEE7FEE7FEE7FEE7FEE79A
:1062DC00FEE7FEE7FEE7FEE7FEE7FEE7FEE7FEE78A
:0862EC00FEE7FEE7FEE700BF3C
:1062F40000487047804700207047037813F0030F6D
:1063040003F0040202D012B910467047B2B103F090
:106314000303012B03D0022B09D0012070470A6824
:1063240000880232C0F3831002440A60F5E70B6868
:106334004288023303EB92130B60EEE70B6842884A
:10634400013303EB92130288F4E700002DE9F04FC8
:1063540089B00546861C08A8484C019200230F46C4
:1063640000F8113D00F09AFD23683B60D4E9012355
:106374001344226801339B1A04F21C4704F5836A10
:1063840004F21448B3421AD3019A0023002A6DD0B0
:10639400012262F3010343F0040365F389132168C6
:1063A400A2689DF80F000A4003320E4444F82230DC
:1063B400266000F097FD012009B0BDE8F08F0121AF
:1063C400384600F0C5FD504600F0D8FD404600F0C8
:1063D400D5FD0DF120096068D4F808B049F8100D16
:1063E40000EA0B00033004EB80004946FFF785FF09
:1063F400049BB0B90BEA030204EB8202D168059155
:106404009A1C013303EA0B0B04EB8B0C01F003031E
:10641400012B0492DCF80CB020D0022B04D083466C
:106424000BE00BEA0300DDE7BDF816309B090333EC
:106434004FEA1B4B02EB93030493404600F0A1FD8B
:1064440008B1049B63605946384600F081FDD4E9E5
:1064540001231344226801339B1A93E7BDF81430D7
:10646400C3F383134FEA1B4B1344E5E7022262F3A1
:10647400010343F0040365F39F5390E72C2E00209F
:1064840008B50E4B0E48FF229A600022C3F8182468
:10649400C3E90022C3F8142483F8202400F0C7FDC4
:1064A40038B9084A084B09499B1ADB0802469A4244
:1064B40000D108BD21F822200132F8E72C2E00205B
:1064C400B4C902001CC90200B4C90200E0290020BA
:1064D400034BD3E90030C31A58425841704700BFF8
:1064E4002C2E00202DE9F04387B0FFF7F1FF07467B
:1064F400002840F0F5807B4DC5F81804BFF34F8F9A
:106504006868AC680DF1180848F8100D2040033095
:1065140005EB80004146FFF7F0FE029B064600288B
:106524005FD104EA0302991C013305EB8202234084
:1065340005EB8303D268DB68049302F00303022BA8
:106544000392029162D1BDF80E3067484FEA931866
:10655400B8F1500FC14628BF4FF0500969F38F13AB
:1065640009F10801ADF80E3000F079FD0746002866
:1065740000F0A48000F0A2FD334603A908223846A7
:1065840000F0AFFD029924EA01060136B600B145D8
:1065940035D95FFA89F97EB3F6B2A9EB0609214031
:1065A40003315FFA89F4B146504E05EB81010823AB
:1065B4004A46384600F095FD36B109F108032246F3
:1065C4003146384600F08DFD029B08F1030803EBC9
:1065D40098030293D5F81834002B4AD1D5F8104407
:1065E40058E02A689A4204D86A60384607B0BDE881
:1065F400F08304EA03008AE73C493446D7E72140A4
:10660400033108234A4605EB8101DAE7012B55D112
:10661400BDF80C303448C3F38311062928BF062182
:1066240061F3891302318900ADF80C3000F017FDD5
:106634000746002842D000F041FD3346082203A952
:10664400384600F04EFDBDF80C20C2F38312B31C93
:1066540096424FEA8303BDD202994A1C214003317A
:10666400029205EB81010422384600F03AFD01361E
:10667400E9E7384600F026FDFFF72AFF80F0010025
:10668400C7B2B2E7637A23B1236839461B68204650
:1066940098476468002CF5D1384600F013FD06A82D
:1066A40000F8114D00F0FAFBD5F818340BB9029B31
:1066B4006B609DF8070000F015FCDDE7D5F8104489
:1066C40044B90B4B0B491888000440F0020000F059
:1066D4006BF8D1E7236820469B6898476468EFE726
:1066E400002782E72C2E0020B4C90200382E002097
:1066F400FC29002090CA02002DE9F74F284C80465F
:106704000F46924601A9012218469B46D4F80890E8
:10671400FFF71CFE88B3019D0026A91C5E4506EB0D
:10672400010234D100211F4800F0F2FB80F3100075
:106734006A1C02EA090204EB8202000405EA090366
:10674400033340EA1840D06014F8232068F3C502EC
:1067540004F8232034F8232066F3891224F8232034
:1067640054F82320012167F39F2244F8232061F386
:1067740001026FF3820204F8232094F820341BB141
:10678400FFF7B0FE0028FBD103B0BDE8F08F09EAA3
:10679400020204EB82025AF82630D3600136BDE7C8
:1067A4002C2E00204832002000231A46FFF7A4BFF5
:1067B40013B502AC012344F8042D2246FFF79CFFD5
:1067C40002B010BD07B5CDE9002302236A46FFF7E6
:1067D40093FF03B05DF804FB084A38B50123D2F8EF
:1067E400104482F820341D4604B938BD236865720C
:1067F40020465B6898476468F6E700BF2C2E0020AB
:106804001FB50021039001AA44F20100CDE9011152
:1068140000F004F805B05DF804FB000010B572B692
:10682400FFF7DAFFFFF75EFE0028FBD1104C114999
:106834002088000440F00100FFF7B6FF0E4B1B68F0
:10684400DB0700D500BE20880C49000440F002009C
:10685400FFF7AAFFBFF34F8F09490A4BCA6802F436
:10686400E0621343CB60BFF34F8F00BFFDE700BF6F
:10687400FC290020B8CA0200F0ED00E0C4CA0200FE
:1068840000ED00E00400FA0510B58468C26883884E
:10689400121B934208D3C26813400268D154C368E0
:1068A4000133C360002010BD0420FCE78268C36884
:1068B4009A420AD08268838813400268D35C0B70C2
:1068C400836801338360002070470520704700000F
:1068D400094A537891780133DBB2994208BF002307
:1068E400117899421FBF03705078182303FB0020CE
:1068F40014BF0430002070475032002073B50546A1
:1069040002A8002400F8014D0E4600F0C7FA0DF16C
:106914000600FFF7DDFF90B106700A4B9DF80620D4
:1069240045605A709DF8070000F0DCFA24B9064B64
:106934004FF40012C3F80021204602B070BD0424B5
:10694400F0E700BF5032002000E100E0024B4FF4BA
:106954003C6043F001031847E0CA020038B50C4B11
:106964000C4C4FF40032C3F8802001254FF48033DF
:10697400C4F84833C4F808336560FFF7E7FF064BF3
:10698400A56000241C60FFF7E1FF044B1C7038BDB8
:1069940000E100E0001001406C3300205D33002072
:1069A400F8B51F4B1F491B680025C1F84051C1F8B9
:1069B4004451C1F84851C1F84C51C1F80051C1F8D3
:1069C40004514BB3D1F8044517490968641A24F0FB
:1069D4007F442F461A68A24209D8A41A15441A7C87
:1069E400DE691AB11F74D3E905209047AEB90F4B85
:1069F4000F4A197813788B4205D10133DBB2022B8D
:106A040008BF0023137012780A4B43F822500A4B34
:106A14004FF40012C3F80021F8BD3346DAE700BF93
:106A240070330020001001406C33002068330020D4
:106A3400693300206033002000E100E02DE9F74FC6
:106A44009E4A9F49137809789E4D99423CD0013360
:106A5400DBB2022B08BF002313709B4912789B4BB7
:106A64000F6853F822003B1823F07F4300220B6089
:106A74002B6816461446944613B942B12B6006E0BF
:106A8400196881420ED902B12B60091A19604FF0BE
:106A940001082B68DFF83CA200930027BEB9DFF899
:106AA4003CB260E0401A0C44D968C3F800C0D3F883
:106AB4001CE031B13A1922F07F42C3E90121DE61C1
:106AC4001E4601227346D7E70026B046E1E7344666
:106AD400F6697D4A63681268DFF804C2A068991AEF
:106AE40021F07F41614500F2A5800144216001222B
:106AF40022742A680023C4E90133E361002A40F0C8
:106B0400A2802C60CAE75A1C9BF80210D2B29142B0
:106B14008BF8002004BF00228BF80020182202FB0F
:106B240003B32A6819799C68022974D003297ED09A
:106B3400012918D1217CB1B9DA6862601A69A260AE
:106B44005A699B69A361624BE2601B78002BC0D039
:106B54006160BEE79C4200F093809946DB69002B9C
:106B6400F8D1002323749BF800309BF801209A424B
:106B7400C9D12B682FB9009A934202D1B8F1000F02
:106B840043D0002B79D0D3F800A0524D4E4BD5F80A
:106B940004751C68DFF84C813E1B98F8003026F021
:106BA4007F4603369BB94FF48033C5F84433C5F8A8
:106BB4000433494B4FF400324FF00109C3F88021EC
:106BC4001A60C5F80090FFF7C1FE88F80090B2453E
:106BD4002CBF5444A41924F07F44C5F84045D5F88B
:106BE4000435DB1B23F07F43E41B033324F07F4491
:106BF400A3420AD9D5F80435C5F84035FFF7A6FEF7
:106C0400354B4FF40032C3F80021314B00221A7087
:106C140003B0BDE8F08F13469146A0E71174D26922
:106C24000123002AFAD1002B9DD02A609BE7002380
:106C34001946F6E7D31A23F07F43834234BFC31ABD
:106C44000023236053E721681368994213D8591A23
:106C54001160E26155E7091AD8691A4638B103464A
:106C640018688842F7D3401A186018461346216002
:106C7400E061DC6112E71346F2E7FFF76FFEC4E759
:106C84004C450DD1D3692B6053B90F4801920121B2
:106C9400CAF8081003600E4B1970FFF757FE019AEB
:106CA400E1692368C9F81C1011B1086803440B603A
:106CB4002B689A4218BF012753E700BF68330020AE
:106CC40069330020703300206C33002060330020CF
:106CD4005C3300200010014000E100E0503200204D
:106CE400FEFF7F005D33002010B5FFF737FE104B29
:106CF40000200B2218809A700E4B18600E4B1870EF
:106D04000E4B18700E4B4FF40012E021C3F8802193
:106D140083F815131A600B4A40F6FF74C2F808454D
:106D240083F81113084BD2F804251A6010BD00BF74
:106D34005032002070330020683300206933002073
:106D440000E100E0001001406C330020074B9B7809
:106D54004BB132B128B10368187C20B959745A6117
:106D64007047072070470820704700BF503200204A
:106D74002DE9F7431D4FBB7805460E4690469BB35D
:106D840090B304292ED9436973B3437C02A8002429
:106D9400012B00F8014D0CBF8946A14600F07EF896
:106DA4000DF10600FFF794FDD0B101230370104BE1
:106DB4004560D3F80435C0E90498C0E902369DF86B
:106DC40006307B709DF8070000F08CF824B9094B5D
:106DD4004FF40012C3F80021204603B0BDE8F0834D
:106DE4000424EFE70724F7E70824F5E750320020EE
:106DF4000010014000E100E0064A92783AB130B157
:106E0400426922B1002202740221FFF777BD0820F3
:106E1400704700BF50320020014BD3F8040570477F
:106E2400001001400648074A03780749D35C012251
:106E340013B1043001F02CBE0C3001F05DBB00BF77
:106E44002C2A0020C03300208433002010B50146D2
:106E54000E48FFF719FD0446A8B90D480D4A0378FA
:106E6400D35C63B1043001F057FE60B90A490748A6
:106E7400FFF71CFD38B9BDE81040FFF7D3BF0C3055
:106E840001F084FBF1E7204610BD00BF74330020FD
:106E94002C2A0020C03300208433002070B5EFF387
:106EA400108672B60C4A946801239CB993600B4B0C
:106EB4000B4DD3F8801029401160C3F88050D3F8EB
:106EC400841051604FF0FF32C3F88420047006B977
:106ED40062B670BD0370FAE78833002000E100E079
:106EE400FC06FFBD084B9A6810B55AB150B9EFF3D0
:106EF400108272B605491C680C605C684C6098602E
:106F040002B962B610BD00BF8833002000E100E082
:106F140050E8002F0B4640E8003C9CF0000FF7D1EE
:106F24001046704750E8003F43EA010240E8002C55
:106F34009CF0000FF6D11046704750E8002F02EA8B
:106F4400010340E8003C9CF0000FF6D11046704766
:106F540050E8003F03EB010240E8002C9CF0000FD6
:106F6400F6D11046704750E8003FA3EB010240E819
:106F7400002C9CF0000FF6D1104670470121FFF75A
:106F8400D1BF0021FFF7D9BF10B590B1D0E90123DB
:106F940001689B1ADBB20A60013BDBB2FF2B02687B
:106FA40002D10020107110BD11684C1C14600B70CC
:106FB400F2E70E20F7E737B5054602A8002400F8EB
:106FC400014DFFF76BFF2A686B68116899420ED96F
:106FD400481E106011F8014CEB68A98A01FB0434C7
:106FE400AB6811791B1ADBB2994238BF13719DF853
:106FF4000700FFF777FF204603B030BD37B50546DD
:1070040002A8002300F8013D0C46FFF747FF2A6859
:107014001368591C1160E968641AA98AB4FBF1F475
:107024001C709DF80700FFF75DFF03B030BDFFF74C
:10703400ABBFF8B546790146721E0546002393425C
:107044002D6803D30024A64202D8F8BD0133F6E725
:107054000F682846FFF7D2FF01343946F3E72DE9DC
:10706400F843868ACD1C0746FFF7A5FF043E354446
:107074000446B5FBF6F5F0B14FF48073EDB28380AE
:10708400C680013D076081464FF00008A84512D232
:107094003846FFF790FF064648B1637901336371C0
:1070A40008F10108C9F8000007608146EEE72046B0
:1070B400FFF7BFFF34462046BDE8F88301210430C2
:1070C400FFF746BF10B5012104460430FFF74BFF1C
:1070D40010F0FF0F04D12046BDE81040FFF7A9BF10
:1070E40010BD2DE9F843C7880546181D8846B0FB36
:1070F400F7F4164607FB14003CB9A7EB0009B145A9
:1071040028BFB14626B9BDE8F8832D68013CF3E7F2
:107114000430A6EB09064A4608EB0401284404F0AF
:10712400AAFFB7424C442D68B9464FF0000028BF6F
:10713400B146E7E741DF7047064B10B500241C70E9
:10714400054B1C60BFF35F8F0449054800F030F81D
:10715400204610BD9C330020A0330020E8CA020062
:107164009433002007B502A8002300F8013DFFF77F
:1071740095FEF1EE103A23F09F03E1EE103ABFF3CF
:107184005F8F0A4B4022C3F884219DF80700FFF764
:10719400A9FE03F021FB20B1FFF7CCFF03B05DF89B
:1071A40004FB20BF40BF20BFF8E700BF00E100E0C0
:1071B4000B684A684360934208BF0023016008BF1C
:1071C40043607047436843B10268916852680B4456
:1071D4009342436004BF0023436070470D4930B5B8
:1071E400A1F594720225914201D800200EE08B1A79
:1071F400DB1093FBF5F302EBC30452F83330834204
:1072040005D802D204F10802EDE7606830BD2146DA
:10721400E9E700BF38CC020008B5FFF7DFFF024BF7
:10722400002808BF184608BDFDCA020043691B6850
:10723400DB6803B1184770470123037070470000EF
:1072440010B4074C0378E35C23B104305DF8044BBD
:1072540001F01EBC0C305DF8044B01F04DB900BFC9
:10726400C033002010B4074C0378E35C23B104302E
:107274005DF8044B01F05CBC0C305DF8044B01F08C
:1072840091B900BFC033002008B50121FFF740FECB
:10729400BFF35F8FB0FA80F0400908BD0378044A59
:1072A400D35C13B1043001F037BC0C3001F06EB97B
:1072B400C033002003681A7812B11B6903B1184760
:1072C400704770B50578012D06460C4603D023D3CC
:1072D400022D1FD070BD4B69027A1B6841685B6840
:1072E400186802F069F8337A984205D203212046DF
:1072F400BDE87040FFF79ABF29462046FFF796FF86
:1073040063691B689B6820465A7A5968BDE87040D7
:10731400FFF7A8BF2946EAE74B691B685A689D68CE
:10732400566800212046FFF781FF2A7A29683046F3
:1073340001F0B3FF0028CDD0C2B229682046BDE8D1
:107344007040FFF77DBF00002DE9704304464FF401
:10735400FA184FF400404FF00009E0FB018916468B
:1073640000234FF47A124046494604F039FC0428BD
:10737400054604D8012333700020BDE87083074A12
:1073840000212046FFF7E2FC0028F6D132462946C8
:107394002068BDE87043FFF7EBBC00BF3D720200FC
:1073A40043691B682DE9F047064618780F461446D2
:1073B40018BBFF2A28BFFF24DFF84C90254627443A
:1073C40006F10C0A337819F80330A7EB050883B1EA
:1073D400301D01F019FC00B115B9601BBDE8F08740
:1073E400012241463046FFF73DFF0028F5D1013D1B
:1073F400E8E7504601F04CF9EDE75B68BDE8F0477B
:10740400186801F04ABF00BFC033002070B543695B
:107414001B6888B004461646002B58D120226846C3
:1074240004F029FE33780494991E4A424A41002B01
:107434008DF81D206946274A204608BF002200F027
:107444006BFC054620BB63691E60736843B15868D2
:1074540001F040FF63691B685B68186801F03AFF3C
:10746400626900239360BFF35F8F62695360BFF367
:107474005F8F636903221A73009A013204BF0122E9
:107484001A73019A013206D11A7B22F001021A738F
:10749400284608B070BD1B681B78022B09D16369AC
:1074A4001B689B6820465A7A5968FFF7DBFE05463D
:1074B400EEE72378084AD35C1BB904F10C0001F011
:1074C400EFF863691B681B78002BE8D1E0E785259A
:1074D400DEE700BFC7720200C033002010B50446C7
:1074E4004069036873B30430FFF7CEFE40B16069AE
:1074F4000830FFF7C9FE28B96369BFF35F8F58608E
:10750400112019E02378104AD35CB3B1201D01F097
:107514005BFA63691B685B6843B1586801F0DAFE83
:1075240063691B685B68186801F0D4FE10220021AF
:10753400606904F0C9FD002010BD04F10C0000F0E6
:1075440077FFE6E78020F7E7C03300202DE9F04F0E
:107554000446406985B099460368DDF838800F46D3
:107564001646002B76D0027B920775D5002E53D099
:1075740001F06042B2F1005F02D01B78022B6DD0A3
:107584000430FFF781FE00286AD00025B8F1FF3FE0
:107594008DF80C500CD003AA4146A069FFF7D4FE25
:1075A40030B16369BFF35F8F5D6005B0BDE8F08FF4
:1075B400354663691A68137883BBFF2DAA4628BF32
:1075C4004FF0FF0A5FFA8AF239462046FFF738FE89
:1075D400B5EB0A05574406D06069FFF76BFE9DF8CA
:1075E4000C30002BE5D0B9F1000F02D0761BC9F89E
:1075F40000609DF80C3033B9B8F1FF3F03D0A369A4
:107604001868FFF7F9FB6369BFF35F8F00225A60C4
:1076140015B19DF80C302BBB0020C6E75368D2F897
:1076240008B05B68019318462A46394601F0C4FE47
:1076340082462046FFF732FE019B0028C8D19BF802
:107644000820DBF80010184601F027FEDBF80010D4
:10765400C2B2BAE78020A8E70820A6E71020A4E772
:107664001120A2E70D20A0E72DE9F7430446406965
:107674000A9F9946036888461646002B56D0037B1A
:10768400DA0755D5002E39D00830FFF7FDFD002864
:1076940050D000257B1C8DF8045031D135462A4644
:1076A40041462046FFF77CFE2D1A80440ED09DF8FB
:1076B40004306069002B36D003681B7833B123781B
:1076C4001E4AD35C53B3201D01F0BEFAB9F1000F7A
:1076D40002D0761BC9F800609DF804302BB901373D
:1076E40003D0E3691868FFF787FB6369BFF35F8F13
:1076F40000229A6015B19DF80430EBB900200AE02D
:1077040001AA3946E069FFF71FFE0028C6D0636965
:10771400BFF35F8F9D6003B0BDE8F08304F10C00FC
:1077240000F0F2FFD2E7FFF7C5FDB8E78020F2E7EB
:107734000820F0E71120EEE70D20ECE7C03300202D
:1077440010B5044640690368FBB1037B9B071ED553
:107754000430FFF799FDE0B123780F4AD35C7BB185
:10776400201D01F059FA63691B685B68586808B109
:1077740001F0B0FD6369BFF35F8F0020586010BD56
:1077840004F10C0000F0A2FFEDE78020F7E70820E9
:10779400F5E71120F3E700BFC0330020BFF34F8F9C
:1077A4000549064BCA6802F4E0621343CB60BFF399
:1077B4004F8F00BFFDE700BF00ED00E00400FA05B5
:1077C4000C4B1B78062B10D10B4B1B681A070CD1E2
:1077D4000A4B186800F0F003302B08D000F0E000EA
:1077E400A0F14003584258417047002070470120DF
:1077F400704700BFE00F00F0E40F00F0E80F00F066
:10780400094B1B78062B0CD1084B1B681A0708D1AF
:10781400074B186800F0F000A0F1300358425841BB
:1078240070470020704700BFE00F00F0E40F00F045
:10783400E80F00F008B5FFF7C3FF28B1894B8A4A67
:107844001B68C3F304231360FFF7DAFF10B1874BFF
:10785400874A1A60FFF7B4FF28B1864B864A1B6833
:10786400C3F342331360FFF7CBFF20B1834AD368DD
:1078740023F08073D360FFF7A3FF40B14FF0804340
:107884000022C3F80C21C3F81021C3F83825FFF7F0
:10789400B7FF10B17A4B03221A60FFF7B1FF40B172
:1078A400784B05221A6001229A6700229A603F22CF
:1078B4005A60754B1B78062B50D1744B1B68180704
:1078C4004CD1734B1B6803F0F003502B46D14FF09F
:1078D4008052704BD2F80414C3F82015D2F808145F
:1078E400C3F82415D2F80C14C3F82815D2F81014D0
:1078F400C3F82C15D2F81414C3F83015D2F81814A0
:10790400C3F83415D2F81C14C3F84015D2F8201467
:10791400C3F84415D2F82414C3F84815D2F828142F
:10792400C3F84C15D2F82C14C3F85015D2F83014FF
:10793400C3F85415D2F83414C3F86015D2F83814C7
:10794400C3F86415D2F83C14C3F86815D2F840148F
:10795400C3F86C15D2F84424C3F87025FFF730FF40
:1079640028B14D4B4D4A1B6803F04F031360FFF7DA
:1079740027FF48B14FF08043D3F80024D10744BF18
:107984006FF00102C3F80024454B1B68062B08D195
:10799400444B1B68062B01BF434A136843F48063BE
:1079A4001360424AD2F8883043F47003C2F8883036
:1079B400BFF34F8FBFF36F8F4FF01023D3F80C2218
:1079C400D2071ED53A4B0122C3F80425D3F800246C
:1079D400002AFBD04FF01022D2F80C3223F001031E
:1079E400C2F80C32324B1A46D3F800140029FBD0EB
:1079F4000021C3F80415D2F80034002BFBD0FFF7A4
:107A0400CDFED3F80022002A03DBD3F80432002B86
:107A140023DA274B0122C3F80425D3F80024002AD3
:107A2400FBD04FF010221521C2F80012D3F8002425
:107A3400002AFBD04FF010231522C3F804221C4B5C
:107A44001A46D3F800140029FBD00021C3F804150A
:107A5400D2F80034002BFBD0D1E7164B164A1A603B
:107A640008BD00BF240300104035014074C0074026
:107A74000DF0ADBA440200103C050040F0ED00E00A
:107A8400A005004010560040E00F00F0E40F00F0A5
:107A9400E80F00F000C0004058020010E40E00405F
:107AA40030010010340100103C17004000ED00E0EC
:107AB40000E00140402A00200090D0034FF0A04392
:107AC400D3F804056FEA901000F0010070474FF0FE
:107AD400A0434022C3F80C2570474FF0A043402236
:107AE400C3F8082570474FF0A0434022C3F8082587
:107AF40070474FF0A0434022C3F80C2570474FF065
:107B0400A042D2F80435D94301F0400103F0400308
:107B1400C2F80815C2F80C357047C30706D54FF0F4
:107B2400A0430322C3F81827FFF7DDBF7047000006
:107B340038B5084C04F108030546002818BF1C4654
:107B440023682BB11A6822605B6828469847F7E7D8
:107B540038BD00BFAC33002020B9054B01225A7058
:107B6400FFF7E6BF012802D1014A9070F8E7704799
:107B7400A433002020B9034B01225A70FFF7D8BF69
:107B8400704700BFA433002038B50B4C237883B969
:107B94000A486360A3602361E36000F005F90546C9
:107BA40002F01AFE08B900F00DF9012323702846EB
:107BB40038BD8525FBE700BFA43300205D7B0200B0
:107BC40037B5184CA378054603F0FF029BB110B1FA
:107BD40043680120984700230DF107008DF8073012
:107BE400FFF75CF9E3689DF807000133E360FFF7F2
:107BF40079F903B030BD0DF107008DF80720FFF7C8
:107C04004DF925B1226913463BB92A602561E36821
:107C1400002BE7D100F0EEF8E4E79D42F7D01B68B3
:107C2400F2E700BFA433002037B502A80023094CB3
:107C340000F8013DFFF732F9E368013BE360E568D2
:107C440015B900F0FDF8A5709DF80700FFF74AF993
:107C540003B030BDA4330020012813B509D003D3E9
:107C640003281BD002B010BD0F4B0122C3F88020A3
:107C7400F8E702A800230D4C00F8013DFFF70EF9C8
:107C840023780BB9FFF780FFE3689DF80700013301
:107C9400E3600123A370FFF725F9E3E700F092F80E
:107CA400FFF7C2FFDEE700BF00E100E0A4330020DD
:107CB4001FB503788DF8003043680193037A8DF87B
:107CC4000830C3680393054A054B684653F82130CE
:107CD40052F82110984705B05DF804FBB833002032
:107CE400BC3300201FB503788DF80030436801933E
:107CF40083688DF80830C3680393054A054B6846CA
:107D040053F8213052F82110984705B05DF804FB70
:107D1400B8330020BC330020F0B5194B067891F835
:107D24001DE043F82620174B94460A6943F82620A1
:107D3400154B03F806E00C4607460FCC89B06D4698
:107D44000FC594E80F0085E80F000496BEF1000FFC
:107D54000AD0BCF1000F0D4A694608BF0022381D45
:107D640000F06AFD09B0F0BDBCF1000F084A694695
:107D740008BF002207F10C0000F09AFAF2E700BFF6
:107D8400BC330020B8330020C0330020B57C02008F
:107D9400E97C020000F18040002382B003600368A4
:107DA4000193019B02B07047054A13792BB9012155
:107DB400106011715371184670478520704700BFD9
:107DC400C4330020094B1A68D20706D4E02283F892
:107DD40000230122C3F880211A604FF0804201235E
:107DE400C2F81835024A1370704700BF00E100E082
:107DF400CC33002038B54FF48270FFF7CBFF4FF03F
:107E040080430222C3F804230A4AD06840F08073F6
:107E1400D360094B1C6844F0010119605D6859681E
:107E2400491BB1F50A5FFAD31C60044BD0600122F0
:107E34001A6038BDF0ED00E0001000E008000040DA
:107E4400044B01221A604FF08042D2F81834DB034D
:107E5400FBD470470C000040124B1B6810B573B183
:107E64004FF48070FFF796FF4FF080430122C3F870
:107E740008230D4B587910B95A711B6898470B4B5E
:107E84001B6873B14FF48270FFF784FF4FF0804397
:107E94000222C3F80823044B01201B68BDE81040EC
:107EA400184710BD00010040C43300200401004005
:107EB40000F1804000F5C040002382B003600368F5
:107EC4000193019B02B07047800000F1A040D0F8FC
:107ED400003723F44033C0F80037D0F8003743EAC2
:107EE4000141C0F8001770472DE9FF470024584AA4
:107EF400584E594D019401211368A2F5C040012B3D
:107F040080B206D1D6F804330B4202D0FFF7D0FF7B
:107F14000C430432AA424FEA4101EDD14F4B1B6896
:107F2400012B0AD14FF4BE70FFF7C2FF4FF0A043FC
:107F340044F00044D3F81035019314F0FF0F1AD025
:107F4400474F00250126344210D0AB0003F1804393
:107F540003F5C043D3F81005D3F8101557F82530AE
:107F6400C0F30420C1F3014103B198470135082D42
:107F74004FEA4606E7D1002C66DA00224FF0FF33C1
:107F8400CDE90223DFF8D8900127002634464FF0CC
:107F9400A04809EB060393F95020531C45D0D2B2F4
:107FA40022F0C005E90804A8084402F0070310F809
:107FB40004CC07FA03F31CEA030F36D009EB050CD3
:107FC40092099CF930C059F82CA0BAF1000F0AD1DB
:107FD400032A2AD10DF1080E1EF801C04CEA030C45
:107FE4000EF801C001E0032AF4D005F5E07110F8A1
:107FF4000C0C58F821101842C1F3014105D0022994
:1080040013D1032A0BD1114604E003290DD1032A0D
:1080140005D102212846FFF757FF0134E4B2BAF133
:10802400000F02D011462846D0470136042EB0D1A5
:1080340054B14FF0A043019AD3F81035934203D0C2
:108044000193029B0393A0E704B0BDE8F08700BF4F
:108054000061004000600040206100407C610040FD
:10806400D033002008B501F0A7F8BDE80840FFF7B9
:10807400F3BE0000014B1B68184700BF2C340020DE
:108084000D4B984237B50D4610D102A8002300F8D5
:10809400013DFEF703FF094B1C7914B901221D6051
:1080A4001A719DF80700FEF71DFF14B9002003B0F4
:1080B40030BD1120FBE700BF002000402C3400201D
:1080C400034B984201BF034B00221A601A71704798
:1080D400002000402C3400200023435082B0435839
:1080E4000193019B02B070470A4610B54FF48E719C
:1080F400FFF7F2FF136A9168C95C136A01331362D4
:10810400C0F81C1510BD024608B54FF49271006802
:10811400FFF7E2FF4FF484711068FFF7DDFF136887
:1081240001221A6008BD8B690A4610B54FF48471A8
:1081340023B9FFF7D1FFD0F8183510BDFFF7CCFFF6
:10814400536AD168D0F81805C854536A013353628E
:10815400F3E700001FB501238DF80030044BCDE98F
:108164000110D3E900126846904705B05DF804FB9E
:108174003434002030B54C4AD2F8043313F4007F71
:1081840085B015464FD0D2F82431002B4BD04FF494
:1081940092711046FFF7A0FF4FF40173C2F8083341
:1081A400424B93F8291009B9012151603E4902223A
:1081B4008DF80020D1F88024C1F8802403929A69B4
:1081C4000292DA6801920022C3E906226846D3E9E2
:1081D400001290473448D0F81C315BB133490A6A25
:1081E4004B699A420A464BD291F82830002B47D16A
:1081F400FFF77AFF2C4AD2F8443193B14FF4A271BD
:108204001046FFF769FF294B93F8291009B10121A2
:1082140011609A692AB100229A61586AD968FFF7F5
:1082240099FF05B030BDD5F804335B07D2D5D5F836
:108234000831002BCED01D4C1B482146FFF773FF9D
:10824400636AA2699A422346C4D1E269E1684AB1E9
:108254002369E3600023606AA261E3616362FFF75C
:1082640079FFB7E794F829200AB901226A600E4A17
:108274004FF40170C2F8080300229A61586AEEE7CD
:108284004FF48E710848FFF727FF51690029B1D0D8
:108294000023029191688DF8003001915361684682
:1082A400D2E900139847A5E70020004034340020A9
:1082B4002DE9F8435A4B047991462C2202FB0432EF
:1082C400064692F82A200D469846002A40F0A380DC
:1082D40054490068FFF7D4FE0746002840F09D800B
:1082E40029683368481C0BD04FF0A04001228A4013
:1082F400C0F8082501F5E0724FF0030C40F822C0E5
:108304006868421C1FBF00F5E0724FF0A04C4FF0AC
:10831400000E4CF822E0AA6995F814C0C3F824258D
:108324006A7DBCF1010F4CEA0202C3F86C25C3F864
:108334001405C3F80C151DD1AA68511C1FBF02F502
:10834400E0714FF0A0404FF0000C40F821C0E96804
:10835400481C0BD04FF0A04C01208840CCF80805F5
:1083640001F5E0704FF0030E4CF820E0C3F8081557
:10837400C3F810252C23634308EB0302C2F80490CE
:108384002A6948F80320B9F1000F31D04FF48E71F7
:1083940030682D7FFFF7A0FE30684FF4A271FFF71D
:1083A4009BFE3268204BC2F80433120B53B2002BED
:1083B400A8BF03F160404FEA53134FEA4511BABF17
:1083C4001A4802F00F0500F561404FEA8303C9B271
:1083D40003F16043B4BF415580F8001303F56143D2
:1083E40002F01F02012101FA02F2C3F880211A608F
:1083F40033680422C3F800252C2303FB04830022E2
:10840400C3E9062283F829205A61012283F82A202D
:108414003846BDE8F8830827FAE71127F8E700BFD4
:1084240034340020798102008000020014ED00E061
:10843400F8B5047900682D4D0023C0F800352C23CD
:1084440003FB04535B6873B1294BC0F80833020B78
:1084540053B201215B0902F01F0201FA02F2203338
:10846400244941F82320D0F80C65D0F81415D0F82D
:108474000835D0F810254FF0FF37BE42C0F8147508
:1084840018BF06F5E076C0F80C75C0F80875C0F89A
:1084940010751EBF4FF0A0474FF0020C47F826C0DE
:1084A4004E1C1FBF4FF0A04601F5E071022746F8AD
:1084B4002170511C1FBF4FF0A04102F5E07202264B
:1084C40041F822605A1C1FBF03F5E0734FF0A0422D
:1084D400022142F82310FFF7F3FD2C2303FB04547D
:1084E400002384F82A306360F8BD00BF34340020D0
:1084F4008402020000E100E02DE9F843224F0679EE
:108504004FF02C0909FB067480466569002D37D1AC
:108514006261A16025624FF48E71006884F828506E
:10852400FFF7DAFDD8F80000012383602146FFF746
:10853400DBFD6368A1462BBBD8F80050226A63694F
:108544009A4212D3D8F80030D3F81C21002AFBD069
:108554000122DA6000202C2303FB067600237361DA
:10856400BDE8F88394F8283043B9D5F81C31002BC2
:10857400F8D049462846FFF7B7FDDFE70F20EAE7C2
:108584001120EDE72846EBE7343400200379044A50
:108594002C2101FB03235869003018BF01207047C8
:1085A400343400202DE9F843384E05792C2303FB9D
:1085B400056307465C6824B103684FF40170C3F88F
:1085C40008032C2303FB0563986950B1D86900287C
:1085D4003ED024B13B684FF40172C3F80423112048
:1085E40034E09A61D9605862D8612C2303FB056397
:1085F40093F829301BB910B93846FFF784FD4FF0C2
:108604002C0909FB05683868D8F80430002B34D1EC
:108614004FF4A271FFF760FDC1463868D0F82431E9
:10862400D0F80821D0F84441B2B90CB9002BF4D0E9
:108634002C2202FB05650022AA611BBB24BB95F812
:1086440029103B680122B1B11A600020BDE8F8830B
:108654001961DA610120C8E7002BE9D1002CE7D1C8
:108664004946FFF760FDD8F82430D8F818209A421C
:10867400D3D82346DCE75A60E7E74FF40173C0F828
:108684000433E2E70320E1E70F20DFE7343400207E
:108694000368D3F80801003018BF012070470000B8
:1086A40070B50279084C2C2505FB0242064692F867
:1086B40029303BB9FFF727FD337905FB034301223A
:1086C40083F8292070BD00BF3434002030B503790D
:1086D4000C4900682C225A438B18012483F8284043
:1086E400C4605C6885B054B11D6A029500209D6821
:1086F4008DF800005861019589586846A04705B077
:1087040030BD00BF3434002003684FF40172C3F855
:10871400082301225A6070470023435082B0435813
:108724000193019B02B070471FB501238DF80030FF
:10873400054B8DF8080001916846D3E90012904773
:1087440005B05DF804FB00BF603400207FB5384AF3
:10875400D2F82461002E49D010464FF49271FFF7ED
:10876400DBFF02238DF80030D2F88034C2F8803465
:108774000393D2F83C358DF808302E4BDA68019219
:108784000022C3E906226846D3E900129047284A2A
:10879400D2F8443173B14FF4A2711046FFF7BCFF15
:1087A400244B996931B100219961D2F83C05D9680B
:1087B400FFF7BAFF1E4AD2F82031ABB14FF49071E3
:1087C4001046FFF7A9FF1B4B596969B1D2F84C1544
:1087D4008DF80810002299688DF8002001915A61E3
:1087E4006846D3E90012904704B070BDD2F8103146
:1087F400002BCCD04FF488711046FFF78DFF0D4B42
:10880400D2F83C0599698842C1D1DC69D96864B160
:10881400D2F8005225F02005C2F800521A699C6172
:10882400DA60DE61FFF780FFB1E79C61FAE700BF21
:1088340000200040603400202DE9F8435E4B0679A7
:108844009146242202FB0632044692F820200D466B
:108854009846002A40F0AB8058490068FFF710FCA6
:108864000746002840F0A58029682368481C0BD0DF
:108874004FF0A04001228A40C0F8082501F5E072BB
:108884004FF0030C40F822C06868421C1FBF00F57B
:10889400E0724FF0A04C4FF0000E4CF822E0AA69B1
:1088A40095F814C0C3F824256A7DBCF1010F4CEA85
:1088B4000202C3F86C25C3F80C15C3F814051DD1C6
:1088C400AA68511C1FBF02F5E0714FF0A0404FF0A1
:1088D400000C40F821C0E968481C0BD04FF0A04CB4
:1088E40001208840CCF8080501F5E0704FF0030E34
:1088F4004CF820E0C3F80815C3F81025242373436B
:1089040008EB0302C2F804902A6948F80320B9F17D
:10891400000F3BD04FF4887120682D7FFFF7FCFED9
:108924004FF490712068FFF7F7FE4FF492712068BE
:10893400FFF7F2FE20684FF4A271FFF7EDFE226804
:108944001F4BC2F80433120B53B2002BA8BF03F120
:1089540060404FEA53134FEA4511BABF194802F079
:108964000F0500F561404FEA8303C9B203F1604388
:10897400B4BF415580F8001303F5614302F01F02B0
:10898400012101FA02F2C3F880211A602368082247
:10899400C3F80025242303FB06830022C3E906222F
:1089A4005A61012283F820203846BDE8F88308275D
:1089B400FAE71127F8E700BF60340020518702006E
:1089C4001003020014ED00E0F8B5047900682D4DA1
:1089D4000023C0F80035242303FB04535B6873B100
:1089E400294BC0F80833020B53B201215B0902F092
:1089F4001F0201FA02F22033244941F82320D0F85F
:108A04000C65D0F81415D0F80835D0F810254FF0BF
:108A1400FF37BE42C0F80C7518BF06F5E076C0F803
:108A24001475C0F80875C0F810751EBF4FF0A04744
:108A34004FF0020C47F826C04E1C1FBF4FF0A04653
:108A440001F5E071022746F82170511C1FBF4FF059
:108A5400A04102F5E072022641F822605A1C1FBFB1
:108A640003F5E0734FF0A042022142F82310FFF710
:108A740027FB242303FB0454002384F82030636081
:108A8400F8BD00BF603400201003020000E100E0E4
:108A940001F06043B3F1005F2DE9F041074632D1A4
:108AA4001C4B0679242505FB063598466C6964BB86
:108AB4006A61A96000684FF49071FFF72DFE4FF4CE
:108AC400AC713868FFF728FE3B686A69A968C3F887
:108AD4004415C3F8482501229A606A68BAB9D3F8E4
:108AE4002011D3F8582149B9002AF8D00F202423A3
:108AF40003FB068600237361BDE8F081002A14BFDE
:108B04000F200020F3E71020F6E71120F4E72046B9
:108B1400F2E700BF603400200379044A242101FBFA
:108B240003235869003018BF0120704760340020C7
:108B3400F8B501F06043B3F1005F04460F465ED11F
:108B44000379304D242101FB0351486820B1216889
:108B54004FF40476C1F80863242101FB03539E6992
:108B640056B1D969002939D020B123684FF4047271
:108B7400C3F80423112030E09A61DF60DE614FF412
:108B840088712068FFF7C8FD4FF4A2712068FFF7D1
:108B9400C3FD2368C3F83475C3F8382516BB012216
:108BA4001A602279242101FB0251496809BBD3F8D8
:108BB4001041D3F84411D3F8240114B909B9002899
:108BC400F5D0242303FB02550023984214BF03204D
:108BD40018469942AB6118BF0F20F8BD1F61DA61D6
:108BE4000126CCE7D3F8002242F02002C3F8002289
:108BF400D7E74FF40472C3F804230020EDE71020F4
:108C0400EBE700BF603400200368D3F810010030A4
:108C140018BF01207047000010B5044602790068AF
:108C24004FF4AC71FFF778FD23680121D960054941
:108C3400242000FB0212526812B9D3F85821FBE732
:108C440010BD00BF60340020036801225A607047E1
:108C54002DE9F743002406460F4600F5A0754FF4AE
:108C64008038A14604F150002B68800080B26BB1BB
:108C7400D6F8043308FA04F21A4207D0C5F8009073
:108C84002B680193019BD7E9003198470134042CE8
:108C940005F10405E6D103B0BDE8F08301490248BB
:108CA400FFF7D6BF84340020008000400149024809
:108CB400FFF7CEBF9034002000900040114BD3F852
:108CC400183182B0E3B1104B00221A601B68019383
:108CD400019B0E4BD97FFF2907D0987F01228A4040
:108CE4004FF0A04148B1C1F80C2500225A771A72FE
:108CF400D3E90021064802B01047C1F80825F4E77B
:108D040002B0704700300040183100409C3400200D
:108D1400A43400202DE9F74F9B4603796F4E00934E
:108D24004FF0240909FB03F906EB090A07469AF8F0
:108D34001C300C469046002B40F0CC8005686849F6
:108D44002846FFF79DF9002840F0C68046F80980C0
:108D5400CAF804B094F800E094F80CC04FF0A042B4
:108D6400012303FA0EF3BCF1010F94BFC2F80C35D2
:108D7400C2F808350EF5E073012142F82310637838
:108D8400FF2B1FBF9940C2F80C1503F5E0714FF09B
:108D9400030918BF42F82190A27808BF4FF0FF33AF
:108DA400FF2A1FBF02F5E0714FF0A0494FF0040AFB
:108DB40049F821A0397901914FF0240909FB016692
:108DC40018BF934686F82020E27808BF4FF0FF3B97
:108DD400FF2A1AD094F804904FF0010A0AFA02FA12
:108DE4004FF0A046B9F1000F6BD0C6F80CA502F500
:108DF400E07A032146F82A10384E01994FF0240AEC
:108E04000AFB0161CA7781F81E90C5F808E5C5F828
:108E14000C35A368C5F810B5C5F82435637B003359
:108E240018BF0123BCF1020F4ED0BCF1030F4ED08A
:108E3400BCF1010F01D143F00203C5F85435A37905
:108E4400C5F8C035B8F1000F02D04023C5F804338B
:108E54000723C5F80035B8F1000F26D03A686179C8
:108E6400120B53B2002BA8BF03F16044D2B24FEAF5
:108E74005313B8BF02F00F054FEA4111B4BF194CA8
:108E840004F561444FEA8303C9B203F16043B4BFFC
:108E9400615584F8001303F5614302F01F020121B8
:108EA40001FA02F2C3F880211A600C4B00992422C3
:108EB40002FB013300225A7701221A7703B0BDE87E
:108EC400F08FC6F808A592E743F00403B5E743F032
:108ED4000603B2E70820F1E71120EFE79C340020F5
:108EE400C18C020014ED00E02DE9F3410579474EF1
:108EF40024236B431446F2180F46517F8046002901
:108F040040F08180F35823B114F0140F04BF0123FF
:108F1400537797E80F004FF0240C0CFB056C0CF111
:108F24000C0E8EE80F009CF81F20FF2A08D09CF836
:108F34001E10012393404FF0A042C1B1C2F808357E
:108F4400396821B101F06043B3F1005F06D1BA681A
:108F540082B102F06043B3F1005F0BD0242303FB22
:108F6400056500236B77102002B0BDE8F081C2F8DC
:108F74000C35E5E7D8F800307868C3F84415C3F831
:108F84004805F968C3F834250022C3F83815C3F836
:108F94001821D3F818210192019A14F0010218BF84
:108FA4000122C3F8502514F0020218BF0122C3F8AD
:108FB400402522075CBF01221A6124226A43B25869
:108FC400B2B9D3F81821002AFBD0242303FB05658A
:108FD400EA7FFF2A07D0A87F012393404FF0A042E5
:108FE40018B1C2F80C350020BEE7C2F80835BBE75B
:108FF40014F004004FF0400202D0C3F80823F2E753
:10900400C3F80423B0E71120AEE700BF9C3400206E
:109014007FB503788DF804304368029383688DF834
:109024000C30C368049303698DF81430054A064B69
:1090340001A853F8213052F82110984707B05DF881
:1090440004FB00BFC0340020CC340020F0B5064639
:10905400944616F8047B194A42F827C0184A42F885
:109064002730184B0C460FCB85B06D4685E80F00B2
:1090740023788DF8003063788DF80130A3788DF86B
:109084000230E3788DF8033023798DF80530637965
:109094008DF80630A3680293237B8DF80C30BCF165
:1090A400000F637B8DF80D30074A3B4608BF002252
:1090B40029463046FFF72EFE05B0F0BDCC34002023
:1090C400C034002020D002001590020036DF704723
:1090D400012810B504D100F049F8BDE8104000475C
:1090E40010BD0000012813B5044603D0032812D094
:1090F40002B010BD02A8002300F8013DFDF7CEFE2A
:1091040000F034F810B12046FFF7E0FF9DF80700A7
:10911400FDF7E8FEECE7094BE02283F80023012287
:10912400C3F880211A6000F021F80028E0D04FF045
:1091340080430422C3F80423DAE700BF00E100E01F
:1091440010B5044601F048FB50B90648002C18BF7E
:10915400204600F011F810B9034B01221A7010BD1B
:109164000820FCE730D00200D8340020014B1868F6
:10917400704700BFDC3400200D4B1A78AAB902787E
:109184004FF0804102F00102C1F87825094A1168C4
:10919400C90706D4E02182F800130121C2F8801126
:1091A400116001221A70002070478520704700BFAB
:1091B400E434002000E100E04FF0804310B5D3F820
:1091C4000443610709D5D3F8082103F5847322B158
:1091D40000221A600D4B1B689847A20607D50C4B5A
:1091E4001A6822B1002018600A4B1B68984763066E
:1091F4000AD5094B1A683AB100221A60054B0120BE
:109204001B68BDE81040184710BD00BFDC340020C7
:1092140014010040E0340020180100400268136883
:109224005268934291BFD01A80680130801888BF79
:10923400C01A70472DE9F84303681D685C68A542AD
:1092440084BF836801331746884694BF641B5C1B44
:10925400C2684168BC42064605FB02110CD37A433E
:10926400404602F008FFB3683D449D4288BF002594
:1092740033681D60BDE8F88304FB02F94A464046A2
:1092840002F0F9FEF26871683C1B624308EB0900C6
:1092940002F0F1FE33681C60ECE773B505460E4638
:1092A4001446A2B102A8002300F8013DFDF7F6FD23
:1092B4002846FFF7B3FF844228BF044622462846C7
:1092C4003146FFF7B7FF9DF80700FDF70BFE204678
:1092D40002B070BD37B5054602A8002400F8014D60
:1092E400FDF7DCFD0C222146286802F0EDFE9DF816
:1092F4000700FDF7F7FD03B030BD13B5044602A81F
:10930400002300F8013DFDF7C9FD2046FFF786FF65
:1093140004469DF80700FDF7E5FD204602B010BDA8
:1093240010B58468FFF7E9FF201A10BD2DE9F84352
:10933400044616468846FFF7F3FF2368A5685A6873
:109344000135AD1A8146E26858686368B54202FB8C
:10935400003017D37243414602F08DFE2268A168A3
:10936400536833448B4296BF53680026F618566000
:109374002046FFF753FF23689A68824238BF9860FB
:10938400BDE8F88305FB02F73A46414602F073FE56
:10939400E2686068751B6A4308EB070102F06BFE24
:1093A4002268B1455560E3D25368A1688B4234BF4B
:1093B400013300231360DBE773B505460E461446FC
:1093C400A2B102A8002300F8013DFDF767FD2B7C44
:1093D4007BB9AB689C4228BF1C46284622463146CE
:1093E400FFF7A4FF9DF80700FDF77CFD204602B0BF
:1093F40070BD2846FFF794FF844228BF0446ECE77B
:10940400034B1B7813B10020FEF767BBFEF76BBB61
:10941400E5340020F8B5784C237805461BB10023C9
:109424002370FFF7EDFF172D00F28280DFE805F0CF
:109434000C13133F5061717A828882888F949494BC
:109444009494BEC3CBD3DEDEFFF7DAFF6B4B00246C
:109454001C702046F8BD0020FEF730FBF8B1002058
:10946400FEF73BFB022D0CBF4FF4E1614FF47A6130
:10947400624B1D704FF400404FF4FA140025E0FBDA
:1094840001454FF47A1200232046294602F0A8FB36
:10949400002201465A48BDE8F840FDF769BCFEF7D2
:1094A40016FB022D0CBFC8214FF4C871E0E7002061
:1094B400FEF704FB40B10020FEF70FFB4FF44871A8
:1094C4004E4B03221A70D5E7FEF701FBC821F7E7DC
:1094D4000020FEF7F3FA38B10020FEF7FEFA4FF44D
:1094E4007A61464B0422EDE7FEF7F1FA4FF4C871B6
:1094F400F7E70020FEF7E2FA40B10020FEF7EDFAAC
:109504003E4B05221A7002210022C3E7FEF7DFFA60
:10951400F6E70020FEF7F3FA384B06221A70002211
:109524000121B7E70020FEF7D2FA344B07221A7064
:1095340000248EE7012528462570FEF7E0FAEEE7C1
:1095440001202070FEF7DBFA00220421A2E7FEF7D7
:10955400D0FA2A4B0C22EAE72A482B4EFDF74CFCA2
:10956400D5F1110504461CD0D8B9012D13D0C82358
:109574005D434FF400474FF4FA1000214FF47A1280
:109584000023C7FB050102F02BFB224601461D48C0
:10959400FDF7EEFB04460220FEF799FA012333702F
:1095A40057E70220FEF799FA0023F8E7FFF728FFB0
:1095B400124B1222BBE7FFF723FF0020FEF787FAC6
:1095C4000E4B1322B3E7FFF71BFF0120FEF77FFAD0
:1095D4000A4B1422ABE7FFF713FF0020FEF777FADC
:1095E4000120FEF774FA054B1522A0E7FEF781FA75
:1095F400024B1D709CE700BF2C3500202D35002048
:1096040008350020E8340020E5340020044B1B68B2
:1096140013F0010301D0FFF7FDBE1846704700BFE9
:1096240028350020072070470620704708B501221E
:1096340002210020FFF7F6FF08B1072810D1072206
:1096440002210120FFF7EEFF08B1072808D100210D
:109654000A220846FFF7E6FF10B1072808BF0020DA
:1096640008BD00000388102B10B502D0112B1ED0AA
:1096740010BD1A4C2168B1B901220846FFF7D2FF88
:1096840008B1072824D1072202210120FFF7CAFFCD
:1096940008B107281CD1042202210020FFF7C2FFD1
:1096A40008B1072814D1236801332360E0E70B4A8B
:1096B4001368013B1360002BDAD1FFF7B7FF0028D2
:1096C400D6D0074B1B68002BD2D0BDE810401847FA
:1096D400034B1B68002BE6D09847E4E734350020A1
:1096E4003035002008B50020FFF79EFF08B106289A
:1096F40006D10120FFF798FF10B1062808BF00200B
:1097040008BD0369C1688B429DBF8268D21802F10B
:10971400FF3203F1FF3394BF501A581A70472DE9F2
:10972400F041D0E902670446F61B40689642884639
:109734001546384405D902F09EFC3D44E560BDE879
:10974400F0813246AD1B02F096FC2A4608EB060176
:10975400606802F090FCF1E72DE9F843C56806461D
:10976400894617464FF000083469B3687068A5420B
:1097740028BFE418013C621B5C1BBC4228BF3C466A
:10978400944228BF144649462844224602F073FCFA
:10979400B3682544AB4208BF00253F1BA044A14445
:1097A400F560E1D14046BDE8F883000010B5114CE6
:1097B400114AA2610223C4E90433104BE361A26499
:1097C4004FF400730E4A2362E264002310220D4911
:1097D400A362E01D6362E362A3656365E3652265DA
:1097E40002F0A5FC0849204602F0A1FC2023A37145
:1097F40010BD00BF3835002031D00200C035002034
:10980400B03500203AD002003ED00200F8B5184C22
:10981400182300FB033503FB00402544C46A012CD4
:109824000F46164611D003D3022C1BD000240AE0A5
:109834002846FFF766FF864205D832463946284651
:10984400FFF76DFF34462046F8BD2846FFF759FF61
:109854008642344628BF0446224639462846FFF746
:109864005EFFF0E72846BDE8F840FFF775BF00BF8C
:109874003835002073B50D4B1B7804460D4616464B
:109884000BB9FFF793FF02A8002300F8013DFDF791
:1098940005FB324629462046FFF7B8FF04469DF8EB
:1098A4000700FDF71FFB204602B070BD38350020CD
:1098B40038B5054608460C4602F05BFC21460246D4
:1098C4002846BDE83840FFF7D5BF826810B5044686
:1098D4004068531C834205D820688154A360E36820
:1098E4000133E360D4E901329A420BD12168206943
:1098F400FFF7C0FFA368984215BF4FF0FF33002362
:10990400E360A36010BD00002DE9F84F9A46DDE93D
:109914000A439046064689460A46012742451DD217
:10992400574538BF574613F0010B12D18CB19B0732
:1099340018D5BAF1000F0CBF30252025A74208D254
:1099440029463046FFF7C1FFF368002B04F1FF34CA
:109954000ADAF368002B09DABDE8F88FB2FBF8F2F3
:109964000137DBE72025E9E7002CE7D10125BAF12F
:10997400010F04D90AF1FF3A08FB05F5F7E7B9FB33
:10998400F5F39845F8D9DFF844A0B9FBF5F3304670
:109994001AF8031005FB1399FFF797FFF368002BE0
:1099A40003DBB5FBF8F5002DEFD1BBF1000FD3D0ED
:1099B400002CD1D0A742CFD220213046FFF785FF1B
:1099C400F368002B04F1FF34F2DAC5E745D0020056
:1099D4002DE9F04F9BB00AAB0D46059340210023BF
:1099E400CDE90613CDE90830039016464FF00A0975
:1099F40015F8011B00295CD025294CD14FF0000B30
:109A040009E02D2B04D0302B0DD14BF0020B01E0DB
:109A14004BF0010B0D462B782B2B05F101010FD0D8
:109A2400EFD8232B0FD00024294611F8013BA3F1D2
:109A3400300009280AD809FB0434303C0D46F3E70A
:109A44004BF0040BE6E74BF0080BE3E72E2B0FD1AA
:109A54000D464FF0000A284610F8011BA1F130070B
:109A6400092F07D809FB0A13A3F1300A0546F2E7C8
:109A74004FF0000A284610F8011B01F0FB07682F7D
:109A84000546F8D0642936D009D8582926D0632948
:109A94002CD025290AD105A8FFF717FF06E0732962
:109AA40000F0988016D8702900F0A480089B002B41
:109AB4009EDA089B002B09DD079A1AB10AA90398BC
:109AC400FFF7D8FEDDE907231344089308981BB079
:109AD400BDE8F08F752974D07829E7D13168CDE9D4
:109AE400004B081D30605346102271E033681A1D84
:109AF40032601978CFE731680F68081D87EAE7718B
:109B04003060A1EBE7714FF00108092941DCD04531
:109B140038BFD0462CB1002F02DB1BF0040F00D05D
:109B2400013C1BF0020F02D0BAF1000F04D01BF06D
:109B3400010F01D1002C3CD108990029B6DB002F7C
:109B44003ADA7F422D2105A8FFF7BFFE08990029C4
:109B5400ACDB0BF0030102290FD1BAF1000F0CD1D9
:109B6400002C4FD0A04508D2302105A8FFF7ADFE48
:109B74000899002904F1FF34F2DA0899002995DBE9
:109B8400CDE9004B53460A22394605A8FFF7BCFE2F
:109B94008CE791FBF9F108F10108B6E7202105A84B
:109BA400FFF793FE0899002904F1FF34C4DB002C6D
:109BB400C5D0A045F2D3BFE71BF0040FC6D02B21BC
:109BC400C1E73168CDE9004B081D306053460A22D5
:109BD4000968DAE733681A1D32601C6814F8011B3F
:109BE40000293FF463AF05A8FFF76FFE089B002B25
:109BF400F4DA5BE731680B1D336000220823CDE9FA
:109C0400003271E70024BBE70EB403B503AB02AA2C
:109C140053F8041B42F8043DFFF7DAFE02B05DF886
:109C240004EB03B070479BDF70479DDF70479EDFF6
:109C34007047000030B50C4B0C4A19680023994258
:109C440001D100200CE002EB8304A5788478A542BE
:109C540007D132F823500488A54202D1044B186876
:109C640030BD0133EBE700BFC8370020D03A0020F5
:109C7400C037002070B590F8C63216467622A0B0E0
:109C840002FB03000D46FFF7D5FF044660B17C22BA
:109C9400002101A802F018FA01238DF80430ADF870
:109CA4000660029501A8A04720B070BD2DE9F74FCA
:109CB40090F8C6B24FF0760A80460BFB0A00CDE955
:109CC4000012FFF7B7FF814648B3164F3D68052DD4
:109CD40025D8154C019AEE01A0190AFB0B8142808C
:109CE4005246043002F0C7F9009B63B10023A35528
:109CF40026440135C6F87C900C4E3D60326895428E
:109D04000DD1002506E00223F1E704EBC51001356F
:109D1400C36F984733689D42F7D300233B6003B079
:109D2400BDE8F08FCC3A0020CC370020C8370020A3
:109D340037B590F8C53290F8C6220C46BBB1013B4A
:109D44007621DBB25143122505FB031303445B8ADE
:109D54000133ADF80430762303FB020201A9138911
:109D6400ADF806302046FFF760FF03B030BD762320
:109D740003FB0203DB88ECE738B54FF433720D467E
:109D84000021044602F0A0F9114AA4F8CA520023A3
:109D94001360104A84F8C9321268226084F8C6320B
:109DA40084F8C532224601212846FFF73CFF1128DA
:109DB40006D020B9012384F8C73284F8C80238BD1C
:109DC400012284F8C72284F8C8221846F7E700BFA6
:109DD400CC3A0020D03A002070B50C4690F8C92245
:109DE400174901320968D2B28A42034680F8C9226F
:109DF4004FF0000521D290F8C61280F8C552013107
:109E0400C9B280F8C612762011FB00F00D4E1A1864
:109E140056F821101950012115712046FFF703FF50
:109E2400014648B183F8C75222461846FFF722FF7D
:109E3400054B03221A705C8070BD80F8C752F7E7A7
:109E4400C8370020D03A0020CC3700202DE9F74F46
:109E540090F8C64290F8C562762314FB03F700EB32
:109E640007084FF0120C98F804E01CFB0673741CEE
:109E74000A337445034419D006EBC6056D00441932
:109E84003C4405EB07090EF1FF3A00271C3406EBAE
:109E9400070B5FFA8BF5AE450DD9DA451D891CD148
:109EA400B8F808309D422AD1002321E01B89B8F874
:109EB4000800834205D101230B70002003B0BDE8E4
:109EC400F08F0133ADF80430ADF8060000230B70B9
:109ED400104601A9FFF7ABFEF0E70CFB07F309EB13
:109EE400030B83440135BBF822B05D450DD12344F7
:109EF40090F8C552013580F8C5520137C7E70135DE
:109F0400ADF80450ADF80630E0E70BF1FF3BADF8D7
:109F14000450ADF806B0D9E758B1074A00231360DE
:109F2400064A01211170064A1360064A1060184659
:109F340070470E20704700BFC8370020C437002088
:109F4400CC3A0020C037002010B5044680B10C4B39
:109F54001B787BB1FFF76EFE70B90A4A1368052BB4
:109F64000CD80949246841F823400133136010BD1B
:109F74000E20FCE70820FAE70020F8E70420F6E7C3
:109F8400C4370020C8370020D03A002050B1084A16
:109F940012784AB1074A126832B190F8C7322BB925
:109FA400FFF7EABE0E207047082070471120704763
:109FB400C4370020C83700202DE9F7430C46054676
:109FC400C8B1C1B18C4B1B78ABB10388302B35D0F1
:109FD40014D8112B00F0008194F8C8325BB12B889F
:109FE400303B1F2B07D8AB88B4F8CA12994202D170
:109FF4002046FFF7C1FE03B0BDE8F083322B42D008
:10A00400332BE9D18288B1F8CA329342E4D1C688AD
:10A0140091F8C6C291F8C572002E00F0A280762194
:10A0240001FB0C4C7B1C9CF8041000268B428DF821
:10A03400076000F0C68084F8C53289E08388B1F8EF
:10A04400CA229A42C8D1C688A6B991F8C632C06855
:10A05400762113FB01F3E118E0502B69C1F80630B7
:10A0640020461146FFF764FE01460028B4D084F868
:10A07400C7624BE000212046FFF718FEA98820465E
:10A08400FFF7AAFEA8E78288B1F8CA329342A3D1A7
:10A09400C388002B59D191F8C602762310FB03F034
:10A0A40001EB000CA97A9CF8043019440629C8BFB6
:10A0B400062100F10A0E12208CF8041010FB03E1B3
:10A0C40005F10C0860184FF000099CF804108B424D
:10A0D40008F10A0800F1120022D31220013B00FB10
:10A0E400034373441889BCF8083098422DD20629DA
:10A0F4002BD084F8C51220461146FFF719FE0146FD
:10A1040000283FF469AF002384F8C732AA882046A8
:10A11400FFF7B0FD394B03221A70AA885A805BE717
:10A124004746013357F80A1D40F8121C796840F875
:10A134000E1C398920F80A1C20F8089C20F8069C7B
:10A1440020F8049C20F8029CBFE7002684F8C5622E
:10A154000DF107012046FFF779FE0146002833D0B0
:10A1640085E7762303FB0CF1122303FB0713B0F8F6
:10A174000AE023447645BFF452AFC189A1F52451C6
:10A18400082908D8DFE801F01417050707070707AF
:10A194001A0081899982998A39B1D98A29B1198B8E
:10A1A40019B1598B00297FF43AAF01360630E1E743
:10A1B4008189D982EFE781891983ECE78189598301
:10A1C400E9E701238DF807309DF80730002B3FF4B1
:10A1D40003AFAA8801214EE78288B1F8CA329A42B5
:10A1E4007FF4FAAE002381F8C73281F8C8324FF603
:10A1F400FF73A1F8CA32EFE6C4370020CC37002041
:10A2040090DF7047A5DF7047B5DF7047F0B585B0C4
:10A214000023ADF80810ADF80A106A4602A90746F3
:10A2240003930093ADF80430FFF7EAFF064618B332
:10A23400134C2588FCF7F0FF2D0445F00105034677
:10A244003A4610492846FCF7BDFABDF80020BDF88F
:10A25400023002B933B120880B49000440F00100F8
:10A26400FCF7B0FABDF8042032B120880749000495
:10A2740040F00100FCF79CFA304605B0F0BD00BF89
:10A28400102A002061D00200ABD00200EAD0020004
:10A2940088B14FF0F7130360FB230371F723C380E6
:10A2A4001723038141F6FB32002301618372C372D9
:10A2B4008281184670470E20704730B1A1F1170310
:10A2C400E02B04D84180002070470E2070470720FF
:10A2D4007047000037B5034680880C46A0B91A8839
:10A2E400232A00F0AD8011D8102A25D0112A53D08A
:10A2F400A37A4BB1E1880020FFF784FF002840F0E7
:10A30400A5800123A072E37203B030BD3A2A4DD078
:10A31400552A67D0242AEBD11A7A0B694A73002B89
:10A32400E6D04DF67A21ADF80400ADF80010ADF892
:10A3340002008DF804207FE0DB7B0A790A73012B8D
:10A3440013D0022B14D0E18823898B4205D200203C
:10A35400FFF758FF70B90123E372217B637B8B42C3
:10A36400C6D20020FFF752FFC2E70B88E380EAE77A
:10A374004B88FBE7112802D10123A372EDE73B4B85
:10A384001D88FCF749FF2D0445F0010502463849B4
:10A394002846FCF70DFAE0E7F723CB8017230B815F
:10A3A40041F6FB338872C8728B81A1E75B89CA8846
:10A3B400934228BF1346172B0A6938BF17230B8112
:10A3C40062B1C97A51B140F67721ADF80010ADF809
:10A3D4000200ADF804306946204690470023E3723A
:10A3E400A37285E7DB88C988A072172B38BF1723AF
:10A3F4008B4228BF0B462381FFF706FF58B11B4B46
:10A404001D88FCF709FF2D0445F001050246194992
:10A414002846FCF7CDF9E27A002A7FF469AF236974
:10A42400002B3FF465AF40F67721ADF80220228976
:10A43400ADF80010ADF8042069462046984757E768
:10A44400197A237B994228BF19468BE711283FF4D8
:10A454005BAF064B1C88FCF7DFFE240444F00104C8
:10A46400024603492046FCF7A3F94DE7102A0020D1
:10A4740040D1020071D10200A3DF704762DF704750
:10A484002DE9F0410C4686B005461422002101A8AE
:10A4940001F01AFE23785BBBA288012A28D1A17996
:10A4A4002A78914224D1277ABDF81260BDF81400AD
:10A4B400BDF816C0122111FB074122461F469E46D5
:10A4C400914218D1BEF1000F01D0ADF816C00FB102
:10A4D400ADF812600BB1ADF81400EB6843B16288BB
:10A4E400ADF8062000228DF8042001A928469847DB
:10A4F40006B0BDE8F081B2F80E80B8F1020F04D0C6
:10A50400B8F1030F06D01232DAE7B2F816C04FF0F2
:10A51400010EF8E70123D68A108B1F46F3E70000EB
:10A52400F0B5164A87B002AC03460E4602F1100C91
:10A53400274610685168254603C5083262452C46F3
:10A54400F7D1C3B1BEB119463846FFF797FF80B9BA
:10A554001A788DF8062006AA012122F8141D4FF658
:10A56400FF7159803168D960988018811046FFF7CF
:10A57400EBFC07B0F0BD0E20FBE700BFADD102003D
:10A584007FB503460846F9B1F3B14A884FF6FF7127
:10A594008A4202D09988914216D11988112916D07D
:10A5A400392911D182887AB1598991420CD1C26872
:10A5B40052B101218DF8041003F11001DB890391DC
:10A5C4008DF8103001A9904707B05DF804FB9B8813
:10A5D4009342F9D1C368002BF6D006A9022201F8F0
:10A5E400142D4FF6FF7242809847EDE71FB50346DE
:10A5F400D0B140884FF6FF72904217D0DB88ABB1E0
:10A604000122ADF80020ADF8063040F201124FF4FB
:10A61400003301A9ADF804200293CDF80CD0FFF764
:10A624002BFF05B05DF804FB0E20FAE70820F8E7DD
:10A634001FB5034660B3F42A0AD9164B1649188885
:10A64400000440F00200FCF7AFF8072004B010BD8E
:10A6540040884FF6FF74A04209D10E4B0F49188869
:10A66400000440F00200FCF79FF80820EEE71B8985
:10A67400ADF806304FF481740023039101A9ADF8BD
:10A684000440ADF80830ADF80A20FFF7F5FEDDE729
:10A694000E20DBE7082A0020BDD10200CFD1020042
:10A6A40048B141802AB15388C3801388838093883A
:10A6B4000381002070470E20704710DF70470000B0
:10A6C40013B5044609496846FCF772FD019808B9B8
:10A6D40002B010BDD0E900312046984718B1684651
:10A6E400FCF770FDF2E71120F2E700BFF8D1020099
:10A6F40013B5044607496846FCF75AFD019B0BB99C
:10A7040002B010BD2046D3E9002190476846FCF70B
:10A7140059FDF3E710D202000B4A92F816335B0995
:10A72400012B08D9042B06D0084B996839B94FF48A
:10A7340080031360704742F20200FCF761B81A68A4
:10A7440042F480021A60704700E100E08833002080
:10A75400F7B51B4F3C788CBB1A4E0125204635704B
:10A76400FFF7AEFF112826D02046FFF7C1FF164B96
:10A774001868019002A800F8054DFCF78FFB1349F7
:10A7840001A8FFF79AFF0446B0FA80F04009387038
:10A794009DF80300FCF7A6FB6CB90D4B34701C70DC
:10A7A4000C4BE02283F8162383F81523FFF7B4FF3C
:10A7B4002846FFF79DFF204603B0F0BD0824FAE7C2
:10A7C400E93A0020E83A0020F2D1020021680200B0
:10A7D400EA3A002000E100E0014B1878704700BF1E
:10A7E400E93A002007B508496846FCF7E1FC019BFB
:10A7F40013B903B05DF804FBD3E900209047684621
:10A80400FCF7E0FCF3E700BF04D20200FFF7EABF65
:10A8140060DF704769DF704761DF704730B5114D05
:10A82400ADF5017D4FF4FA740DF1020103A8ADF802
:10A834000240FFF7F1FF70B9294601A8FCF7B8FC04
:10A84400029B002BF0D003A8D3E90021904701A874
:10A85400FCF7B8FCF4E7052801D0FBF7D1FF0DF5B0
:10A86400017D30BD94D40200024B1B780BB1FFF77D
:10A87400D5BF7047EB3A00207FB506460C46002949
:10A8840000F0AF80584B0B600C22002101A801F0AE
:10A894001BFC01238DF8063022688DF80460062322
:10A8A40001A92020ADF80830FFF7B4FF58B14F4B91
:10A8B4001D88FCF7B1FC2D0445F0010502464C4906
:10A8C4002846FBF775FF0C22002101A801F0FCFBD0
:10A8D40000238DF805302268012301A940208DF85A
:10A8E40006308DF80730FFF795FF58B13F4B1D88B0
:10A8F400FCF792FC2D0445F0010502463D4928462B
:10A90400FBF756FF0C22002101A801F0DDFBF72321
:10A9140022688DF8046001A92320ADF80630FFF702
:10A9240079FF58B1314B1D88FCF776FC2D0445F0B6
:10A934000105024630492846FBF73AFF0C22002164
:10A9440001A801F0C1FB012022688DF8040001A9CF
:10A95400FFF760FF58B1254B1D88FCF75DFC2D0403
:10A9640045F00105024625492846FBF721FF0C2244
:10A97400002101A801F0A8FB4FF4B0632268019301
:10A9840001A9A120FFF746FF58B1184B1D88FCF719
:10A9940043FC2D0445F00105024619492846FBF7FE
:10A9A40007FF0C22002101A801F08EFB9DF8043062
:10A9B40022686FF3000301A9A0208DF80430FFF78B
:10A9C40029FF60B1094B1C88FCF726FC240444F0E1
:10A9D400010402460B492046FBF7EAFE002004B0BE
:10A9E40070BD0E20FBE700BFE0290020182A0020DC
:10A9F40024D202006AD20200B6D20200FDD20200C2
:10AA040049D302009AD30200F8B504460768FFF759
:10AA1400FFFE2368BB42054620D91A4E1A493088E6
:10AA2400000440F00200FBF7BFFE3088236817499A
:10AA340000043A4640F00200FBF7C4FE4FF0805396
:10AA44003088D3F80C31226811499B0203F100537A
:10AA540000049A1A40F00200FBF7AAFE25B90D4B38
:10AA640001221A702846F8BD064B28461C88FCF7BC
:10AA7400D3FB240444F00104024607492046FBF7B3
:10AA840097FEEFE7182A0020EDD302001CD4020041
:10AA94004DD40200EB3A002077D402004BDF70471C
:10AAA4001FB50D4C01A8FFF7F9FF70B9214602A8A4
:10AAB400FCF77EFB039B002BF4D00198D3E9002123
:10AAC400904702A8FCF77EFBF4E7052801D0FBF7CA
:10AAD40097FE04B010BD00BFACD4020010B5431EF5
:10AAE4000139053013F8014F11F8012F944203D1B5
:10AAF4008342F7D1012010BD0020FCE7F8B5094BD3
:10AB0400094F1D8806460024A54201DC0020F8BD3B
:10AB1400C4EBC40031463844FFF7E0FF0028F6D107
:10AB24000134F1E79C3B0020EC3A002073B50F4E52
:10AB340034886D46182C85E8030005D90C4900209B
:10AB4400FFF762F802B070BD2846FFF7D7FF002870
:10AB5400F8D1084A2868A988631CC4EBC40433806C
:10AB640013191051AA7999809A71EBE79C3B002044
:10AB7400C4D40200EC3A0020014B1888704700BF8F
:10AB84009C3B0020014B00221A8070479C3B002014
:10AB94002DE9F0410E4E0F4FDFF84080002433883A
:10ABA400A34201DCBDE8F081C4EBC4053946454449
:10ABB4000020FFF729F80621284600F025F895F92A
:10ABC400062005490020FFF71FF80134E7E700BF1E
:10ABD4009C3B0020F1D40200F6D40200EC3A0020A1
:10ABE400024BC0EBC0001844704700BFEC3A002091
:10ABF4000F28024694BF024902490020FFF704B817
:10AC040013D5020014D50200F8B5084F05460E46C8
:10AC14000446631B9E4200DCF8BD14F8010BFFF7E9
:10AC2400E7FF39460020FEF7EFFFF2E7DDD8020028
:10AC340010B500239A4200DC10BDC45CCC5401332F
:10AC4400F8E70000044B020900F00F009A5C1B5C5B
:10AC54000A704B70704700BF03D5020075DF704760
:10AC640076DF70477FDF70478ADF70478BDF70477E
:10AC74008FDF704701460148FFF702BCA03B00206C
:10AC84000A8840F677239A4270B50D4616D10C4CCB
:10AC94000C492088000440F00300FBF785FDAB88D5
:10ACA4002088094A0949033B9BB20004138040F001
:10ACB40003001A46BDE87040FBF784BD70BD00BFB9
:10ACC400FC290020A5D60200442A0020C1D6020097
:10ACD40008B508490848FFF7DBFA08B1FBF790FD0F
:10ACE400F7210548FFF7E9FA18B1BDE80840FBF77A
:10ACF40087BD08BD85AC0200B03B002008B50A4BF7
:10AD0400187810F0040002D10849FEF77DFF0849C5
:10AD14000548FFF7A9FF08B1FBF772FD05490020BC
:10AD2400BDE80840FEF770BFF4D6020017D5020054
:10AD3400142D00204AD5020003881D2B73B5044648
:10AD44003AD020D8132B7DD01B2B62D0102B1FD1CF
:10AD5400494B4A491888000440F00300FBF724FDDE
:10AD64000022A1884648FFF79BFC08B1FBF748FD89
:10AD74000720FEF74BFC08B1FBF742FDA1884148D0
:10AD8400FFF704F940E0212B69D003D81F2B60D0D2
:10AD940002B070BD3B2B6AD0562BF9D113218088A9
:10ADA400FFF75EFF3849044602460020FEF72CFFF9
:10ADB400002CEDD0204629E090F824301F2B1FD121
:10ADC400006A4379AA2B1BD18379FE2B18D12F4912
:10ADD40000F10C02002312F8016F5D5CAE420FD14A
:10ADE40001330A2BF7D1E37E8DF806306C462146F9
:10ADF40017300622FFF71CFF94E80300FFF796FEC6
:10AE040023490020FFF730FF0028C1D0FBF7F8FCEE
:10AE1400BEE7037A012B0AD1174B1E491888000498
:10AE240040F00300FBF7C0FCFFF768FFB0E7022B1C
:10AE3400AED1114B18491888000440F00300FBF709
:10AE4400B3FCA5E700231A4685218088FFF70AFF93
:10AE5400DAE700F108018088FFF700FFD4E702A9D0
:10AE6400002321F8083D8088FFF702FFCCE7132177
:10AE74008088FFF7F5FEC7E7FC290020ABD5020068
:10AE8400A03B0020462A0020EDD50200E9D60200AE
:10AE9400142D0020BFD50200CFD502002DE9F84FB4
:10AEA4000B78012B06460C4624D003D3022B66D024
:10AEB400BDE8F88F384D39492888000440F0030074
:10AEC400FBF772FC04F10E0261883046FFF7E8FBE1
:10AED40008B1FBF795FC3046FFF788FB08B1FBF798
:10AEE4008FFC28882E49000440F00300BDE8F84F89
:10AEF400FBF75ABC8E680C7BDFF89CA0DFF8B0B07F
:10AF04001FFA84F937460025A54209D3344414F8BE
:10AF1400013C0D2B1AD10A20FBF798FF1128F9E701
:10AF24003878FBF793FF804668B11128F8D0BAF857
:10AF34000000000440F001002A465946FBF738FCA3
:10AF44004046FBF75DFC01350137DDE7154D4A4608
:10AF540031462846FFF76CFB04460028A8D0112888
:10AF6400F5D00D4B104918880004224640F001002A
:10AF7400FBF71EFC2046BDE8F84FFBF741BC064B2F
:10AF84000A491888000440F00300FBF70DFCBDE8F3
:10AF9400F84FFFF7B3BE00BFFC29002006D602001D
:10AFA4001AD60200A03B00206ED6020097D60200FB
:10AFB40048D6020008B5094B187810F0040002D1F5
:10AFC4000749FEF721FEFFF751FE08B1FBF718FC15
:10AFD40004490020BDE80840FEF716BEF4D602007E
:10AFE40061D5020093D5020013B51448FEF794FF0F
:10AFF40008B1FBF705FCFFF7ABFB08B1FBF700FC5E
:10B0040002AC002344F8043D01202146FFF734FC40
:10B0140008B1FBF7F5FB2046FFF7F6FC08B1FBF798
:10B02400EFFBFFF755FE064B064801932146FFF759
:10B0340077FA08B1FBF7E4FB02B010BD79AC02006B
:10B04400A1AE0200A03B002008B54FF4004100204F
:10B05400FBF716FA08B1FBF7D3FBBDE80840FBF792
:10B064004BB908B5FCF768F818B1BDE80840FBF720
:10B07400C7BB08BD0023094918465A5C303A092A5F
:10B0840098BF013003F1010398BFC0B20A2BF4D179
:10B09400A0F1090358425841704700BFDE3C00202C
:10B0A4000023094918465A5C303A092A98BF0130EE
:10B0B40003F1010398BFC0B20B2BF4D1A0F10A0332
:10B0C40058425841704700BFE83C00201FB54FF07C
:10B0D400A043124C4FF40042C3F80C250021FA227D
:10B0E400204600F0F1FF0E4B00930022FA2369463C
:10B0F4000C480393CDE90134FDF7F6FE08B1FBF7E4
:10B104007FFBFBF7EFF90028FBD14FF0A0434FF48E
:10B114000042C3F8082504B010BD00BFF33C002072
:10B12400F93D0020C8D70200F8B51B4C1B49204646
:10B1340000F01CFF224668B3001B0023184FDFF801
:10B144006CC01C4619461618355D2C2D14D10131DE
:10B1540089B2002301340B29A4B2F5D1114D002387
:10B164000244591CDBB2A34210D30E4A0E490020FC
:10B17400BDE8F840FEF748BD032903D10CF803509D
:10B184000133E7E70529E5D1FD54F9E7D05CE8543C
:10B194000B46E6E7F8BD00BFF33C00202CD70200C5
:10B1A400E83C0020E33B002033D70200DE3C0020D3
:10B1B40070B5134B8AB004AA03F118051646186833
:10B1C4005968144603C40833AB422246F7D14FF002
:10B1D400A0440C4A0C4818234FF40045C4F80C55FD
:10B1E4006946CDE90223002201930096FDF77CFE17
:10B1F400C4F8085505490020FEF706FD0AB070BDE5
:10B2040004D70200F33C0020C8D7020039D702005B
:10B214001FB5174B0FCB6C4684E80F0040F60A03AA
:10B22400ADF8003009238DF802304FF0A04303221B
:10B234004FF48051C3F83027C3F808154FF4804108
:10B24400C3F83827C3F80815C3F83C274FF4004265
:10B25400C3F8082500231A4621460648FDF7F6FEE2
:10B2640008B1FBF7CDFAFFF7A3FF04B010BD00BF90
:10B274001CD70200C4D702004FF0A0422DE9F041D0
:10B28400D2F804353A4C3B4D3B4E3C4FD94301F484
:10B29400804103F48043C2F808150020C2F80C353D
:10B2A4003749FEF7B1FC374A0023237013702B6033
:10B2B400FBF7B2FDC008306047F001072378002B8C
:10B2C4004ED1FBF7A9FDC0082860FBF7A5FD2B684C
:10B2D400C3EBD0001D2827D8FFF7F8FE4FF0640811
:10B2E4004FF47A40B847B8F10108F9D1FFF71CFFD1
:10B2F4004FF064084FF47A40B847B8F10108F9D127
:10B30400FFF7CEFE0028E0D0FFF7B4FE0028DCD023
:10B3140001231D4923704046FEF776FC1B4B1C4A53
:10B324001A601C4B1C4A1A60237803B92B60FBF784
:10B3340073FD3368C3EBD0003B28BFD994F8008079
:10B34400B8F1000FBAD1FBF767FD32681349C2EBBD
:10B35400D0024046FEF758FCFBF7C4F80028FBD1A6
:10B36400FBF7C0F80028FBD1BDE8F041FFF720BF90
:10B37400DD3C0020F03D0020F43D002060D70200B9
:10B3840066D70200F83D002086D70200342D002045
:10B39400DE3C0020382D0020E83C002094D7020039
:10B3A400014B1868704700BF342D0020014B18680A
:10B3B400704700BF382D0020014B1878704700BF3C
:10B3C400DD3C00202DE9F3411C4C2388B3F5F67FC6
:10B3D400064606D91A490020FEF716FC02B0BDE85D
:10B3E400F081184D471E00F1050817F8010F01A957
:10B3F400FFF728FC23889DF80420EA549A1C0133A3
:10B404009BB2228047459DF80520EA54EDD1B079DE
:10B41400404201A9C0B2FFF715FC23889DF804201F
:10B42400EA545A1C92B29DF80510A954DA1C02334E
:10B434009BB222803B22EA54D0E700BFF63E0020B4
:10B44400D4D70200F83E0020054A05230021995470
:10B454000133B3F5FA7FFAD1024B05221A80704703
:10B46400F83E0020F63E002000487047F83E0020D9
:10B47400074A084B11781970517859709178D2782D
:10B48400DA70054A9970052111803B221A717047C0
:10B494003C2D0020F83E0020F63E0020134AF0B573
:10B4A400134D138800242E461F1910F804C0BFB290
:10B4B40001340B2C05F807C0F6D103F10B0080B260
:10B4C40003F10C04A4B23B272F5414800020251848
:10B4D4000F5CADB201300A287755F8D103F117019A
:10B4E40016339BB211803B22F254F0BDF63E00208D
:10B4F400F83E002038B50C4DFFF73EFB2B88C01AF0
:10B50400032807DCFFF738FB2C88041B14F1FF34F5
:10B5140002D238BD0424F9E72888431C2B80FFF7A6
:10B524005FFBFFF74FFFF1E7F43E002008B5FFF79C
:10B5340023FB034B1B8883422CBF0020012008BD42
:10B54400F43E0020014B00221A807047F43E002094
:10B5540008B5054A05490648FBF758FF18B1BDE888
:10B564000840FBF74DB908BDB8DA0200A0D80200C4
:10B57400D4DA020010B50B4C204600F0FAFD20444A
:10B5840010F8043C4F2B0AD1204600F0F2FD204471
:10B5940010F8030CA0F14B035842584110BD002091
:10B5A400FCE700BFEC40002007B50A4800F0E1FDCD
:10B5B4004FF4FA6300930246002306490648FBF75A
:10B5C400C5FF20B103B05DF804EBFBF719B903B074
:10B5D4005DF804FBEC420020D4DA020038B5054DD6
:10B5E400044645F001054FF47A40A847013CFAD1DE
:10B5F40038BD00BF00D8020013B5144C4FF40072DC
:10B604000021204600F060FD4FF47A7300934FF45C
:10B614000072002321460E48FCF726F8204600F06D
:10B62400A8FD88B90B49FEF743F90948FBF756FF13
:10B63400FFF78EFF40F6B830FFF7D0FF0448FCF761
:10B644007FF8FFF7B1FFD9E702B010BDEC4000204E
:10B65400D4DA020063D802002DE9F041CCB00CAC7E
:10B6640005464FF4FA70FFF7B9FF4FF480720021DA
:10B67400204600F029FD012323703749374B072268
:10B68400A3541B0A013A43EA01634FEA1121F7D19B
:10B69400334A07234DF61C41E018013BC2714FEABF
:10B6A400122242EA01624FEA1121F5D104AEE25CB2
:10B6B4001109092902F00F0294BF3031373106F81D
:10B6C4001310092A06EB430103F1010394BF30323E
:10B6D40037320F2B4A70EAD1224F234CD7F800801F
:10B6E400284600F046FD47F6B7230F3001931F4B61
:10B6F4001F4A2049029000932046434600F011FC63
:10B70400204600F036FD32461B49DFF87C80204499
:10B7140000F007FC3A6819490020FEF775FA2E4636
:10B724002746284600F025FD731B98420AD80E4888
:10B7340000F01FFD124A1349204400F0F2FB4CB004
:10B74400BDE8F081384600F014FD16F8012B41469F
:10B75400204400F0E6FBE4E728450100B2C88FEE80
:10B7640008C9B5BDEC430020EC42002024D80200F7
:10B7740006D802000CD8020060D8020031D80200BA
:10B78400F6D802005FD802005AD80200024B1868AB
:10B79400013018BF01207047EC43002008B514495C
:10B7A4000020FEF785F8134B4FF0FF321A604FF07C
:10B7B400A0430322C3F818274022C3F80825FCF746
:10B7C400E3F908B1FBF71CF86420FFF707FF00203A
:10B7D400FDF7B6FC08B1FBF713F80020FCF7F0F90D
:10B7E400FFF7B6FE4FF0A0434022C3F80C2508BD76
:10B7F4001ADA0200EC43002007B5084B084A09494D
:10B8040000930346084800F08CFBFFF7CDFEFFF7DA
:10B81400F3FE03B05DF804EBFFF7ACBEF6D802000C
:10B8240006D80200EED70200EC42002008B50B490E
:10B834000020FEF73DF80A48FFF7DEFFFFF79AFE07
:10B8440048B1084B08494FF0FF321A600020BDE8A8
:10B854000840FEF72DB80549F9E700BFC0D802003B
:10B86400DFD80200EC430020E7D80200F9D8020038
:10B8740008B50848FFF7C0FFFFF77CFE48B1064B48
:10B884009B7A312B03BF4FF0A0434022C3F8082515
:10B89400002008BDE8D90200EC4000202DE9F8435F
:10B8A4002149224FDFF8A080DFF8A0900020FDF7A7
:10B8B400FFFF4FF4FA60FFF791FE1D48FFF79CFF6E
:10B8C4001C48FFF799FFFBF7A7FA0024C508FFF708
:10B8D400CFFF064630B118490020FDF7E9FF0120EB
:10B8E400BDE8F8833946FDF7E3FFFBF795FAC5EBAE
:10B8F400D0001428EBD9052C09D94046FFF77CFF6A
:10B904004846FFF779FF0D48FFF776FF3446FBF70B
:10B9140083FAC5080A48FFF76FFF0134094900207C
:10B92400FDF7C6FFE4B2D2E714D9020042D90200FF
:10B9340033D902003AD90200DBD90200B5D902009A
:10B94400D7D902006DD902006FD902008CD9020048
:10B95400F0B51349134C144E144F89B00020FDF771
:10B96400A7FF4FF0FF3323600025236813B9062D8A
:10B9740013DC01351E220021684600F0A5FB4FF4BC
:10B98400FA523146684600F0CCFA6846FFF734FFB5
:10B99400B87800F060FB2060E7E709B0F0BD00BFB5
:10B9A400EFD90200EC43002004DA0200EC4000204E
:10B9B40007B5FFF751FE0D490020FDF779FFFFF7AA
:10B9C400F3FDFFF719FEFFF7D5FD38B9084B094A17
:10B9D4001B6800930849094BFEF716F90849002033
:10B9E40003B05DF804EBFDF763BF00BF3ADA020071
:10B9F400EC430020EC40002057DA0200EC42002027
:10BA040085DA0200014B00221A707047804700203B
:10BA140010B504460020FDF7F9FD08B1FAF7F0FE71
:10BA240024B9FDF75FFE08B1FAF7EAFE012010BD64
:10BA340038B5054D044645F001054FF47A40A84752
:10BA4400013CFAD138BD00BF50DB020008B5FFF756
:10BA540055F942F21070FFF7EBFFFFF7ABFA4FF422
:10BA64007A70FFF7E5FFFFF787F8084902460020E0
:10BA7400FEF7CAF84FF4FA70FFF7DAFFFFF788F819
:10BA84004FF47A70BDE80840FFF7D2BF2CDB020008
:10BA94002DE9F0410120FCF740F8FFF7D5FAFFF754
:10BAA400B7FBFBF721F908B1FAF7AAFE424A43486B
:10BAB4000121FBF74BF908B1FAF7A2FE00224FF47B
:10BAC40034713F48FBF754F908B1FAF799FEFFF7D0
:10BAD40065FEFFF789FAFFF7E1FEFFF7C9FCFFF700
:10BAE400C0FA41F28830FFF7A3FF364E364F374D88
:10BAF400FAF7F8FC08B9FBF735FB2B7803F0FF04E1
:10BB0400002BF5D1FFF7B8FBFFF7A0FFFFF754FCBC
:10BB14002F4902462046FEF777F8FFF74DFC28B17F
:10BB2400FFF73EFC3060FFF741FC3860DFF8AC8083
:10BB34000124FFF7FBFC58B954B9FFF703FDFFF7E5
:10BB440021F8012323492B702046FEF75DF8CEE748
:10BB540031683868FFF7A2FCFFF7CCFCFFF788FEDA
:10BB640008B9FFF79BFEFFF783FE08B3FFF7F0FE6B
:10BB74004FF47A70FFF75CFFFFF708FE80B1FFF720
:10BB840073FC154902460020FEF73EF8FFF76CFCF3
:10BB9400FFF70EFF4FF4FA70FFF74AFFFFF746FE78
:10BBA4004FF47A70FFF744FF0024FFF74DFCC0E721
:10BBB4004146FDF77DFEF3E709BA020058DB0200B7
:10BBC40060470020402D0020442D002080470020A5
:10BBD4005CDB020092DB02006ADB02007DDB020018
:10BBE40053EA020C61D02DE9F04BB3FA83F51E0041
:10BBF40007BFB2FA82F502FA05F403FA05F4164611
:10BC0400C5F120051EBF22FA05F73C43203556EA4C
:10BC1400044C4FEA144418BF0134A3464FF0000902
:10BC2400C846904271EB030C39D3094207BFB0FAFE
:10BC340080F700FA07F6B1FA81F701FA07F6C7F1BF
:10BC440020071EBF20FA07FC46EA0C062037B6FB85
:10BC5400FBFC7F1B103F07F01F04C4F120060CFA05
:10BC640004F42CFA06F644BF34460026202FA4BF61
:10BC74002646002454EA060C08BF012418EB0408E5
:10BC840049EB0609A4FB027CC01B06FB02CC04FBA7
:10BC940003CC71EB0C01904271EB030CC5D20B4643
:10BCA400024649464046BDE8F08BB2FBF3F2000081
:10BCB4007F2805D8034B185C034B5B5C1840704726
:10BCC40000207047B0DB020030DC0200A0F1610309
:10BCD400192B98BF20387047A0F14103192B98BF46
:10BCE400203070477F2805D8034B185C034B5B5CFE
:10BCF4001840704700207047B0DB020030DC0200BF
:10BD0400A0F16103192B98BF20387047A0F14103BB
:10BD1400192B98BF203070477F299ABF01700120EA
:10BD24006FF02E0070475AB10A787F2A0AD800B102
:10BD34000260002119605960501A18BF0120704731
:10BD4400002070476FF02E00704738B5044608464F
:10BD5400A26842B1236861685D1C8D4208BF00205F
:10BD64008B4208D2D054E3682BB1216862689142B7
:10BD740001D22146984723680133236038BD70B54A
:10BD84004C1E09D41646C5B229463046FFF7DDFFDE
:10BD9400013CB4F1FF3FF7D170BD10F0100F09D191
:10BDA40008B500F40070002814BF30202020FFF7ED
:10BDB400E6FF08BD7047000008B5034B5B689B684D
:10BDC4001B68984708BD00BF482D002008B507210F
:10BDD400FFF7F2FF08BD08B50621FFF7EDFF08BD28
:10BDE40008B50421FFF7E8FF08BD38B504460D4641
:10BDF400FFF7F6FF30B1A4F13000A842A8BF4FF01E
:10BE0400FF3038BD2046FFF7E6FF10B1A4F157001C
:10BE1400F3E72046FFF7DAFF10B1A4F13700ECE7AF
:10BE24004FF0FF30E9E708B50821FFF7C5FF08BD6B
:10BE340000B5FAF75DFA024B18445DF804FB00BF45
:10BE4400080000002DE9F04F83B001908B46924624
:10BE5400064600E02646344614F8015BDDB1284668
:10BE6400FFF7E1FF0028F5D1302D14D1B41C75780B
:10BE740005F0DF03582B06D0BAF1000F4DD14FF077
:10BE8400010A08260BE03AF0100342D1F41CB578FD
:10BE94009A46102603E0BAF1000F05D10A264FF0A6
:10BEA40000084746C14614E056464FF0000AF6E73C
:10BEB40008FB06084FEA184307FB06371FFA88F801
:10BEC400B7F5803F28BF4FF0010914F8015B4FF02C
:10BED400010A31462846FFF788FF0028E8DABBF15B
:10BEE400000F07D0BAF1000F01D0631E0193019B2C
:10BEF400CBF80030B9F1000F04D148EA074003B091
:10BF0400BDE8F08FFFF794FF222303604FF0FF306A
:10BF1400F5E756464FF0010AC1E756464FF0010ACD
:10BF2400BDE70EB400B586B007AA52F8041B05920B
:10BF34000390002304936FF00043029301A800F0E0
:10BF440049F906B05DF804EB03B0704703784BB1D0
:10BF540051B10144034613F8012F0AB18B42FAD1BF
:10BF6400181A70470346FBE70346F9E770B40E78E6
:10BF7400D6B1037833B9002016E01B78A3B110F8CA
:10BF8400013F83B10378002BF9D09E42F7D10546D7
:10BF94004B1C15F8012F002AEFD013F8014B1CB1EC
:10BFA400A242F6D0EBE7002070BC70472DE9F047C1
:10BFB40082B0804689469246064600E026463446CC
:10BFC40014F8015B002D3BD02846FFF72CFF0746F1
:10BFD4000028F3D12B2D10D02D2D31D1524601A99B
:10BFE4002046FFF72FFFB9F1000F20D14342002B69
:10BFF4001FDC184602B0BDE8F087524601A920466E
:10C00400FFF720FFB9F1000F07D0019BA34208BF3F
:10C014004346C9F80030002FE8D103460028E8DA87
:10C02400FFF706FF222303606FF00043E1E70127D7
:10C03400EBE7FFF7FDFE222303604FF00043D8E750
:10C04400524601A93046FFF7FDFEB9F1000FE4D0D6
:10C0540034460027D9E738B50446FFF7E9FE0568FA
:10C064000A2200212046FFF7A1FF0446FFF7E0FE65
:10C074000560204638BD844640EA010313F0030FEF
:10C0840018D18446202A0BD32DE9F007B1E8F8072C
:10C09400A0E8F807A2F12002202AF7D2BDE8F007B1
:10C0A400042A07D351F8043B40F8043BA2F10402EC
:10C0B400042AF7D2002A05D011F8013B00F8013B0D
:10C0C400013AF9D1604670478446002A2DD010F019
:10C0D400030F04D000F8011B013A26D0F7E7C9B2D8
:10C0E40041EA012141EA0141202A12D3A2F12002AE
:10C0F4002DE9F0030B460C460D460E460F468846C6
:10C104008946A0E8FA03203AFBD2BDE8F0032032C6
:10C114000BD0042A05D340F8041B043A05D0042AA2
:10C12400F9D200F8011B013AFBD160467047024680
:10C1340010F0030F16D111F0030F13D12DE9F00005
:10C144004FF001374FF0803351F8044BA4EB07054F
:10C1540025EA04051D4002D142F8044BF4E7A1F19D
:10C164000401F0BC11F8013B02F8013B002BF9D1AA
:10C17400704700F1010110F0030F11D010F8012BEA
:10C18400002A23D010F0030F0AD010F8012B002A44
:10C194001CD010F0030F03D010F8012B002A15D087
:10C1A4002DE970004FF001324FF0803350F8044B0A
:10C1B400A4EB020525EA04051D4000D1F6E7A0F131
:10C1C400040070BC10F8012B002AFBD1A0EB010085
:10C1D400704700002DE9F04F89B080460F46039266
:10C1E40000230360DFF81CA680E3002502E045F08D
:10C1F40040052646344614F8010BA0F120033E2BDB
:10C2040000F2948001A252F823F000BFF3C10200AF
:10C2140031C3020031C302000DC3020031C3020066
:10C2240031C3020031C3020013C3020031C3020050
:10C2340031C3020031C302001FC3020031C3020034
:10C2440025C3020031C3020031C302002BC3020024
:10C2540031C3020031C3020031C3020031C3020002
:10C2640031C3020031C3020031C3020031C30200F2
:10C2740031C3020031C3020031C3020031C30200E2
:10C2840031C3020031C3020031C3020031C30200D2
:10C2940031C3020031C3020031C3020031C30200C2
:10C2A40031C3020031C3020031C3020031C30200B2
:10C2B40031C3020031C3020031C3020031C30200A2
:10C2C40031C3020031C3020031C3020031C3020092
:10C2D40031C3020031C3020031C3020031C3020082
:10C2E40031C3020031C3020031C3020031C3020072
:10C2F40031C3020031C3020031C3020031C3020062
:10C3040031C3020019C3020045F0800571E745F40A
:10C3140000456EE745F480556BE745F0200568E776
:10C3240045F0100565E745F4007562E72A2814D046
:10C33400A0F13003DBB2092B0DD8002101EB810100
:10C34400303800EB410114F8010BA0F13003DBB2EB
:10C35400092BF3D90CE000210AE0039B1A1D039278
:10C3640019680029BCBF494245F01005B41C707817
:10C3740021EAE1762E280FD00021742830D07A28C3
:10C384002ED06C2800F0AC804C2800F0AE806828D9
:10C3940000F0BB80274625E020782A2815D00134F8
:10C3A400A0F13003DBB2092B0DD8002101EB810190
:10C3B400303800EB410114F8010BA0F13003DBB27B
:10C3C400092BF3D907E0002107E0039B1A1D039210
:10C3D4001968607802340029CFDB45F48075CCE716
:10C3E400671C2078782800F29C80DFE810F05C025B
:10C3F4009A009A009A009A009A009A009A009A0069
:10C404009A009A009A009A009A009A009A009A0058
:10C414009A009A009A009A009A009A009A009A0048
:10C424009A009A009A009A009A009A009A009A0038
:10C434009A009A009A009A009C009A009A009A0026
:10C444009A009A009A009A009A009A009A009A0018
:10C454009A009A009A009A009A009A009A009A0008
:10C464009A009A009A009A009A009A009A009A00F8
:10C474009A009A009A009A009A009A009A009A00E8
:10C484009A009A009A009A009A009A009A009A00D8
:10C494009A009A009A009A009A009A009A000A0157
:10C4A4009A009A009A009A009A009A009A009A00B8
:10C4B4009A009A00A10047019A009A009A009A00F3
:10C4C40047019A009A009A009A00BA003401F300D6
:10C4D4009A009A00CD009A0040019A009A000C013B
:10C4E400671C207845F001057CE745F00105C14B48
:10C4F4001F68002F00F0C58103AB01930091334600
:10C504002A464146B8472746F0E12078682803D0F8
:10C51400671C45F0040565E745F00805A71C60782D
:10C5240060E73C46E3E725214046FFF70EFCDDE1EA
:10C53400039B1A1D03921C78013E4246314628464D
:10C54400FFF72BFC21464046FFF7FFFBA94619F0F5
:10C55400100F00F0CB81424631462020FFF70FFC3C
:10C56400C4E115F0080F07D0D8F80020039B191D6B
:10C5740003911B681A70B9E1039B1A1D03921B688F
:10C58400D8F800201A60B1E1039B1A1D03921868C1
:10C59400994B002808BF1846044625F4007915F481
:10C5A400807F13D0FFF7D2FC0546761B4246314606
:10C5B4004846FFF7F2FB002DC9D0254414F8011BAF
:10C5C4004046FFF7C2FBA542F8D1C0E7FFF7D1FD13
:10C5D4000546EAE7039B1A1D03921B6805F08002D7
:10C5E400002A0CBF0024232445F480750821002B65
:10C5F40000F02D814FF0000905F4005005AA8E4685
:10C60400D4E045F4005515F0800F22D043F27804AD
:10C6140043F25803782818BF1C4615F4807F01D0D4
:10C6240025F4007515F4804F36D0039B1A1D039230
:10C634001B6815F0040F27D01BB2002B29DB15F063
:10C64400200F40F0868005F04002002A18BF202405
:10C654002AE00024E1E705F08003002B0CBF00244E
:10C66400302415F4807FDDD025F40075DAE715F465
:10C67400807F07D025F400750024D3E745F4804576
:10C684000024CFE70024CDE715F0080F18BFDBB274
:10C69400D3E75B422D2407E0039B1A1D03921B681A
:10C6A40015F0040F50D09BB215F4807F14BF25F40D
:10C6B400007501215838202800F2C68001A252F8E2
:10C6C40020F000BFF3C502004DC802004DC80200AF
:10C6D4004DC802004DC802004DC802004DC80200FA
:10C6E4004DC802004DC802004DC802004DC80200EA
:10C6F4004DC802007DC702004DC802004DC80200AB
:10C704004DC802004DC802007DC702004DC802009A
:10C714004DC802004DC802004DC802004DC80200B9
:10C724005BC70200F3C502004DC802004DC80200F9
:10C734004DC802004DC802007DC702004DC802006A
:10C744004DC80200F3C5020015F0080FACD0DBB2EF
:10C75400AAE72B24A8E763B105A84FF0000903F06A
:10C764000702303200F8012B09F10109DB08F6D188
:10C7740027E04FF0000924E053B14FF0000905F41D
:10C78400004C4FF02C0E9B4663468C4619464CE0F9
:10C794004FF0000915E003F00F0C184911F80CC014
:10C7A40009F802C009F101091B0909D00028F2D0D7
:10C7B40003F00F0C124911F80CC009F802C0F1E79C
:10C7C4007146A1EB090B2BEAEB7BA6EB0B06A6EB60
:10C7D4000906FF2C88BF06F1FF36002C66D0013E07
:10C7E40015F4007F36D0FF2C3ED8E1B24046FFF767
:10C7F400ACFA5EE08447002010DE0200F0DD0200A7
:10C8040000DE0200CDCCCCCC08AB03EB0900AAFBC4
:10C814000B32D20802EB8203ABEB4303303300F854
:10C824000C3C09F10109934662B10029ECD009F0EE
:10C834000303032BE8D108AB4B4403F80CEC09F1D8
:10C844000109E1E76146BCE74FF00009B9E74FF0A1
:10C854000009B6E7424631462846FFF79EFAFF2C08
:10C8640001D8002605E00026C4F307214046FFF75F
:10C874006CFAF4B1B9E7424631462020FFF77FFA5B
:10C8840034E0274632E0D8F808303BB1D8F800202D
:10C89400D8F804108A423CBF00219954D8F800000B
:10C8A40009B0BDE8F08F4FF0FF30F9E715F4007FD1
:10C8B400D0D0424631462846FFF76FFA42465946E1
:10C8C4003020FFF75CFAB9F1010F0CD408AB99449E
:10C8D400A9F10D090DF1130419F801194046FFF7E8
:10C8E40034FA4C45F8D115F0100FC4D17E1C3978B8
:10C8F4000029C8D025293FF478AC4046FFF725FA33
:04C904003746F3E7D8
:10C90800797B020000000000D590020000000000C2
:04C9180015BA02004A
:10C91C00F8CF020000000000FECF02000000000073
:10C92C0005D00200000000001AD002000000000038
:10C93C0014D002000000000009D00200000000002A
:10C94C000ED0020000000000A1CA02000000030388
:10C95C00A5CA02000000000355D00200000003032A
:10C96C00EAD1020000000303F2CF02000000000035
:10C97C00A0D10200000003031CD20200000003033C
:10C98C00A0D4020000000303B8D40200000003038B
:10C99C00F4CA02000000000014DB020000000003D7
:08C9AC00FCDA020000000003A8
:10C9B4005C2D0020242E00202C2E0020642D00202D
:08C9C400002A00201800000009
:10C9CC005D7C020000000000E99002000000000005
:10C9DC006DA8020000000000A5AA020000000000E3
:10C9EC000447002000460020000100000100000068
:10C9FC0001000000282A0020F4450020F24300200A
:10CA0C00000200000100000001000000242A0020A8
:10CA1C006996020000000000BD9F0200462A00201B
:10CA2C00D9A20200B03B002085A50200A03B00204B
:08CA3C003DAD02000000000006
:10CA440000000000000000000000000000000000E2
:10CA540000000000000000000000000000000000D2
:10CA640000000000000000000000000000000000C2
:10CA740000000000000000000000000000000000B2
:0CCA8400000000000000000000000000A6
:10CA90004261636B656E647320666C757368656470
:10CAA000006170700062616C6C6F632E6C6F675F09
:10CAB0006D656D706F6F6C00466174616C2065729E
:10CAC000726F720053797374656D2072657365744B
:10CAD0000000000000000000000000000000000056
:10CAE0000338FDD87047000018C902001CC90200B5
:10CAF000040000007077725F6D676D7400556E6B97
:10CB00006E6F776E206572726F7220636F6465005E
:10CB10000000000038CC02000100000044CC0200FC
:10CB20000200000062CC02000300000083CC02007F
:10CB30000400000096CC020005000000A7CC020013
:10CB400006000000BBCC020007000000D3CC0200AE
:10CB500008000000EBCC02000900000003CD020039
:10CB60000A0000001CCD02000B00000034CD0200C2
:10CB70000C0000004BCD02000D0000005FCD020054
:10CB80000E00000071CD02000F00000080CD0200F9
:10CB90001000000094CD020011000000ABCD020097
:10CBA00012000000BACD020013000000CFCD020039
:10CBB00080000000E3CD02008100000004CE0200EE
:10CBC0008200000020CE0200830000003CCE020064
:10CBD000840000005ACE0200850000007BCE0200D7
:10CBE00086000000A0CE020090000000B7CE020038
:10CBF00091000000D5CE020092000000F3CE0200AA
:10CC00000082000008CF02000182000026CF02004F
:10CC10000282000042CF0200008400005ECF0200CA
:10CC20000184000082CF020002840000ACCF020029
:10CC300003840000D1CF02004E52465F5355434358
:10CC4000455353004E52465F4552524F525F535622
:10CC5000435F48414E444C45525F4D495353494E02
:10CC600047004E52465F4552524F525F534F465413
:10CC70004445564943455F4E4F545F454E41424CF3
:10CC80004544004E52465F4552524F525F494E5402
:10CC900045524E414C004E52465F4552524F525FF4
:10CCA0004E4F5F4D454D004E52465F4552524F52DA
:10CCB0005F4E4F545F464F554E44004E52465F45BF
:10CCC00052524F525F4E4F545F535550504F525433
:10CCD0004544004E52465F4552524F525F494E56B0
:10CCE000414C49445F504152414D004E52465F45D0
:10CCF00052524F525F494E56414C49445F53544142
:10CD00005445004E52465F4552524F525F494E566F
:10CD1000414C49445F4C454E475448004E52465F93
:10CD20004552524F525F494E56414C49445F464C22
:10CD3000414753004E52465F4552524F525F494E53
:10CD400056414C49445F44415441004E52465F4570
:10CD500052524F525F444154415F53495A45004E2D
:10CD600052465F4552524F525F54494D454F5554BC
:10CD7000004E52465F4552524F525F4E554C4C004A
:10CD80004E52465F4552524F525F464F52424944BF
:10CD900044454E004E52465F4552524F525F494EF7
:10CDA00056414C49445F41444452004E52465F450F
:10CDB00052524F525F42555359004E52465F4552B0
:10CDC000524F525F434F4E4E5F434F554E54004EAD
:10CDD00052465F4552524F525F5245534F55524350
:10CDE0004553004E52465F4552524F525F4D4F449D
:10CDF000554C455F4E4F545F494E495449414C494B
:10CE00005A4544004E52465F4552524F525F4D556F
:10CE10005445585F494E49545F4641494C4544008A
:10CE20004E52465F4552524F525F4D555445585FE2
:10CE30004C4F434B5F4641494C4544004E52465F80
:10CE40004552524F525F4D555445585F554E4C4FC9
:10CE5000434B5F4641494C4544004E52465F455264
:10CE6000524F525F4D555445585F434F4E445F49B2
:10CE70004E49545F4641494C4544004E52465F4539
:10CE800052524F525F4D4F44554C455F414C5245B5
:10CE90004144595F494E495449414C495A4544001F
:10CEA0004E52465F4552524F525F53544F52414784
:10CEB000455F46554C4C004E52465F4552524F52CC
:10CEC0005F4150495F4E4F545F494D504C454D4571
:10CED0004E544544004E52465F4552524F525F46B3
:10CEE0004541545552455F4E4F545F454E41424C6B
:10CEF0004544004E52465F4552524F525F494F5F84
:10CF000050454E44494E47004E52465F4552524F9F
:10CF1000525F4452565F5457495F4552525F4F56D5
:10CF2000455252554E004E52465F4552524F525F47
:10CF30004452565F5457495F4552525F414E4143F8
:10CF40004B004E52465F4552524F525F4452565F1D
:10CF50005457495F4552525F444E41434B004E5235
:10CF6000465F4552524F525F424C455F49505350C5
:10CF70005F52585F504B545F5452554E4341544595
:10CF800044004E52465F4552524F525F424C455FFD
:10CF9000495053505F4348414E4E454C5F414C52BF
:10CFA000454144595F455849535453004E52465FDA
:10CFB0004552524F525F424C455F495053505F4C6F
:10CFC000494E4B5F444953434F4E4E4543544544AD
:10CFD000004E52465F4552524F525F424C455F49A8
:10CFE0005053505F504545525F52454A4543544562
:10CFF0004400636C6F636B00434C4F434B004750DE
:10D00000494F544500505253005541525400554128
:10D010005254450054494D4552005350494D00006B
:10D02000FFFFFFFF0007FF000000004000000000BE
:10D03000005465726D696E616C0052545400534522
:10D04000474745520030313233343536373839416D
:10D050004243444546626C655F64625F6469736322
:10D060000073645F626C655F6761705F64617461C7
:10D070005F6C656E6774685F75706461746528299C
:10D0800020287265717565737429206F6E20636F37
:10D090006E6E656374696F6E2030782578207265D6
:10D0A0007475726E65642025732E00546865207255
:10D0B00065717565737465642054582F52582070DB
:10D0C00061636B6574206C656E677468206973209A
:10D0D000746F6F206C6F6E672062792025752F2525
:10D0E00075206F63746574732E00546865207265D3
:10D0F0007175657374656420636F6D62696E6174C8
:10D10000696F6E206F6620545820616E64205258FB
:10D11000207061636B6574206C656E677468732042
:10D12000697320746F6F206C6F6E672062792025A1
:10D1300075206D6963726F7365636F6E64732E0023
:10D1400073645F626C655F67617474635F65786365
:10D1500068616E67655F6D74755F72657175657323
:10D160007428292072657475726E65642025732E8B
:10D170000073645F626C655F67617474735F657888
:10D180006368616E67655F6D74755F7265706C79F9
:10D1900028292072657475726E65642025732E00CF
:10D1A0006E72665F626C655F67617474009ECADC54
:10D1B000240EE5A9E093F3A3B50000406E436F6E23
:10D1C00074656E7420746F6F206C6F6E672E0043F1
:10D1D0006F6E6E656374696F6E2068616E646C65F6
:10D1E00020696E76616C69642E00626C655F6E7595
:10D1F0007300010000070000ECC90200ECC9020046
:10D2000008000000DCC90200ECC9020008000000B0
:10D21000CCC90200DCC90200080000006E72665F23
:10D220007364680073645F626C655F6366675F73F5
:10D23000657428292072657475726E656420257383
:10D24000207768656E20617474656D7074696E67AF
:10D2500020746F2073657420424C455F434F4E4EDF
:10D260005F4346475F4741502E0073645F626C65C1
:10D270005F6366675F7365742829207265747572D1
:10D280006E6564202573207768656E20617474650F
:10D290006D7074696E6720746F2073657420424CE2
:10D2A000455F4741505F4346475F524F4C455F43A0
:10D2B0004F554E542E0073645F626C655F63666702
:10D2C0005F73657428292072657475726E656420B9
:10D2D0002573207768656E20617474656D7074695C
:10D2E0006E6720746F2073657420424C455F434F16
:10D2F0004E4E5F4346475F474154542E0073645F70
:10D30000626C655F6366675F736574282920726568
:10D310007475726E6564202573207768656E206170
:10D320007474656D7074696E6720746F20736574B2
:10D3300020424C455F434F4D4D4F4E5F4346475F44
:10D3400056535F555549442E0073645F626C655FA8
:10D350006366675F73657428292072657475726EE1
:10D360006564202573207768656E20617474656D2F
:10D370007074696E6720746F2073657420424C4529
:10D380005F47415454535F4346475F415454525F93
:10D390005441425F53495A452E0073645F626C6585
:10D3A0005F6366675F7365742829207265747572A0
:10D3B0006E6564202573207768656E2061747465DE
:10D3C0006D7074696E6720746F2073657420424CB1
:10D3D000455F47415454535F4346475F5345525658
:10D3E0004943455F4348414E4745442E00496E73CB
:10D3F000756666696369656E742052414D20616C83
:10D400006C6F636174656420666F72207468652058
:10D41000536F66744465766963652E004368616E78
:10D420006765207468652052414D20737461727481
:10D43000206C6F636174696F6E2066726F6D20304F
:10D4400078257820746F20307825782E004D61780B
:10D45000696D756D2052414D2073697A6520666F44
:10D4600072206170706C69636174696F6E2069739A
:10D4700020307825782E0073645F626C655F656E7E
:10D4800061626C6528292072657475726E6564200E
:10D4900025732E001CCA020044CA020008000000C6
:10D4A0006E72665F7364685F626C650008C9020033
:10D4B00018C90200080000006E72665F7364685F3E
:10D4C000736F6300497420617070657263652074C6
:10D4D00068617420697420746F206D616E792062B8
:10D4E0006561636F6E73206E65617262792E0D0ADD
:10D4F0000049443A20002C20525353493A202564D5
:10D500000D0A003031323334353637383941424331
:10D5100044454630257800426561636F6E20736331
:10D52000616E6E6572206E6F742061637469762C13
:10D530002063616E27742073746172742073636159
:10D540006E6E696E672E200D0A005374617274202E
:10D55000626561636F6E7363616E6E65722E0D0A34
:10D5600000426561636F6E207363616E6E65722049
:10D570006E6F742061637469762C2063616E27740A
:10D580002073746F70207363616E6E696E672E20F6
:10D590000D0A0053746F707020626561636F6E7363
:10D5A00063616E6E65722E200D0A00436F6E6E65AC
:10D5B0006374656420746F207461726765740053CE
:10D5C00063616E2074696D6564206F75742E00430D
:10D5D0006F6E6E656374696F6E20526571756573E9
:10D5E000742074696D6564206F75742E00457272C5
:10D5F0006F72206920626C6520696E69743A20251B
:10D6000064200A200D00446973636F766572792087
:10D61000636F6D706C6574652E00436F6E6E65632D
:10D6200074656420746F206465766963652077692A
:10D630007468204E6F7264696320554152542053C0
:10D640006572766963652E006170705F75617274D2
:10D650005F707574206661696C656420666F722006
:10D66000696E646578203078253034782E00466104
:10D67000696C65642073656E64696E67204E5553EE
:10D68000206D6573736167652E204572726F72201D
:10D69000307825782E2000446973636F6E6E656361
:10D6A0007465642E00415454204D545520657863B0
:10D6B00068616E676520636F6D706C657465642E5C
:10D6C00000426C65204E5553206D61782064617472
:10D6D00061206C656E6774682073657420746F20B8
:10D6E000307825582825642900AAAABBBBCCCCDDFC
:10D6F000DDEEEE000401A000A0000000000000002C
:10D7000000000000B56202411000000000000000AF
:10D71000000002000000E80000003DCBFFFFFFFF1B
:10D7200007FF0000000000400000000024474E52A8
:10D730004D43002573200D0A00476F6F64206E690A
:10D7400067687420475053206D6F64756C652E2098
:10D750000D0A0000000000000000000000000000B2
:10D760000338FDD87047475053206D6F64756C6562
:10D7700020776F6B656E2066726F6D20736C6565C8
:10D78000702E0D200A00476F742061206669782191
:10D79000200D0A004750532074696D6564206F7531
:10D7A00074206166746572202564207365636F6EF2
:10D7B00064732077697468206E6F206669782E0D17
:10D7C0000A000000000000000030004000000000DF
:10D7D000010000006F766572666C6F7720696E20BD
:10D7E000626561636F6E20646174610D0A00257368
:10D7F00025732573000000000000000000000000F9
:10D800000338FDD870470D0A41542B0025734E5341
:10D810004F53543D25642C222573222C25642C253E
:10D82000642C220035342E37372E33392E313336DF
:10D83000006D5F736F636B6574206265666F726500
:10D840002077726974696E6720415420636F6D6D33
:10D85000616E643A2025640D0A002530327800227A
:10D860002573004661696C656420746F2072656180
:10D87000642028436865636B20636F6E6E65637414
:10D88000696F6E20746F2053617261292C2074724D
:10D8900079696E6720616761696E2E2E2E0D0A0010
:10D8A0000400000005000000FF000000FF00000071
:10D8B00000000000000000000050270007000000EA
:10D8C000417474656D7074696E6720746F20636C49
:10D8D0006F736520736F636B65742E2E2E20004E60
:10D8E000534F434C3D3000536F636B657420636C42
:10D8F0006F73656421200D0A004661696C656420C0
:10D90000746F20636C6F736520736F636B65742134
:10D91000200D0A00436F6E6E656374696E67207434
:10D920006F2053415241206D6F64756C652E2E2E11
:10D930000D0A004346554E3D310043474154543D86
:10D9400031004661696C656420746F20636F6E6E90
:10D95000656374210D0A417474656D7074696E6736
:10D9600020746F20636F6E6E6563742E2E2E004ED2
:10D97000434F4E4649473D224155544F434F4E4E2B
:10D98000454354222C225452554522004E434F4EBB
:10D990004649473D2243525F303335345F3033339D
:10D9A000385F534352414D424C494E47222C22543A
:10D9B00052554522004E434F4E4649473D22435261
:10D9C0005F303835395F53495F41564F4944222C07
:10D9D000225452554522004E524200436F6E6E65EE
:10D9E00063746564210D0A0043474154543F00436A
:10D9F00072656174696E6720736F636B65742E2E38
:10DA00002E0D0A004E534F43523D22444752414D82
:10DA1000222C31372C25642C3100496E69746961E0
:10DA20006C69736174696F6E2053415241206D6F50
:10DA300064756C652E2E2E0D0A00456E7465726934
:10DA40006E67206D5F77726974655F61745F636D87
:10DA5000642E2E2E0D0A004552524F5220726573CD
:10DA6000706F6E7320646174613A2025730D0A6DC6
:10DA700073673A2025730D0A736F636B65743A20E0
:10DA800025640D0A004461746120617474656D70D1
:10DA90007465642073656E742C20726573756C7484
:10DAA00020756E6B6E6F776E0D0A0000F1430020DB
:10DAB000F04300200101000001000000CCDA020068
:10DAC000ACDA0200000000000000000004CA0200FE
:10DAD000ECC902000000000000200040000000002F
:10DAE000002000400000000010470020F8DA02008B
:10DAF000F4DA020020470020404700207175657568
:10DB0000652E73657269616C5F7175657565735FAC
:10DB10007478710071756575652E73657269616CD5
:10DB20005F7175657565735F727871004E756D20F4
:10DB30006F6620626561636F6E202564200A200D88
:10DB400000000000000000000000000000000000D5
:10DB50000338FDD8704700006047002068617320DB
:10DB60006669783A2025640D0A004461746120706A
:10DB700061636B6167653A2025730D0A004C6F7312
:10DB80007420636F6E6E656374696F6E2E2E2E0D3A
:10DB90000A00476F696E6720696E746F204C6F775B
:10DBA00020506F776572204D6F64652E0D0A00005E
:10DBB00020202020202020202068282828282020FD
:10DBC0002020202020202020202020202020202055
:10DBD000481010101010101010101010101010100D
:10DBE00084848484848484848484101010101010AD
:10DBF0001081818181818101010101010101010106
:10DC000001010101010101010101011010101010B9
:10DC100010828282828282020202020202020202D6
:10DC2000020202020202020202020210101010207E
:10DC3000000703200417020108571040800000006D
:10DC4000E4DD0200A8DC0200BCDD020053756E00BA
:10DC50004D6F6E005475650057656400546875001B
:10DC60004672690053617400000000004A616E0052
:10DC7000466562004D617200417072004D6179002D
:10DC80004A756E004A756C004175670053657000F7
:10DC90004F6374004E6F760044656300000000001F
:10DCA000414D00504D000000E0DD0200DCDD0200CF
:10DCB000DCDD0200DCDD0200DCDD0200DCDD020078
:10DCC000DCDD0200DCDD0200DCDD0200DCDD020068
:10DCD000FFFFFFFFFFFFFFFFFFFFFFFFFFFF000052
:10DCE0001CDD02004CDC020058DD02006CDC02008E
:10DCF000A0DC020000DD0200B0DD02000CDD02004D
:10DD0000256D2F25642F2579000000002561202531
:10DD100062202565202554202559000053756E6426
:10DD20006179004D6F6E646179005475657364614B
:10DD300079005765646E6573646179005468757223
:10DD40007364617900467269646179005361747526
:10DD500072646179000000004A616E756172790039
:10DD60004665627275617279004D61726368004147
:10DD70007072696C004D6179004A756E65004A7574
:10DD80006C79004175677573740053657074656DC7
:10DD9000626572004F63746F626572004E6F7665E4
:10DDA0006D62657200446563656D626572000000B6
:10DDB00025483A254D3A255300000000B5BC020025
:10DDC000D1BC0200DDBC0200E9BC020005BD0200BE
:10DDD00011BD02001DBD02002BBD020000000000AD
:10DDE0002E00000043000000504F5349580000002F
:10DDF00030313233343536373839616263646566C1
:10DE00003031323334353637383941424344454670
:08DE1000286E756C6C290000FE
:10DE1800000000000020004000000000002000403A
:10DE2800000000000090D003140000000000000073
:10DE380000000000000000000000000000000000DA
:10DE480000000000000000000000000000000000CA
:10DE580000000000000000000000000000000000BA
:10DE680000000000000000000000000000000000AA
:10E0F80000000000FFFF0000C43B00201F000000DC
:10E10800363332332E383038353430313032342EDD
:10E1180031333239300000001C2D0020262D00201C
:10E12800414243441C2D0020262D002040DC0200E3
:10E1380040DC020040DC020040DC020040DC02005F
:040000032000623D3A
:00000001FF
