Component: ARM Compiler 5.06 update 6 (build 750) Tool: armlink [4d35ed]

==============================================================================

Section Cross References

    main.o(i.advertising_init) refers to memseta.o(.text) for __aeabi_memclr4
    main.o(i.advertising_init) refers to ble_advdata.o(i.ble_advdata_set) for ble_advdata_set
    main.o(i.advertising_init) refers to app_error.o(i.app_error_handler) for app_error_handler
    main.o(i.advertising_init) refers to main.o(.constdata) for .constdata
    main.o(i.advertising_init) refers to main.o(.data) for .data
    main.o(i.advertising_init) refers to main.o(.bss) for .bss
    main.o(i.assert_nrf_callback) refers to app_error.o(i.app_error_handler) for app_error_handler
    main.o(i.main) refers to app_timer.o(i.app_timer_init) for app_timer_init
    main.o(i.main) refers to app_error.o(i.app_error_handler) for app_error_handler
    main.o(i.main) refers to bsp.o(i.bsp_init) for bsp_init
    main.o(i.main) refers to softdevice_handler.o(i.softdevice_handler_init) for softdevice_handler_init
    main.o(i.main) refers to main.o(i.advertising_init) for advertising_init
    main.o(i.main) refers to bsp.o(i.bsp_indication_set) for bsp_indication_set
    main.o(i.main) refers to main.o(.bss) for .bss
    bsp.o(i.bsp_button_event_handler) refers to app_timer.o(i.app_timer_start) for app_timer_start
    bsp.o(i.bsp_button_event_handler) refers to app_timer.o(i.app_timer_stop) for app_timer_stop
    bsp.o(i.bsp_button_event_handler) refers to bsp.o(.constdata) for .constdata
    bsp.o(i.bsp_button_event_handler) refers to bsp.o(.data) for .data
==============================================================================

Removing Unused input sections from the image.

    Removing main.o(.rev16_text), (4 bytes).
    Removing main.o(.revsh_text), (4 bytes).
    Removing main.o(i.assert_nrf_callback), (20 bytes).
    Removing bsp.o(.rev16_text), (4 bytes).
    Removing bsp.o(.revsh_text), (4 bytes).
    Removing bsp.o(i.bsp_button_is_pressed), (44 bytes).
    Removing bsp.o(i.bsp_buttons_disable), (8 bytes).
    Removing bsp.o(i.bsp_buttons_enable), (8 bytes).
    Removing bsp.o(i.bsp_buttons_state_get), (60 bytes).
    Removing bsp.o(i.bsp_indication_text_set), (8 bytes).
    Removing bsp.o(i.bsp_wakeup_buttons_set), (60 bytes).
    Removing arm_startup_nrf51.o(HEAP), (2048 bytes).
    Removing system_nrf51.o(.rev16_text), (4 bytes).
    Removing system_nrf51.o(.revsh_text), (4 bytes).
    Removing system_nrf51.o(i.SystemCoreClockUpdate), (16 bytes).
    Removing ble_conn_params.o(i.ble_conn_params_change_conn_params), (80 bytes).
    Removing ble_conn_params.o(i.ble_conn_params_init), (84 bytes).
    Removing ble_conn_params.o(i.ble_conn_params_on_ble_evt), (144 bytes).
==============================================================================

Image Symbol Table

    Local Symbols

    Symbol Name                              Value     Ov Type        Size  Object(Section)

    ../clib/microlib/division.c              0x00000000   Number         0  uidiv.o ABSOLUTE
    ../clib/microlib/init/entry.s            0x00000000   Number         0  entry10b.o ABSOLUTE
    ../clib/microlib/init/entry.s            0x00000000   Number         0  entry10a.o ABSOLUTE
    ../clib/microlib/init/entry.s            0x00000000   Number         0  entry.o ABSOLUTE
    ../clib/microlib/init/entry.s            0x00000000   Number         0  entry9b.o ABSOLUTE
    ../clib/microlib/init/entry.s            0x00000000   Number         0  entry9a.o ABSOLUTE
    ../clib/microlib/init/entry.s            0x00000000   Number         0  entry8b.o ABSOLUTE
    ../clib/microlib/init/entry.s            0x00000000   Number         0  entry2.o ABSOLUTE
    ../clib/microlib/init/entry.s            0x00000000   Number         0  entry5.o ABSOLUTE
    ../clib/microlib/init/entry.s            0x00000000   Number         0  entry7a.o ABSOLUTE
    ../clib/microlib/init/entry.s            0x00000000   Number         0  entry7b.o ABSOLUTE
    ../clib/microlib/init/entry.s            0x00000000   Number         0  entry8a.o ABSOLUTE
    ../clib/microlib/init/entry.s            0x00000000   Number         0  entry11a.o ABSOLUTE
    ../clib/microlib/init/entry.s            0x00000000   Number         0  entry11b.o ABSOLUTE
    ../clib/microlib/string/memcpy.c         0x00000000   Number         0  memcpyb.o ABSOLUTE
    ../clib/microlib/string/memcpy.c         0x00000000   Number         0  memcpya.o ABSOLUTE
    ../clib/microlib/string/memset.c         0x00000000   Number         0  memseta.o ABSOLUTE
    ../clib/microlib/string/strlen.c         0x00000000   Number         0  strlen.o ABSOLUTE
    ..\..\..\..\..\..\components\ble\common\ble_advdata.c 0x00000000   Number         0  ble_advdata.o ABSOLUTE
    ..\..\..\..\..\..\components\ble\common\ble_conn_params.c 0x00000000   Number         0  ble_conn_params.o ABSOLUTE
    ..\..\..\..\..\..\components\ble\common\ble_srv_common.c 0x00000000   Number         0  ble_srv_common.o ABSOLUTE
    ..\..\..\..\..\..\components\drivers_nrf\common\nrf_drv_common.c 0x00000000   Number         0  nrf_drv_common.o ABSOLUTE
    ..\..\..\..\..\..\components\drivers_nrf\delay\nrf_delay.c 0x00000000   Number         0  nrf_delay.o ABSOLUTE
    ..\..\..\..\..\..\components\drivers_nrf\gpiote\nrf_drv_gpiote.c 0x00000000   Number         0  nrf_drv_gpiote.o ABSOLUTE
    ..\..\..\..\..\..\components\drivers_nrf\uart\nrf_drv_uart.c 0x00000000   Number         0  nrf_drv_uart.o ABSOLUTE
    ..\..\..\..\..\..\components\libraries\button\app_button.c 0x00000000   Number         0  app_button.o ABSOLUTE
    ..\..\..\..\..\..\components\libraries\fifo\app_fifo.c 0x00000000   Number         0  app_fifo.o ABSOLUTE
    ..\..\..\..\..\..\components\libraries\timer\app_timer.c 0x00000000   Number         0  app_timer.o ABSOLUTE
    ..\..\..\..\..\..\components\libraries\uart\app_uart_fifo.c 0x00000000   Number         0  app_uart_fifo.o ABSOLUTE
    ..\..\..\..\..\..\components\libraries\util\app_error.c 0x00000000   Number         0  app_error.o ABSOLUTE
    ..\..\..\..\..\..\components\libraries\util\nrf_assert.c 0x00000000   Number         0  nrf_assert.o ABSOLUTE
    ..\..\..\..\..\..\components\softdevice\common\softdevice_handler\softdevice_handler.c 0x00000000   Number         0  softdevice_handler.o ABSOLUTE
    ..\..\..\..\..\..\components\toolchain\arm\arm_startup_nrf51.s 0x00000000   Number         0  arm_startup_nrf51.o ABSOLUTE
    ..\..\..\..\..\..\components\toolchain\system_nrf51.c 0x00000000   Number         0  system_nrf51.o ABSOLUTE
    ..\..\..\..\..\bsp\bsp.c                 0x00000000   Number         0  bsp.o ABSOLUTE
    ..\..\..\main.c                          0x00000000   Number         0  main.o ABSOLUTE
    ..\\..\\..\\..\\..\\..\\components\\drivers_nrf\\common\\nrf_drv_common.c 0x00000000   Number         0  nrf_drv_common.o ABSOLUTE
    ..\\..\\..\\..\\..\\..\\components\\drivers_nrf\\delay\\nrf_delay.c 0x00000000   Number         0  nrf_delay.o ABSOLUTE
    ..\\..\\..\\..\\..\\..\\components\\drivers_nrf\\gpiote\\nrf_drv_gpiote.c 0x00000000   Number         0  nrf_drv_gpiote.o ABSOLUTE
    ..\\..\\..\\..\\..\\..\\components\\drivers_nrf\\uart\\nrf_drv_uart.c 0x00000000   Number         0  nrf_drv_uart.o ABSOLUTE
    ..\\..\\..\\..\\..\\..\\components\\libraries\\button\\app_button.c 0x00000000   Number         0  app_button.o ABSOLUTE
    ..\\..\\..\\..\\..\\..\\components\\libraries\\timer\\app_timer.c 0x00000000   Number         0  app_timer.o ABSOLUTE
    ..\\..\\..\\..\\..\\..\\components\\libraries\\uart\\app_uart_fifo.c 0x00000000   Number         0  app_uart_fifo.o ABSOLUTE
    ..\\..\\..\\..\\..\\..\\components\\libraries\\util\\app_error.c 0x00000000   Number         0  app_error.o ABSOLUTE
    ..\\..\\..\\..\\..\\..\\components\\softdevice\\common\\softdevice_handler\\softdevice_handler.c 0x00000000   Number         0  softdevice_handler.o ABSOLUTE
    ..\\..\\..\\..\\..\\..\\components\\toolchain\\system_nrf51.c 0x00000000   Number         0  system_nrf51.o ABSOLUTE
    ..\\..\\..\\..\\..\\bsp\\bsp.c           0x00000000   Number         0  bsp.o ABSOLUTE
    ..\\..\\..\\main.c                       0x00000000   Number         0  main.o ABSOLUTE
    dc.s                                     0x00000000   Number         0  dc.o ABSOLUTE
    handlers.s                               0x00000000   Number         0  handlers.o ABSOLUTE
    init.s                                   0x00000000   Number         0  init.o ABSOLUTE
    RESET                                    0x0001c000   Section      192  arm_startup_nrf51.o(RESET)
    .ARM.Collect$$$$00000000                 0x0001c0c0   Section        0  entry.o(.ARM.Collect$$$$00000000)
    .ARM.Collect$$$$00000001                 0x0001c0c0   Section        4  entry2.o(.ARM.Collect$$$$00000001)
    .ARM.Collect$$$$00000004                 0x0001c0c4   Section        4  entry5.o(.ARM.Collect$$$$00000004)
    .ARM.Collect$$$$00000008                 0x0001c0c8   Section        0  entry7b.o(.ARM.Collect$$$$00000008)
    .ARM.Collect$$$$0000000A                 0x0001c0c8   Section        0  entry8b.o(.ARM.Collect$$$$0000000A)
    .ARM.Collect$$$$0000000B                 0x0001c0c8   Section        8  entry9a.o(.ARM.Collect$$$$0000000B)
    .ARM.Collect$$$$0000000D                 0x0001c0d0   Section        0  entry10a.o(.ARM.Collect$$$$0000000D)
    .ARM.Collect$$$$0000000F                 0x0001c0d0   Section        0  entry11a.o(.ARM.Collect$$$$0000000F)
    .ARM.Collect$$$$00002712                 0x0001c0d0   Section        4  entry2.o(.ARM.Collect$$$$00002712)
    __lit__00000000                          0x0001c0d0   Data           4  entry2.o(.ARM.Collect$$$$00002712)
    .emb_text                                0x0001c0d4   Section       30  app_timer.o(.emb_text)
    .text                                    0x0001c0f4   Section       56  arm_startup_nrf51.o(.text)
    .text                                    0x0001c12c   Section        0  uidiv.o(.text)
    .text                                    0x0001c158   Section        0  memcpya.o(.text)
    .text                                    0x0001c17c   Section        0  memseta.o(.text)
    .text                                    0x0001c1a0   Section       36  init.o(.text)
    i.GPIOTE_IRQHandler                      0x0001c1c4   Section        0  nrf_drv_gpiote.o(i.GPIOTE_IRQHandler)
    i.NVIC_SetPriority                       0x0001c2cc   Section        0  app_timer.o(i.NVIC_SetPriority)
    NVIC_SetPriority                         0x0001c2cd   Thumb Code    60  app_timer.o(i.NVIC_SetPriority)
    i.RTC1_IRQHandler                        0x0001c310   Section        0  app_timer.o(i.RTC1_IRQHandler)
    i.SWI0_IRQHandler                        0x0001c330   Section        0  app_timer.o(i.SWI0_IRQHandler)
    i.SWI2_IRQHandler                        0x0001c338   Section        0  softdevice_handler.o(i.SWI2_IRQHandler)
    i.SystemInit                             0x0001c35c   Section        0  system_nrf51.o(i.SystemInit)
    i.UART0_IRQHandler                       0x0001c3b0   Section        0  nrf_drv_uart.o(i.UART0_IRQHandler)
    i.__ARM_common_switch8                   0x0001c4b4   Section        0  bsp.o(i.__ARM_common_switch8)
    i.__scatterload_copy                     0x0001c4ce   Section       14  handlers.o(i.__scatterload_copy)
    i.__scatterload_null                     0x0001c4dc   Section        2  handlers.o(i.__scatterload_null)
    i.__scatterload_zeroinit                 0x0001c4de   Section       14  handlers.o(i.__scatterload_zeroinit)
    i.adv_data_encode                        0x0001c4ec   Section        0  ble_advdata.o(i.adv_data_encode)
    i.advertising_init                       0x0001c704   Section        0  main.o(i.advertising_init)
    advertising_init                         0x0001c705   Thumb Code   114  main.o(i.advertising_init)
    i.alert_timer_handler                    0x0001c788   Section        0  bsp.o(i.alert_timer_handler)
    alert_timer_handler                      0x0001c789   Thumb Code    20  bsp.o(i.alert_timer_handler)
    i.app_button_enable                      0x0001c7a0   Section        0  app_button.o(i.app_button_enable)
    i.app_button_init                        0x0001c7c4   Section        0  app_button.o(i.app_button_init)
    i.app_error_handler                      0x0001c838   Section        0  app_error.o(i.app_error_handler)
    i.app_timer_create                       0x0001c850   Section        0  app_timer.o(i.app_timer_create)
    i.app_timer_init                         0x0001c880   Section        0  app_timer.o(i.app_timer_init)
    i.app_timer_start                        0x0001c910   Section        0  app_timer.o(i.app_timer_start)
    i.app_timer_stop                         0x0001c98c   Section        0  app_timer.o(i.app_timer_stop)
    i.ble_advdata_set                        0x0001c9e0   Section        0  ble_advdata.o(i.ble_advdata_set)
    i.ble_device_addr_encode                 0x0001ca48   Section        0  ble_advdata.o(i.ble_device_addr_encode)
    ble_device_addr_encode                   0x0001ca49   Thumb Code    94  ble_advdata.o(i.ble_device_addr_encode)
    i.bsp_button_event_handler               0x0001caa8   Section        0  bsp.o(i.bsp_button_event_handler)
    bsp_button_event_handler                 0x0001caa9   Thumb Code   154  bsp.o(i.bsp_button_event_handler)
    i.bsp_event_to_button_action_assign      0x0001cb4c   Section        0  bsp.o(i.bsp_event_to_button_action_assign)
    i.bsp_indication_set                     0x0001cb94   Section        0  bsp.o(i.bsp_indication_set)
    i.bsp_init                               0x0001cbb0   Section        0  bsp.o(i.bsp_init)
    i.bsp_led_indication                     0x0001cc54   Section        0  bsp.o(i.bsp_led_indication)
    bsp_led_indication                       0x0001cc55   Thumb Code   550  bsp.o(i.bsp_led_indication)
    i.button_timer_handler                   0x0001ce90   Section        0  bsp.o(i.button_timer_handler)
    button_timer_handler                     0x0001ce91   Thumb Code    12  bsp.o(i.button_timer_handler)
    i.channel_free                           0x0001ce9c   Section        0  nrf_drv_gpiote.o(i.channel_free)
    channel_free                             0x0001ce9d   Thumb Code    22  nrf_drv_gpiote.o(i.channel_free)
    i.channel_port_alloc                     0x0001ceb8   Section        0  nrf_drv_gpiote.o(i.channel_port_alloc)
    channel_port_alloc                       0x0001ceb9   Thumb Code    66  nrf_drv_gpiote.o(i.channel_port_alloc)
    i.channel_port_get                       0x0001cf00   Section        0  nrf_drv_gpiote.o(i.channel_port_get)
    channel_port_get                         0x0001cf01   Thumb Code    10  nrf_drv_gpiote.o(i.channel_port_get)
    i.compare_reg_update                     0x0001cf10   Section        0  app_timer.o(i.compare_reg_update)
    compare_reg_update                       0x0001cf11   Thumb Code   142  app_timer.o(i.compare_reg_update)
    i.conn_int_encode                        0x0001cfb8   Section        0  ble_advdata.o(i.conn_int_encode)
    conn_int_encode                          0x0001cfb9   Thumb Code   130  ble_advdata.o(i.conn_int_encode)
    i.detection_delay_timeout_handler        0x0001d040   Section        0  app_button.o(i.detection_delay_timeout_handler)
    detection_delay_timeout_handler          0x0001d041   Thumb Code    90  app_button.o(i.detection_delay_timeout_handler)
    i.elapsed_ticks_acquire                  0x0001d0a0   Section        0  app_timer.o(i.elapsed_ticks_acquire)
    elapsed_ticks_acquire                    0x0001d0a1   Thumb Code    58  app_timer.o(i.elapsed_ticks_acquire)
    i.gpiote_event_handler                   0x0001d0e0   Section        0  app_button.o(i.gpiote_event_handler)
    gpiote_event_handler                     0x0001d0e1   Thumb Code    72  app_button.o(i.gpiote_event_handler)
    i.intern_softdevice_events_execute       0x0001d130   Section        0  softdevice_handler.o(i.intern_softdevice_events_execute)
    i.is_manual_peripheral_setup_needed      0x0001d1b0   Section        0  system_nrf51.o(i.is_manual_peripheral_setup_needed)
    is_manual_peripheral_setup_needed        0x0001d1b1   Thumb Code    66  system_nrf51.o(i.is_manual_peripheral_setup_needed)
    i.le_role_encode                         0x0001d1f8   Section        0  ble_advdata.o(i.le_role_encode)
    le_role_encode                           0x0001d1f9   Thumb Code    84  ble_advdata.o(i.le_role_encode)
    i.leds_timer_handler                     0x0001d24c   Section        0  bsp.o(i.leds_timer_handler)
    leds_timer_handler                       0x0001d24d   Thumb Code    18  bsp.o(i.leds_timer_handler)
    i.list_deletions_handler                 0x0001d264   Section        0  app_timer.o(i.list_deletions_handler)
    list_deletions_handler                   0x0001d265   Thumb Code   180  app_timer.o(i.list_deletions_handler)
    i.list_insertions_handler                0x0001d320   Section        0  app_timer.o(i.list_insertions_handler)
    list_insertions_handler                  0x0001d321   Thumb Code   202  app_timer.o(i.list_insertions_handler)
    i.main                                   0x0001d3f4   Section        0  main.o(i.main)
    i.manuf_specific_data_encode             0x0001d4a4   Section        0  ble_advdata.o(i.manuf_specific_data_encode)
    manuf_specific_data_encode               0x0001d4a5   Thumb Code   104  ble_advdata.o(i.manuf_specific_data_encode)
    i.name_encode                            0x0001d50c   Section        0  ble_advdata.o(i.name_encode)
    name_encode                              0x0001d50d   Thumb Code   158  ble_advdata.o(i.name_encode)
    i.nrf_drv_common_irq_enable              0x0001d5ac   Section        0  nrf_drv_common.o(i.nrf_drv_common_irq_enable)
    i.nrf_drv_gpiote_in_event_enable         0x0001d60c   Section        0  nrf_drv_gpiote.o(i.nrf_drv_gpiote_in_event_enable)
    i.nrf_drv_gpiote_in_init                 0x0001d6ac   Section        0  nrf_drv_gpiote.o(i.nrf_drv_gpiote_in_init)
    i.nrf_drv_gpiote_in_is_set               0x0001d750   Section        0  nrf_drv_gpiote.o(i.nrf_drv_gpiote_in_is_set)
    i.nrf_drv_gpiote_init                    0x0001d764   Section        0  nrf_drv_gpiote.o(i.nrf_drv_gpiote_init)
    i.nrf_drv_gpiote_is_init                 0x0001d7b8   Section        0  nrf_drv_gpiote.o(i.nrf_drv_gpiote_is_init)
    i.nrf_gpio_cfg                           0x0001d7c8   Section        0  nrf_drv_gpiote.o(i.nrf_gpio_cfg)
    nrf_gpio_cfg                             0x0001d7c9   Thumb Code    32  nrf_drv_gpiote.o(i.nrf_gpio_cfg)
    i.nrf_gpio_cfg_sense_set                 0x0001d7ec   Section        0  nrf_drv_gpiote.o(i.nrf_gpio_cfg_sense_set)
    nrf_gpio_cfg_sense_set                   0x0001d7ed   Thumb Code    26  nrf_drv_gpiote.o(i.nrf_gpio_cfg_sense_set)
    i.nrf_gpiote_event_is_set                0x0001d80c   Section        0  nrf_drv_gpiote.o(i.nrf_gpiote_event_is_set)
    nrf_gpiote_event_is_set                  0x0001d80d   Thumb Code    14  nrf_drv_gpiote.o(i.nrf_gpiote_event_is_set)
    i.nrf_uart_event_check                   0x0001d820   Section        0  nrf_drv_uart.o(i.nrf_uart_event_check)
    nrf_uart_event_check                     0x0001d821   Thumb Code    10  nrf_drv_uart.o(i.nrf_uart_event_check)
    i.nrf_uart_int_enable_check              0x0001d82a   Section        0  nrf_drv_uart.o(i.nrf_uart_int_enable_check)
    nrf_uart_int_enable_check                0x0001d82b   Thumb Code    16  nrf_drv_uart.o(i.nrf_uart_int_enable_check)
    i.pin_in_use_by_port                     0x0001d83c   Section        0  nrf_drv_gpiote.o(i.pin_in_use_by_port)
    pin_in_use_by_port                       0x0001d83d   Thumb Code    20  nrf_drv_gpiote.o(i.pin_in_use_by_port)
    i.pin_in_use_by_te                       0x0001d854   Section        0  nrf_drv_gpiote.o(i.pin_in_use_by_te)
    pin_in_use_by_te                         0x0001d855   Thumb Code    20  nrf_drv_gpiote.o(i.pin_in_use_by_te)
    i.rtc1_stop                              0x0001d86c   Section        0  app_timer.o(i.rtc1_stop)
    rtc1_stop                                0x0001d86d   Thumb Code    50  app_timer.o(i.rtc1_stop)
    i.rx_byte                                0x0001d8b0   Section        0  nrf_drv_uart.o(i.rx_byte)
    rx_byte                                  0x0001d8b1   Thumb Code    30  nrf_drv_uart.o(i.rx_byte)
    i.rx_done_event                          0x0001d8dc   Section        0  nrf_drv_uart.o(i.rx_done_event)
    rx_done_event                            0x0001d8dd   Thumb Code    28  nrf_drv_uart.o(i.rx_done_event)
    i.service_data_encode                    0x0001d8fc   Section        0  ble_advdata.o(i.service_data_encode)
    service_data_encode                      0x0001d8fd   Thumb Code   142  ble_advdata.o(i.service_data_encode)
    i.softdevice_assertion_handler           0x0001d98a   Section        0  softdevice_handler.o(i.softdevice_assertion_handler)
    i.softdevice_handler_init                0x0001d998   Section        0  softdevice_handler.o(i.softdevice_handler_init)
    i.timer_list_handler                     0x0001d9c8   Section        0  app_timer.o(i.timer_list_handler)
    timer_list_handler                       0x0001d9c9   Thumb Code   128  app_timer.o(i.timer_list_handler)
    i.timer_list_handler_sched               0x0001da4c   Section        0  app_timer.o(i.timer_list_handler_sched)
    timer_list_handler_sched                 0x0001da4d   Thumb Code    10  app_timer.o(i.timer_list_handler_sched)
    i.timer_list_insert                      0x0001da5c   Section        0  app_timer.o(i.timer_list_insert)
    timer_list_insert                        0x0001da5d   Thumb Code    60  app_timer.o(i.timer_list_insert)
    i.timer_timeouts_check                   0x0001da9c   Section        0  app_timer.o(i.timer_timeouts_check)
    timer_timeouts_check                     0x0001da9d   Thumb Code   122  app_timer.o(i.timer_timeouts_check)
    i.tx_byte                                0x0001db20   Section        0  nrf_drv_uart.o(i.tx_byte)
    tx_byte                                  0x0001db21   Thumb Code    30  nrf_drv_uart.o(i.tx_byte)
    i.tx_done_event                          0x0001db4c   Section        0  nrf_drv_uart.o(i.tx_done_event)
    tx_done_event                            0x0001db4d   Thumb Code    26  nrf_drv_uart.o(i.tx_done_event)
    i.uint16_encode                          0x0001db6c   Section        0  ble_advdata.o(i.uint16_encode)
    uint16_encode                            0x0001db6d   Thumb Code    10  ble_advdata.o(i.uint16_encode)
    i.user_id_get                            0x0001db78   Section        0  app_timer.o(i.user_id_get)
    user_id_get                              0x0001db79   Thumb Code    74  app_timer.o(i.user_id_get)
    i.user_op_alloc                          0x0001dbcc   Section        0  app_timer.o(i.user_op_alloc)
    user_op_alloc                            0x0001dbcd   Thumb Code    38  app_timer.o(i.user_op_alloc)
    i.uuid_list_encode                       0x0001dbf2   Section        0  ble_advdata.o(i.uuid_list_encode)
    uuid_list_encode                         0x0001dbf3   Thumb Code    48  ble_advdata.o(i.uuid_list_encode)
    i.uuid_list_sized_encode                 0x0001dc22   Section        0  ble_advdata.o(i.uuid_list_sized_encode)
    uuid_list_sized_encode                   0x0001dc23   Thumb Code   174  ble_advdata.o(i.uuid_list_sized_encode)
    .constdata                               0x0001dcd0   Section        4  main.o(.constdata)
    .constdata                               0x0001dcd4   Section       36  bsp.o(.constdata)
    m_leds_timer_id                          0x0001dcd4   Data           4  bsp.o(.constdata)
    m_alert_timer_id                         0x0001dcd8   Data           4  bsp.o(.constdata)
    m_button_timer_id                        0x0001dcdc   Data           4  bsp.o(.constdata)
    m_buttons_list                           0x0001dce0   Data           8  bsp.o(.constdata)
    app_buttons                              0x0001dce8   Data          16  bsp.o(.constdata)
    .constdata                               0x0001dcf8   Section        8  app_button.o(.constdata)
    m_detection_delay_timer_id               0x0001dcf8   Data           4  app_button.o(.constdata)
    .data                                    0x20002800   Section       20  main.o(.data)
    eddystone_uid_data                       0x20002800   Data          20  main.o(.data)
    .data                                    0x20002814   Section       26  bsp.o(.data)
    m_stable_state                           0x20002814   Data           1  bsp.o(.data)
    current_long_push_pin_no                 0x20002815   Data           1  bsp.o(.data)
    release_event_at_push                    0x20002816   Data           2  bsp.o(.data)
    m_app_ticks_per_100ms                    0x20002818   Data           4  bsp.o(.data)
    m_indication_type                        0x2000281c   Data           4  bsp.o(.data)
    m_alert_mask                             0x20002820   Data           4  bsp.o(.data)
    m_registered_callback                    0x20002824   Data           4  bsp.o(.data)
    m_events_list                            0x20002828   Data           6  bsp.o(.data)
    .data                                    0x20002830   Section        4  system_nrf51.o(.data)
    __tagsym$$used                           0x20002830   Number         0  system_nrf51.o(.data)
    .data                                    0x20002834   Section       20  app_button.o(.data)
    m_button_count                           0x20002834   Data           1  app_button.o(.data)
    mp_buttons                               0x20002838   Data           4  app_button.o(.data)
    m_detection_delay                        0x2000283c   Data           4  app_button.o(.data)
    m_pin_state                              0x20002840   Data           4  app_button.o(.data)
    m_pin_transition                         0x20002844   Data           4  app_button.o(.data)
    .data                                    0x20002848   Section       32  app_timer.o(.data)
    m_user_array_size                        0x20002848   Data           1  app_timer.o(.data)
    m_ticks_elapsed_q_read_ind               0x20002849   Data           1  app_timer.o(.data)
    m_ticks_elapsed_q_write_ind              0x2000284a   Data           1  app_timer.o(.data)
    m_rtc1_running                           0x2000284b   Data           1  app_timer.o(.data)
    m_rtc1_reset                             0x2000284c   Data           1  app_timer.o(.data)
    mp_users                                 0x20002850   Data           4  app_timer.o(.data)
    mp_timer_id_head                         0x20002854   Data           4  app_timer.o(.data)
    m_ticks_latest                           0x20002858   Data           4  app_timer.o(.data)
    m_evt_schedule_func                      0x2000285c   Data           4  app_timer.o(.data)
    m_ticks_elapsed                          0x20002860   Data           8  app_timer.o(.data)
    .data                                    0x20002868   Section       20  softdevice_handler.o(.data)
    m_softdevice_enabled                     0x20002868   Data           1  softdevice_handler.o(.data)
    m_ble_evt_buffer_size                    0x2000286a   Data           2  softdevice_handler.o(.data)
    m_evt_schedule_func                      0x2000286c   Data           4  softdevice_handler.o(.data)
    mp_ble_evt_buffer                        0x20002870   Data           4  softdevice_handler.o(.data)
    m_ble_evt_handler                        0x20002874   Data           4  softdevice_handler.o(.data)
    m_sys_evt_handler                        0x20002878   Data           4  softdevice_handler.o(.data)
    .bss                                     0x2000287c   Section      552  main.o(.bss)
    BLE_EVT_BUFFER                           0x2000287c   Data          72  main.o(.bss)
    APP_TIMER_BUF                            0x200028c4   Data         456  main.o(.bss)
    m_adv_params                             0x20002a8c   Data          24  main.o(.bss)
    .bss                                     0x20002aa4   Section       32  bsp.o(.bss)
    m_leds_timer_id_data                     0x20002aa4   Data          32  bsp.o(.bss)
    .bss                                     0x20002ac4   Section       32  bsp.o(.bss)
    m_alert_timer_id_data                    0x20002ac4   Data          32  bsp.o(.bss)
    .bss                                     0x20002ae4   Section       32  bsp.o(.bss)
    m_button_timer_id_data                   0x20002ae4   Data          32  bsp.o(.bss)
    .bss                                     0x20002b04   Section       72  nrf_drv_gpiote.o(.bss)
    m_cb                                     0x20002b04   Data          72  nrf_drv_gpiote.o(.bss)
    .bss                                     0x20002b4c   Section       24  nrf_drv_uart.o(.bss)
    m_cb                                     0x20002b4c   Data          24  nrf_drv_uart.o(.bss)
    .bss                                     0x20002b64   Section       32  app_button.o(.bss)
    m_detection_delay_timer_id_data          0x20002b64   Data          32  app_button.o(.bss)
    STACK                                    0x20002b88   Section     2048  arm_startup_nrf51.o(STACK)

    Global Symbols

    Symbol Name                              Value     Ov Type        Size  Object(Section)

    BuildAttributes$$THM_ISAv3M$S$PE$A:L22$X:L11$S22$IEEE1$IW$USESV6$~STKCKD$USESV7$~SHL$OSPACE$EBA8$MICROLIB$REQ8$PRES8$EABIv2 0x00000000   Number         0  anon$$obj.o ABSOLUTE
    __ARM_use_no_argv                        0x00000000   Number         0  main.o ABSOLUTE
    __cpp_initialize__aeabi_                  - Undefined Weak Reference
    __cxa_finalize                            - Undefined Weak Reference
    __decompress                              - Undefined Weak Reference
    _clock_init                               - Undefined Weak Reference
    _microlib_exit                            - Undefined Weak Reference
    __Vectors_Size                           0x000000c0   Number         0  arm_startup_nrf51.o ABSOLUTE
    __Vectors                                0x0001c000   Data           4  arm_startup_nrf51.o(RESET)
    __Vectors_End                            0x0001c0c0   Data           0  arm_startup_nrf51.o(RESET)
    __main                                   0x0001c0c1   Thumb Code     0  entry.o(.ARM.Collect$$$$00000000)
    _main_stk                                0x0001c0c1   Thumb Code     0  entry2.o(.ARM.Collect$$$$00000001)
    _main_scatterload                        0x0001c0c5   Thumb Code     0  entry5.o(.ARM.Collect$$$$00000004)
    __main_after_scatterload                 0x0001c0c9   Thumb Code     0  entry5.o(.ARM.Collect$$$$00000004)
    _main_clock                              0x0001c0c9   Thumb Code     0  entry7b.o(.ARM.Collect$$$$00000008)
    _main_cpp_init                           0x0001c0c9   Thumb Code     0  entry8b.o(.ARM.Collect$$$$0000000A)
    _main_init                               0x0001c0c9   Thumb Code     0  entry9a.o(.ARM.Collect$$$$0000000B)
    __rt_final_cpp                           0x0001c0d1   Thumb Code     0  entry10a.o(.ARM.Collect$$$$0000000D)
    __rt_final_exit                          0x0001c0d1   Thumb Code     0  entry11a.o(.ARM.Collect$$$$0000000F)
    __asm___11_app_timer_c_cd27f9c3__nrf_delay_us 0x0001c0d5   Thumb Code    30  app_timer.o(.emb_text)
    Reset_Handler                            0x0001c0f5   Thumb Code    26  arm_startup_nrf51.o(.text)
    NMI_Handler                              0x0001c10f   Thumb Code     2  arm_startup_nrf51.o(.text)
    HardFault_Handler                        0x0001c111   Thumb Code     2  arm_startup_nrf51.o(.text)
    SVC_Handler                              0x0001c113   Thumb Code     2  arm_startup_nrf51.o(.text)
    PendSV_Handler                           0x0001c115   Thumb Code     2  arm_startup_nrf51.o(.text)
    SysTick_Handler                          0x0001c117   Thumb Code     2  arm_startup_nrf51.o(.text)
    ADC_IRQHandler                           0x0001c119   Thumb Code     0  arm_startup_nrf51.o(.text)
    CCM_AAR_IRQHandler                       0x0001c119   Thumb Code     0  arm_startup_nrf51.o(.text)
    ECB_IRQHandler                           0x0001c119   Thumb Code     0  arm_startup_nrf51.o(.text)
    LPCOMP_IRQHandler                        0x0001c119   Thumb Code     0  arm_startup_nrf51.o(.text)
    POWER_CLOCK_IRQHandler                   0x0001c119   Thumb Code     0  arm_startup_nrf51.o(.text)
    QDEC_IRQHandler                          0x0001c119   Thumb Code     0  arm_startup_nrf51.o(.text)
    RADIO_IRQHandler                         0x0001c119   Thumb Code     0  arm_startup_nrf51.o(.text)
    RNG_IRQHandler                           0x0001c119   Thumb Code     0  arm_startup_nrf51.o(.text)
    RTC0_IRQHandler                          0x0001c119   Thumb Code     0  arm_startup_nrf51.o(.text)
    SPI0_TWI0_IRQHandler                     0x0001c119   Thumb Code     0  arm_startup_nrf51.o(.text)
    SPI1_TWI1_IRQHandler                     0x0001c119   Thumb Code     0  arm_startup_nrf51.o(.text)
    SWI1_IRQHandler                          0x0001c119   Thumb Code     0  arm_startup_nrf51.o(.text)
    SWI3_IRQHandler                          0x0001c119   Thumb Code     0  arm_startup_nrf51.o(.text)
    SWI4_IRQHandler                          0x0001c119   Thumb Code     0  arm_startup_nrf51.o(.text)
    SWI5_IRQHandler                          0x0001c119   Thumb Code     0  arm_startup_nrf51.o(.text)
    TEMP_IRQHandler                          0x0001c119   Thumb Code     0  arm_startup_nrf51.o(.text)
    TIMER0_IRQHandler                        0x0001c119   Thumb Code     0  arm_startup_nrf51.o(.text)
    TIMER1_IRQHandler                        0x0001c119   Thumb Code     0  arm_startup_nrf51.o(.text)
    TIMER2_IRQHandler                        0x0001c119   Thumb Code     0  arm_startup_nrf51.o(.text)
    WDT_IRQHandler                           0x0001c119   Thumb Code     0  arm_startup_nrf51.o(.text)
    __aeabi_uidiv                            0x0001c12d   Thumb Code     0  uidiv.o(.text)
    __aeabi_uidivmod                         0x0001c12d   Thumb Code    44  uidiv.o(.text)
    __aeabi_memcpy                           0x0001c159   Thumb Code    36  memcpya.o(.text)
    __aeabi_memcpy4                          0x0001c159   Thumb Code     0  memcpya.o(.text)
    __aeabi_memcpy8                          0x0001c159   Thumb Code     0  memcpya.o(.text)
    __aeabi_memset                           0x0001c17d   Thumb Code    14  memseta.o(.text)
    __aeabi_memset4                          0x0001c17d   Thumb Code     0  memseta.o(.text)
    __aeabi_memset8                          0x0001c17d   Thumb Code     0  memseta.o(.text)
    __aeabi_memclr                           0x0001c18b   Thumb Code     4  memseta.o(.text)
    __aeabi_memclr4                          0x0001c18b   Thumb Code     0  memseta.o(.text)
    __aeabi_memclr8                          0x0001c18b   Thumb Code     0  memseta.o(.text)
    _memset$wrapper                          0x0001c18f   Thumb Code    18  memseta.o(.text)
    __scatterload                            0x0001c1a1   Thumb Code    28  init.o(.text)
    __scatterload_rt2                        0x0001c1a1   Thumb Code     0  init.o(.text)
    GPIOTE_IRQHandler                        0x0001c1c5   Thumb Code   234  nrf_drv_gpiote.o(i.GPIOTE_IRQHandler)
    RTC1_IRQHandler                          0x0001c311   Thumb Code    28  app_timer.o(i.RTC1_IRQHandler)
    SWI0_IRQHandler                          0x0001c331   Thumb Code     8  app_timer.o(i.SWI0_IRQHandler)
    SWI2_IRQHandler                          0x0001c339   Thumb Code    32  softdevice_handler.o(i.SWI2_IRQHandler)
    SystemInit                               0x0001c35d   Thumb Code    64  system_nrf51.o(i.SystemInit)
    UART0_IRQHandler                         0x0001c3b1   Thumb Code   244  nrf_drv_uart.o(i.UART0_IRQHandler)
    __ARM_common_switch8                     0x0001c4b5   Thumb Code    26  bsp.o(i.__ARM_common_switch8)
    __scatterload_copy                       0x0001c4cf   Thumb Code    14  handlers.o(i.__scatterload_copy)
    __scatterload_null                       0x0001c4dd   Thumb Code     2  handlers.o(i.__scatterload_null)
    __scatterload_zeroinit                   0x0001c4df   Thumb Code    14  handlers.o(i.__scatterload_zeroinit)
    adv_data_encode                          0x0001c4ed   Thumb Code   534  ble_advdata.o(i.adv_data_encode)
    app_button_enable                        0x0001c7a1   Thumb Code    32  app_button.o(i.app_button_enable)
    app_button_init                          0x0001c7c5   Thumb Code   100  app_button.o(i.app_button_init)
    app_error_handler                        0x0001c839   Thumb Code    16  app_error.o(i.app_error_handler)
    app_timer_create                         0x0001c851   Thumb Code    44  app_timer.o(i.app_timer_create)
    app_timer_init                           0x0001c881   Thumb Code   126  app_timer.o(i.app_timer_init)
    app_timer_start                          0x0001c911   Thumb Code   114  app_timer.o(i.app_timer_start)
    app_timer_stop                           0x0001c98d   Thumb Code    78  app_timer.o(i.app_timer_stop)
    ble_advdata_set                          0x0001c9e1   Thumb Code   104  ble_advdata.o(i.ble_advdata_set)
    bsp_event_to_button_action_assign        0x0001cb4d   Thumb Code    66  bsp.o(i.bsp_event_to_button_action_assign)
    bsp_indication_set                       0x0001cb95   Thumb Code    22  bsp.o(i.bsp_indication_set)
    bsp_init                                 0x0001cbb1   Thumb Code   140  bsp.o(i.bsp_init)
    intern_softdevice_events_execute         0x0001d131   Thumb Code   124  softdevice_handler.o(i.intern_softdevice_events_execute)
    main                                     0x0001d3f5   Thumb Code   158  main.o(i.main)
    nrf_drv_common_irq_enable                0x0001d5ad   Thumb Code    78  nrf_drv_common.o(i.nrf_drv_common_irq_enable)
    nrf_drv_gpiote_in_event_enable           0x0001d60d   Thumb Code   138  nrf_drv_gpiote.o(i.nrf_drv_gpiote_in_event_enable)
    nrf_drv_gpiote_in_init                   0x0001d6ad   Thumb Code   146  nrf_drv_gpiote.o(i.nrf_drv_gpiote_in_init)
    nrf_drv_gpiote_in_is_set                 0x0001d751   Thumb Code    16  nrf_drv_gpiote.o(i.nrf_drv_gpiote_in_is_set)
    nrf_drv_gpiote_init                      0x0001d765   Thumb Code    76  nrf_drv_gpiote.o(i.nrf_drv_gpiote_init)
    nrf_drv_gpiote_is_init                   0x0001d7b9   Thumb Code    12  nrf_drv_gpiote.o(i.nrf_drv_gpiote_is_init)
    softdevice_assertion_handler             0x0001d98b   Thumb Code    12  softdevice_handler.o(i.softdevice_assertion_handler)
    softdevice_handler_init                  0x0001d999   Thumb Code    40  softdevice_handler.o(i.softdevice_handler_init)
    Region$$Table$$Base                      0x0001dd00   Number         0  anon$$obj.o(Region$$Table)
    Region$$Table$$Limit                     0x0001dd20   Number         0  anon$$obj.o(Region$$Table)
    SystemCoreClock                          0x20002830   Data           4  system_nrf51.o(.data)
    __initial_sp                             0x20003388   Data           0  arm_startup_nrf51.o(STACK)



==============================================================================

Memory Map of the image

  Image Entry point : 0x0001c0c1

  Load Region LR_IROM1 (Base: 0x0001c000, Size: 0x00001d9c, Max: 0x00024000, ABSOLUTE)

    Execution Region ER_IROM1 (Exec base: 0x0001c000, Load base: 0x0001c000, Size: 0x00001d20, Max: 0x00024000, ABSOLUTE)

    Exec Addr    Load Addr    Size         Type   Attr      Idx    E Section Name        Object

    0x0001c000   0x0001c000   0x000000c0   Data   RO          280    RESET               arm_startup_nrf51.o
    0x0001c0c0   0x0001c0c0   0x00000000   Code   RO         1324  * .ARM.Collect$$$$00000000  mc_p.l(entry.o)
    0x0001c0c0   0x0001c0c0   0x00000004   Code   RO         1337    .ARM.Collect$$$$00000001  mc_p.l(entry2.o)
    0x0001c0c4   0x0001c0c4   0x00000004   Code   RO         1340    .ARM.Collect$$$$00000004  mc_p.l(entry5.o)
    0x0001c0c8   0x0001c0c8   0x00000000   Code   RO         1342    .ARM.Collect$$$$00000008  mc_p.l(entry7b.o)
    0x0001c0c8   0x0001c0c8   0x00000000   Code   RO         1344    .ARM.Collect$$$$0000000A  mc_p.l(entry8b.o)
    0x0001c0c8   0x0001c0c8   0x00000008   Code   RO         1345    .ARM.Collect$$$$0000000B  mc_p.l(entry9a.o)
    0x0001c0d0   0x0001c0d0   0x00000000   Code   RO         1347    .ARM.Collect$$$$0000000D  mc_p.l(entry10a.o)
    0x0001c0d0   0x0001c0d0   0x00000000   Code   RO         1349    .ARM.Collect$$$$0000000F  mc_p.l(entry11a.o)
    0x0001c0d0   0x0001c0d0   0x00000004   Code   RO         1338    .ARM.Collect$$$$00002712  mc_p.l(entry2.o)
    0x0001c0d4   0x0001c0d4   0x0000001e   Code   RO         1110    .emb_text           app_timer.o
    0x0001c0f2   0x0001c0f2   0x00000002   PAD
    0x0001c0f4   0x0001c0f4   0x00000038   Code   RO          281    .text               arm_startup_nrf51.o
    0x0001c12c   0x0001c12c   0x0000002c   Code   RO         1327    .text               mc_p.l(uidiv.o)
    0x0001c158   0x0001c158   0x00000024   Code   RO         1329    .text               mc_p.l(memcpya.o)
    0x0001c17c   0x0001c17c   0x00000024   Code   RO         1331    .text               mc_p.l(memseta.o)
    0x0001c1a0   0x0001c1a0   0x00000024   Code   RO         1351    .text               mc_p.l(init.o)
    0x0001c1c4   0x0001c1c4   0x00000108   Code   RO          637    i.GPIOTE_IRQHandler  nrf_drv_gpiote.o
    0x0001c2cc   0x0001c2cc   0x00000044   Code   RO         1111    i.NVIC_SetPriority  app_timer.o
    0x0001c310   0x0001c310   0x00000020   Code   RO         1112    i.RTC1_IRQHandler   app_timer.o
    0x0001c330   0x0001c330   0x00000008   Code   RO         1113    i.SWI0_IRQHandler   app_timer.o
    0x0001c338   0x0001c338   0x00000024   Code   RO         1262    i.SWI2_IRQHandler   softdevice_handler.o
    0x0001c35c   0x0001c35c   0x00000054   Code   RO          288    i.SystemInit        system_nrf51.o
    0x0001c3b0   0x0001c3b0   0x00000104   Code   RO          827    i.UART0_IRQHandler  nrf_drv_uart.o
    0x0001c4b4   0x0001c4b4   0x0000001a   Code   RO          262    i.__ARM_common_switch8  bsp.o
    0x0001c4ce   0x0001c4ce   0x0000000e   Code   RO         1355    i.__scatterload_copy  mc_p.l(handlers.o)
    0x0001c4dc   0x0001c4dc   0x00000002   Code   RO         1356    i.__scatterload_null  mc_p.l(handlers.o)
    0x0001c4de   0x0001c4de   0x0000000e   Code   RO         1357    i.__scatterload_zeroinit  mc_p.l(handlers.o)
    0x0001c4ec   0x0001c4ec   0x00000216   Code   RO          322    i.adv_data_encode   ble_advdata.o
    0x0001c702   0x0001c702   0x00000002   PAD
    0x0001c704   0x0001c704   0x00000084   Code   RO            3    i.advertising_init  main.o
    0x0001c788   0x0001c788   0x00000018   Code   RO          169    i.alert_timer_handler  bsp.o
    0x0001c7a0   0x0001c7a0   0x00000024   Code   RO          975    i.app_button_enable  app_button.o
    0x0001c7c4   0x0001c7c4   0x00000074   Code   RO          976    i.app_button_init   app_button.o
    0x0001c838   0x0001c838   0x00000018   Code   RO         1035    i.app_error_handler  app_error.o
    0x0001c850   0x0001c850   0x00000030   Code   RO         1116    i.app_timer_create  app_timer.o
    0x0001c880   0x0001c880   0x00000090   Code   RO         1117    i.app_timer_init    app_timer.o
    0x0001c910   0x0001c910   0x0000007c   Code   RO         1118    i.app_timer_start   app_timer.o
    0x0001c98c   0x0001c98c   0x00000054   Code   RO         1119    i.app_timer_stop    app_timer.o
    0x0001c9e0   0x0001c9e0   0x00000068   Code   RO          323    i.ble_advdata_set   ble_advdata.o
    0x0001ca48   0x0001ca48   0x0000005e   Code   RO          324    i.ble_device_addr_encode  ble_advdata.o
    0x0001caa6   0x0001caa6   0x00000002   PAD
    0x0001caa8   0x0001caa8   0x000000a4   Code   RO          170    i.bsp_button_event_handler  bsp.o
    0x0001cb4c   0x0001cb4c   0x00000048   Code   RO          175    i.bsp_event_to_button_action_assign  bsp.o
    0x0001cb94   0x0001cb94   0x0000001c   Code   RO          176    i.bsp_indication_set  bsp.o
    0x0001cbb0   0x0001cbb0   0x000000a4   Code   RO          178    i.bsp_init          bsp.o
    0x0001cc54   0x0001cc54   0x0000023c   Code   RO          179    i.bsp_led_indication  bsp.o
    0x0001ce90   0x0001ce90   0x0000000c   Code   RO          181    i.button_timer_handler  bsp.o
    0x0001ce9c   0x0001ce9c   0x0000001c   Code   RO          638    i.channel_free      nrf_drv_gpiote.o
    0x0001ceb8   0x0001ceb8   0x00000048   Code   RO          639    i.channel_port_alloc  nrf_drv_gpiote.o
    0x0001cf00   0x0001cf00   0x00000010   Code   RO          640    i.channel_port_get  nrf_drv_gpiote.o
    0x0001cf10   0x0001cf10   0x000000a8   Code   RO         1121    i.compare_reg_update  app_timer.o
    0x0001cfb8   0x0001cfb8   0x00000088   Code   RO          325    i.conn_int_encode   ble_advdata.o
    0x0001d040   0x0001d040   0x00000060   Code   RO          978    i.detection_delay_timeout_handler  app_button.o
    0x0001d0a0   0x0001d0a0   0x00000040   Code   RO         1122    i.elapsed_ticks_acquire  app_timer.o
    0x0001d0e0   0x0001d0e0   0x00000050   Code   RO          979    i.gpiote_event_handler  app_button.o
    0x0001d130   0x0001d130   0x00000080   Code   RO         1263    i.intern_softdevice_events_execute  softdevice_handler.o
    0x0001d1b0   0x0001d1b0   0x00000048   Code   RO          289    i.is_manual_peripheral_setup_needed  system_nrf51.o
    0x0001d1f8   0x0001d1f8   0x00000054   Code   RO          326    i.le_role_encode    ble_advdata.o
    0x0001d24c   0x0001d24c   0x00000018   Code   RO          182    i.leds_timer_handler  bsp.o
    0x0001d264   0x0001d264   0x000000bc   Code   RO         1123    i.list_deletions_handler  app_timer.o
    0x0001d320   0x0001d320   0x000000d4   Code   RO         1124    i.list_insertions_handler  app_timer.o
    0x0001d3f4   0x0001d3f4   0x000000b0   Code   RO            5    i.main              main.o
    0x0001d4a4   0x0001d4a4   0x00000068   Code   RO          327    i.manuf_specific_data_encode  ble_advdata.o
    0x0001d50c   0x0001d50c   0x0000009e   Code   RO          328    i.name_encode       ble_advdata.o
    0x0001d5aa   0x0001d5aa   0x00000002   PAD
    0x0001d5ac   0x0001d5ac   0x00000060   Code   RO          611    i.nrf_drv_common_irq_enable  nrf_drv_common.o
    0x0001d60c   0x0001d60c   0x000000a0   Code   RO          643    i.nrf_drv_gpiote_in_event_enable  nrf_drv_gpiote.o
    0x0001d6ac   0x0001d6ac   0x000000a4   Code   RO          644    i.nrf_drv_gpiote_in_init  nrf_drv_gpiote.o
    0x0001d750   0x0001d750   0x00000014   Code   RO          645    i.nrf_drv_gpiote_in_is_set  nrf_drv_gpiote.o
    0x0001d764   0x0001d764   0x00000054   Code   RO          647    i.nrf_drv_gpiote_init  nrf_drv_gpiote.o
    0x0001d7b8   0x0001d7b8   0x00000010   Code   RO          648    i.nrf_drv_gpiote_is_init  nrf_drv_gpiote.o
    0x0001d7c8   0x0001d7c8   0x00000024   Code   RO          660    i.nrf_gpio_cfg      nrf_drv_gpiote.o
    0x0001d7ec   0x0001d7ec   0x00000020   Code   RO          662    i.nrf_gpio_cfg_sense_set  nrf_drv_gpiote.o
    0x0001d80c   0x0001d80c   0x00000014   Code   RO          663    i.nrf_gpiote_event_is_set  nrf_drv_gpiote.o
    0x0001d820   0x0001d820   0x0000000a   Code   RO          841    i.nrf_uart_event_check  nrf_drv_uart.o
    0x0001d82a   0x0001d82a   0x00000010   Code   RO          842    i.nrf_uart_int_enable_check  nrf_drv_uart.o
    0x0001d83a   0x0001d83a   0x00000002   PAD
    0x0001d83c   0x0001d83c   0x00000018   Code   RO          664    i.pin_in_use_by_port  nrf_drv_gpiote.o
    0x0001d854   0x0001d854   0x00000018   Code   RO          665    i.pin_in_use_by_te  nrf_drv_gpiote.o
    0x0001d86c   0x0001d86c   0x00000044   Code   RO         1125    i.rtc1_stop         app_timer.o
    0x0001d8b0   0x0001d8b0   0x0000002c   Code   RO          843    i.rx_byte           nrf_drv_uart.o
    0x0001d8dc   0x0001d8dc   0x00000020   Code   RO          844    i.rx_done_event     nrf_drv_uart.o
    0x0001d8fc   0x0001d8fc   0x0000008e   Code   RO          329    i.service_data_encode  ble_advdata.o
    0x0001d98a   0x0001d98a   0x0000000c   Code   RO         1264    i.softdevice_assertion_handler  softdevice_handler.o
    0x0001d996   0x0001d996   0x00000002   PAD
    0x0001d998   0x0001d998   0x00000030   Code   RO         1266    i.softdevice_handler_init  softdevice_handler.o
    0x0001d9c8   0x0001d9c8   0x00000084   Code   RO         1126    i.timer_list_handler  app_timer.o
    0x0001da4c   0x0001da4c   0x00000010   Code   RO         1127    i.timer_list_handler_sched  app_timer.o
    0x0001da5c   0x0001da5c   0x00000040   Code   RO         1128    i.timer_list_insert  app_timer.o
    0x0001da9c   0x0001da9c   0x00000084   Code   RO         1129    i.timer_timeouts_check  app_timer.o
    0x0001db20   0x0001db20   0x0000002c   Code   RO          846    i.tx_byte           nrf_drv_uart.o
    0x0001db4c   0x0001db4c   0x00000020   Code   RO          847    i.tx_done_event     nrf_drv_uart.o
    0x0001db6c   0x0001db6c   0x0000000a   Code   RO          330    i.uint16_encode     ble_advdata.o
    0x0001db76   0x0001db76   0x00000002   PAD
    0x0001db78   0x0001db78   0x00000054   Code   RO         1130    i.user_id_get       app_timer.o
    0x0001dbcc   0x0001dbcc   0x00000026   Code   RO         1131    i.user_op_alloc     app_timer.o
    0x0001dbf2   0x0001dbf2   0x00000030   Code   RO          331    i.uuid_list_encode  ble_advdata.o
    0x0001dc22   0x0001dc22   0x000000ae   Code   RO          332    i.uuid_list_sized_encode  ble_advdata.o
    0x0001dcd0   0x0001dcd0   0x00000004   Data   RO            7    .constdata          main.o
    0x0001dcd4   0x0001dcd4   0x00000024   Data   RO          186    .constdata          bsp.o
    0x0001dcf8   0x0001dcf8   0x00000008   Data   RO          981    .constdata          app_button.o
    0x0001dd00   0x0001dd00   0x00000020   Data   RO         1353    Region$$Table       anon$$obj.o


    Execution Region RW_IRAM1 (Exec base: 0x20002800, Load base: 0x0001dd20, Size: 0x00000b88, Max: 0x00001800, ABSOLUTE)

    Exec Addr    Load Addr    Size         Type   Attr      Idx    E Section Name        Object

    0x20002800   0x0001dd20   0x00000014   Data   RW            8    .data               main.o
    0x20002814   0x0001dd34   0x0000001a   Data   RW          187    .data               bsp.o
    0x2000282e   0x0001dd4e   0x00000002   PAD
    0x20002830   0x0001dd50   0x00000004   Data   RW          290    .data               system_nrf51.o
    0x20002834   0x0001dd54   0x00000014   Data   RW          982    .data               app_button.o
    0x20002848   0x0001dd68   0x00000020   Data   RW         1132    .data               app_timer.o
    0x20002868   0x0001dd88   0x00000014   Data   RW         1270    .data               softdevice_handler.o
    0x2000287c        -       0x00000228   Zero   RW            6    .bss                main.o
    0x20002aa4        -       0x00000020   Zero   RW          183    .bss                bsp.o
    0x20002ac4        -       0x00000020   Zero   RW          184    .bss                bsp.o
    0x20002ae4        -       0x00000020   Zero   RW          185    .bss                bsp.o
    0x20002b04        -       0x00000048   Zero   RW          666    .bss                nrf_drv_gpiote.o
    0x20002b4c        -       0x00000018   Zero   RW          848    .bss                nrf_drv_uart.o
    0x20002b64        -       0x00000020   Zero   RW          980    .bss                app_button.o
    0x20002b84   0x0001dd9c   0x00000004   PAD
    0x20002b88        -       0x00000800   Zero   RW          278    STACK               arm_startup_nrf51.o


==============================================================================

Image component sizes


      Code (inc. data)   RO Data    RW Data    ZI Data      Debug   Object Name

       328         34          8         20         32       9138   app_button.o
        24          8          0          0          0       7124   app_error.o
      1704        152          0         32          0      30603   app_timer.o
         0          0          0          0          0       1472   app_uart_fifo.o
        56         18        192          0       2048        764   arm_startup_nrf51.o
      1588          6          0          0          0      19108   ble_advdata.o
      1086        104         36         26         96       8796   bsp.o
       308         36          4         20        552      74083   main.o
        96         18          0          0          0       7880   nrf_drv_common.o
       960        128          0          0         72      22232   nrf_drv_gpiote.o
       438         54          0          0         24      12999   nrf_drv_uart.o
       224         16          0         20          0       5222   softdevice_handler.o
       156         26          0          4          0       2335   system_nrf51.o

    ----------------------------------------------------------------------
      6982        600        272        124       2828     201756   Object Totals
         0          0         32          0          0          0   (incl. Generated)
        14          0          0          2          4          0   (incl. Padding)

    ----------------------------------------------------------------------

      Code (inc. data)   RO Data    RW Data    ZI Data      Debug   Library Member Name

         0          0          0          0          0          0   entry.o
         0          0          0          0          0          0   entry10a.o
         0          0          0          0          0          0   entry11a.o
         8          4          0          0          0          0   entry2.o
         4          0          0          0          0          0   entry5.o
         0          0          0          0          0          0   entry7b.o
         0          0          0          0          0          0   entry8b.o
         8          4          0          0          0          0   entry9a.o
        30          0          0          0          0          0   handlers.o
        36          8          0          0          0         68   init.o
        36          0          0          0          0         60   memcpya.o
        36          0          0          0          0        100   memseta.o
        44          0          0          0          0         72   uidiv.o

    ----------------------------------------------------------------------
       202         16          0          0          0        300   Library Totals
         0          0          0          0          0          0   (incl. Padding)

    ----------------------------------------------------------------------

      Code (inc. data)   RO Data    RW Data    ZI Data      Debug   Library Name

       202         16          0          0          0        300   mc_p.l

    ----------------------------------------------------------------------
       202         16          0          0          0        300   Library Totals

    ----------------------------------------------------------------------

==============================================================================


      Code (inc. data)   RO Data    RW Data    ZI Data      Debug   

      7184        616        272        124       2828     198988   Grand Totals
      7184        616        272        124       2828     198988   ELF Image Totals
      7184        616        272        124          0          0   ROM Totals

==============================================================================

    Total RO  Size (Code + RO Data)                 7456 (   7.28kB)
    Total RW  Size (RW Data + ZI Data)              2952 (   2.88kB)
    Total ROM Size (Code + RO Data + RW Data)       7580 (   7.40kB)

==============================================================================

